{
  "contractName": "BatesOracle",
  "abi": [
    {
      "anonymous": false,
      "inputs": [
        {
          "indexed": true,
          "internalType": "address",
          "name": "previousOwner",
          "type": "address"
        },
        {
          "indexed": true,
          "internalType": "address",
          "name": "newOwner",
          "type": "address"
        }
      ],
      "name": "OwnershipTransferred",
      "type": "event"
    },
    {
      "anonymous": false,
      "inputs": [
        {
          "indexed": false,
          "internalType": "address",
          "name": "callerAddress",
          "type": "address"
        },
        {
          "indexed": false,
          "internalType": "uint256",
          "name": "tokenId",
          "type": "uint256"
        },
        {
          "indexed": false,
          "internalType": "string",
          "name": "tokenURI",
          "type": "string"
        },
        {
          "indexed": false,
          "internalType": "uint256",
          "name": "id",
          "type": "uint256"
        }
      ],
      "name": "SetTokenURIEvent",
      "type": "event"
    },
    {
      "anonymous": false,
      "inputs": [
        {
          "indexed": false,
          "internalType": "address",
          "name": "callerAddress",
          "type": "address"
        },
        {
          "indexed": false,
          "internalType": "uint256",
          "name": "tokenId",
          "type": "uint256"
        },
        {
          "indexed": false,
          "internalType": "string",
          "name": "name",
          "type": "string"
        },
        {
          "indexed": false,
          "internalType": "string",
          "name": "position",
          "type": "string"
        },
        {
          "indexed": false,
          "internalType": "uint256",
          "name": "genes",
          "type": "uint256"
        },
        {
          "indexed": false,
          "internalType": "uint256",
          "name": "id",
          "type": "uint256"
        }
      ],
      "name": "UpdateTokenURIEvent",
      "type": "event"
    },
    {
      "inputs": [],
      "name": "owner",
      "outputs": [
        {
          "internalType": "address",
          "name": "",
          "type": "address"
        }
      ],
      "stateMutability": "view",
      "type": "function"
    },
    {
      "inputs": [],
      "name": "renounceOwnership",
      "outputs": [],
      "stateMutability": "nonpayable",
      "type": "function"
    },
    {
      "inputs": [
        {
          "internalType": "address",
          "name": "newOwner",
          "type": "address"
        }
      ],
      "name": "transferOwnership",
      "outputs": [],
      "stateMutability": "nonpayable",
      "type": "function"
    },
    {
      "inputs": [
        {
          "internalType": "uint256",
          "name": "tokenId",
          "type": "uint256"
        },
        {
          "internalType": "string",
          "name": "name",
          "type": "string"
        },
        {
          "internalType": "string",
          "name": "position",
          "type": "string"
        },
        {
          "internalType": "uint256",
          "name": "genes",
          "type": "uint256"
        }
      ],
      "name": "updateTokenURI",
      "outputs": [
        {
          "internalType": "uint256",
          "name": "",
          "type": "uint256"
        }
      ],
      "stateMutability": "nonpayable",
      "type": "function"
    },
    {
      "inputs": [
        {
          "internalType": "uint256",
          "name": "tokenId",
          "type": "uint256"
        },
        {
          "internalType": "string",
          "name": "tokenURI",
          "type": "string"
        },
        {
          "internalType": "address",
          "name": "callerAddress",
          "type": "address"
        },
        {
          "internalType": "uint256",
          "name": "id",
          "type": "uint256"
        }
      ],
      "name": "setTokenURI",
      "outputs": [],
      "stateMutability": "nonpayable",
      "type": "function"
    },
    {
      "inputs": [],
      "name": "withdraw",
      "outputs": [],
      "stateMutability": "nonpayable",
      "type": "function"
    }
  ],
  "bytecode": "0x60806040526000600155633b9aca0060025534801561001d57600080fd5b50600061002e6100d160201b60201c565b9050806000806101000a81548173ffffffffffffffffffffffffffffffffffffffff021916908373ffffffffffffffffffffffffffffffffffffffff1602179055508073ffffffffffffffffffffffffffffffffffffffff16600073ffffffffffffffffffffffffffffffffffffffff167f8be0079c531659141344cd1fd0a4f28419497f9722a3daafe3b4186f6b6457e060405160405180910390a3506100d9565b600033905090565b611025806100e86000396000f3fe608060405234801561001057600080fd5b50600436106100625760003560e01c80633ccfd60b146100675780636867668314610071578063715018a6146100a15780638da5cb5b146100ab578063f2fde38b146100c9578063fac5a4cf146100e5575b600080fd5b61006f610101565b005b61008b6004803603810190610086919061095f565b6101e5565b6040516100989190610a0d565b60405180910390f35b6100a96102b9565b005b6100b361040c565b6040516100c09190610a69565b60405180910390f35b6100e360048036038101906100de9190610ab0565b610435565b005b6100ff60048036038101906100fa9190610add565b6105f7565b005b6101096107c7565b73ffffffffffffffffffffffffffffffffffffffff1660008054906101000a900473ffffffffffffffffffffffffffffffffffffffff1673ffffffffffffffffffffffffffffffffffffffff1614610196576040517f08c379a000000000000000000000000000000000000000000000000000000000815260040161018d90610bbd565b60405180910390fd5b60004790503373ffffffffffffffffffffffffffffffffffffffff166108fc829081150290604051600060405180830381858888f193505050501580156101e1573d6000803e3d6000fd5b5050565b6000600160008154809291906101fa90610c0c565b91905055506000600254423360015460405160200161021b93929190610cbe565b6040516020818303038152906040528051906020012060001c61023e9190610d2a565b905060016003600083815260200190815260200160002060006101000a81548160ff0219169083151502179055507f7173ab27d5ebb131a74fee2df659acc5cc48650c5c1951169ef3738357e97b403387878787866040516102a596959493929190610dd2565b60405180910390a180915050949350505050565b6102c16107c7565b73ffffffffffffffffffffffffffffffffffffffff1660008054906101000a900473ffffffffffffffffffffffffffffffffffffffff1673ffffffffffffffffffffffffffffffffffffffff161461034e576040517f08c379a000000000000000000000000000000000000000000000000000000000815260040161034590610bbd565b60405180910390fd5b600073ffffffffffffffffffffffffffffffffffffffff1660008054906101000a900473ffffffffffffffffffffffffffffffffffffffff1673ffffffffffffffffffffffffffffffffffffffff167f8be0079c531659141344cd1fd0a4f28419497f9722a3daafe3b4186f6b6457e060405160405180910390a360008060006101000a81548173ffffffffffffffffffffffffffffffffffffffff021916908373ffffffffffffffffffffffffffffffffffffffff160217905550565b60008060009054906101000a900473ffffffffffffffffffffffffffffffffffffffff16905090565b61043d6107c7565b73ffffffffffffffffffffffffffffffffffffffff1660008054906101000a900473ffffffffffffffffffffffffffffffffffffffff1673ffffffffffffffffffffffffffffffffffffffff16146104ca576040517f08c379a00000000000000000000000000000000000000000000000000000000081526004016104c190610bbd565b60405180910390fd5b600073ffffffffffffffffffffffffffffffffffffffff168173ffffffffffffffffffffffffffffffffffffffff16141561053a576040517f08c379a000000000000000000000000000000000000000000000000000000000815260040161053190610eb3565b60405180910390fd5b8073ffffffffffffffffffffffffffffffffffffffff1660008054906101000a900473ffffffffffffffffffffffffffffffffffffffff1673ffffffffffffffffffffffffffffffffffffffff167f8be0079c531659141344cd1fd0a4f28419497f9722a3daafe3b4186f6b6457e060405160405180910390a3806000806101000a81548173ffffffffffffffffffffffffffffffffffffffff021916908373ffffffffffffffffffffffffffffffffffffffff16021790555050565b6105ff6107c7565b73ffffffffffffffffffffffffffffffffffffffff1660008054906101000a900473ffffffffffffffffffffffffffffffffffffffff1673ffffffffffffffffffffffffffffffffffffffff161461068c576040517f08c379a000000000000000000000000000000000000000000000000000000000815260040161068390610bbd565b60405180910390fd5b6003600082815260200190815260200160002060009054906101000a900460ff166106ec576040517f08c379a00000000000000000000000000000000000000000000000000000000081526004016106e390610f45565b60405180910390fd5b6003600082815260200190815260200160002060006101000a81549060ff021916905560008290508073ffffffffffffffffffffffffffffffffffffffff16632fefa50c8686856040518463ffffffff1660e01b815260040161075193929190610f65565b600060405180830381600087803b15801561076b57600080fd5b505af115801561077f573d6000803e3d6000fd5b505050507f616513568e2f59296f015fd69fb0e9978c021c224bf0ff4c650edb9dce1d87fd838686856040516107b89493929190610fa3565b60405180910390a15050505050565b600033905090565b6000604051905090565b600080fd5b600080fd5b6000819050919050565b6107f6816107e3565b811461080157600080fd5b50565b600081359050610813816107ed565b92915050565b600080fd5b600080fd5b6000601f19601f8301169050919050565b7f4e487b7100000000000000000000000000000000000000000000000000000000600052604160045260246000fd5b61086c82610823565b810181811067ffffffffffffffff8211171561088b5761088a610834565b5b80604052505050565b600061089e6107cf565b90506108aa8282610863565b919050565b600067ffffffffffffffff8211156108ca576108c9610834565b5b6108d382610823565b9050602081019050919050565b82818337600083830152505050565b60006109026108fd846108af565b610894565b90508281526020810184848401111561091e5761091d61081e565b5b6109298482856108e0565b509392505050565b600082601f83011261094657610945610819565b5b81356109568482602086016108ef565b91505092915050565b60008060008060808587031215610979576109786107d9565b5b600061098787828801610804565b945050602085013567ffffffffffffffff8111156109a8576109a76107de565b5b6109b487828801610931565b935050604085013567ffffffffffffffff8111156109d5576109d46107de565b5b6109e187828801610931565b92505060606109f287828801610804565b91505092959194509250565b610a07816107e3565b82525050565b6000602082019050610a2260008301846109fe565b92915050565b600073ffffffffffffffffffffffffffffffffffffffff82169050919050565b6000610a5382610a28565b9050919050565b610a6381610a48565b82525050565b6000602082019050610a7e6000830184610a5a565b92915050565b610a8d81610a48565b8114610a9857600080fd5b50565b600081359050610aaa81610a84565b92915050565b600060208284031215610ac657610ac56107d9565b5b6000610ad484828501610a9b565b91505092915050565b60008060008060808587031215610af757610af66107d9565b5b6000610b0587828801610804565b945050602085013567ffffffffffffffff811115610b2657610b256107de565b5b610b3287828801610931565b9350506040610b4387828801610a9b565b9250506060610b5487828801610804565b91505092959194509250565b600082825260208201905092915050565b7f4f776e61626c653a2063616c6c6572206973206e6f7420746865206f776e6572600082015250565b6000610ba7602083610b60565b9150610bb282610b71565b602082019050919050565b60006020820190508181036000830152610bd681610b9a565b9050919050565b7f4e487b7100000000000000000000000000000000000000000000000000000000600052601160045260246000fd5b6000610c17826107e3565b91507fffffffffffffffffffffffffffffffffffffffffffffffffffffffffffffffff821415610c4a57610c49610bdd565b5b600182019050919050565b6000819050919050565b610c70610c6b826107e3565b610c55565b82525050565b60008160601b9050919050565b6000610c8e82610c76565b9050919050565b6000610ca082610c83565b9050919050565b610cb8610cb382610a48565b610c95565b82525050565b6000610cca8286610c5f565b602082019150610cda8285610ca7565b601482019150610cea8284610c5f565b602082019150819050949350505050565b7f4e487b7100000000000000000000000000000000000000000000000000000000600052601260045260246000fd5b6000610d35826107e3565b9150610d40836107e3565b925082610d5057610d4f610cfb565b5b828206905092915050565b600081519050919050565b60005b83811015610d84578082015181840152602081019050610d69565b83811115610d93576000848401525b50505050565b6000610da482610d5b565b610dae8185610b60565b9350610dbe818560208601610d66565b610dc781610823565b840191505092915050565b600060c082019050610de76000830189610a5a565b610df460208301886109fe565b8181036040830152610e068187610d99565b90508181036060830152610e1a8186610d99565b9050610e2960808301856109fe565b610e3660a08301846109fe565b979650505050505050565b7f4f776e61626c653a206e6577206f776e657220697320746865207a65726f206160008201527f6464726573730000000000000000000000000000000000000000000000000000602082015250565b6000610e9d602683610b60565b9150610ea882610e41565b604082019050919050565b60006020820190508181036000830152610ecc81610e90565b9050919050565b7f52657175657374206973206e6f7420696e207468652070656e64696e67206c6960008201527f7374000000000000000000000000000000000000000000000000000000000000602082015250565b6000610f2f602283610b60565b9150610f3a82610ed3565b604082019050919050565b60006020820190508181036000830152610f5e81610f22565b9050919050565b6000606082019050610f7a60008301866109fe565b8181036020830152610f8c8185610d99565b9050610f9b60408301846109fe565b949350505050565b6000608082019050610fb86000830187610a5a565b610fc560208301866109fe565b8181036040830152610fd78185610d99565b9050610fe660608301846109fe565b9594505050505056fea264697066735822122089b004f2d2f744d71e517db96edb07bcb256aa6009539ada084328a8ec02a9ed64736f6c634300080c0033",
  "immutableReferences": {},
  "source": "// SPDX-License-Identifier: MIT\r\n\r\npragma solidity ^0.8.0;\r\n\r\nabstract contract Context {\r\n    function _msgSender() internal view virtual returns (address) {\r\n        return msg.sender;\r\n    }\r\n\r\n    function _msgData() internal view virtual returns (bytes calldata) {\r\n        return msg.data;\r\n    }\r\n}\r\n\r\ncontract Ownable is Context {\r\n    address private _owner;\r\n\r\n    event OwnershipTransferred(address indexed previousOwner, address indexed newOwner);\r\n\r\n    /**\r\n     * @dev Initializes the contract setting the deployer as the initial owner.\r\n     */\r\n    constructor () {\r\n        address msgSender = _msgSender();\r\n        _owner = msgSender;\r\n        emit OwnershipTransferred(address(0), msgSender);\r\n    }\r\n\r\n    /**\r\n     * @dev Returns the address of the current owner.\r\n     */\r\n    function owner() public view returns (address) {\r\n        return _owner;\r\n    }\r\n\r\n    /**\r\n     * @dev Throws if called by any account other than the owner.\r\n     */\r\n    modifier onlyOwner() {\r\n        require(_owner == _msgSender(), \"Ownable: caller is not the owner\");\r\n        _;\r\n    }\r\n\r\n    /**\r\n     * @dev Leaves the contract without owner. It will not be possible to call\r\n     * `onlyOwner` functions anymore. Can only be called by the current owner.\r\n     *\r\n     * NOTE: Renouncing ownership will leave the contract without an owner,\r\n     * thereby removing any functionality that is only available to the owner.\r\n     */\r\n    function renounceOwnership() public virtual onlyOwner {\r\n        emit OwnershipTransferred(_owner, address(0));\r\n        _owner = address(0);\r\n    }\r\n\r\n    /**\r\n     * @dev Transfers ownership of the contract to a new account (`newOwner`).\r\n     * Can only be called by the current owner.\r\n     */\r\n    function transferOwnership(address newOwner) public virtual onlyOwner {\r\n        require(newOwner != address(0), \"Ownable: new owner is the zero address\");\r\n        emit OwnershipTransferred(_owner, newOwner);\r\n        _owner = newOwner;\r\n    }\r\n}\r\n\r\ninterface BusinessCardContractInterface {\r\n    function callback(uint256 _tokenId, string memory _tokenURI, uint256 _id) external;\r\n}\r\n\r\ncontract BatesOracle is Ownable {\r\n\r\n\tuint private randNonce = 0;\r\n\tuint private modulus = 1000000000;\r\n\t// Each new request gets a unique id, and starts as pending -> true\r\n\tmapping (uint256 => bool) pendingRequests;\r\n\r\n\t// Events that will get triggered, and caught by the oracle server\r\n\tevent UpdateTokenURIEvent(address callerAddress, uint256 tokenId, string name, string position, uint256 genes, uint id);\r\n\tevent SetTokenURIEvent(address callerAddress, uint256 tokenId, string tokenURI, uint256 id);\r\n\r\n\t\r\n    /**\r\n     * @dev Call to update a tokenURI - gets picked up and processed by the server oracle, updating it via setTokenURI\r\n    */\r\n    function updateTokenURI(uint256 tokenId, string memory name, string memory position, uint256 genes) public returns(uint256) {\r\n\t\t// Generating a unique request id \r\n        randNonce++;\r\n        uint id = uint(keccak256(abi.encodePacked(block.timestamp, msg.sender, randNonce))) % modulus;\r\n\t   // Once generated, it is a pending request\r\n       pendingRequests[id] = true;\r\n       // Event to get picked up by the server side of the oracle\r\n       emit UpdateTokenURIEvent(msg.sender, tokenId, name, position, genes, id);\r\n       return id;\r\n    }\r\n\r\n    /**\r\n     * @dev Sets a tokenURI calling the Business Card contract\r\n    */\r\n    function setTokenURI(uint256 tokenId, string memory tokenURI, address callerAddress, uint256 id) public onlyOwner {\r\n        require(pendingRequests[id], \"Request is not in the pending list\");\r\n        delete pendingRequests[id];\r\n        // ADD THIS INTERFACE\r\n        BusinessCardContractInterface businessCardContractInstance;\r\n        businessCardContractInstance = BusinessCardContractInterface(callerAddress);\r\n        businessCardContractInstance.callback(tokenId, tokenURI, id);\r\n        emit SetTokenURIEvent(callerAddress, tokenId, tokenURI, id);\r\n    }\r\n\r\n    /**\r\n     * @dev Withdraw BNB from this contract (Callable by owner)\r\n    */\r\n    function withdraw() onlyOwner public {\r\n        uint balance = address(this).balance;\r\n        payable(msg.sender).transfer(balance);\r\n    }\r\n}",
  "sourcePath": "C:\\Users\\sergi\\Desktop\\Ebin\\dorsiaclub\\src\\contracts\\BatesOracle.sol",
  "compiler": {
    "name": "solc",
    "version": "0.8.12+commit.f00d7308.Emscripten.clang"
  },
  "schemaVersion": "3.4.3",
  "updatedAt": "2022-02-22T17:21:50.789Z",
  "devdoc": {
    "kind": "dev",
    "methods": {
      "owner()": {
        "details": "Returns the address of the current owner."
      },
      "renounceOwnership()": {
        "details": "Leaves the contract without owner. It will not be possible to call `onlyOwner` functions anymore. Can only be called by the current owner. NOTE: Renouncing ownership will leave the contract without an owner, thereby removing any functionality that is only available to the owner."
      },
      "setTokenURI(uint256,string,address,uint256)": {
        "details": "Sets a tokenURI calling the Business Card contract"
      },
      "transferOwnership(address)": {
        "details": "Transfers ownership of the contract to a new account (`newOwner`). Can only be called by the current owner."
      },
      "updateTokenURI(uint256,string,string,uint256)": {
        "details": "Call to update a tokenURI - gets picked up and processed by the server oracle, updating it via setTokenURI"
      },
      "withdraw()": {
        "details": "Withdraw BNB from this contract (Callable by owner)"
      }
    },
    "version": 1
  },
  "userdoc": {
    "kind": "user",
    "methods": {},
    "version": 1
  }
}