{
  "_format": "hh-sol-artifact-1",
  "contractName": "BusinessCard",
  "sourceName": "contracts/BusinessCard.sol",
  "abi": [
    {
      "inputs": [
        {
          "internalType": "string",
          "name": "name_",
          "type": "string"
        },
        {
          "internalType": "string",
          "name": "symbol_",
          "type": "string"
        },
        {
          "internalType": "string",
          "name": "defaultURI_",
          "type": "string"
        },
        {
          "internalType": "address",
          "name": "_oracle",
          "type": "address"
        }
      ],
      "stateMutability": "nonpayable",
      "type": "constructor"
    },
    {
      "anonymous": false,
      "inputs": [
        {
          "indexed": true,
          "internalType": "address",
          "name": "owner",
          "type": "address"
        },
        {
          "indexed": true,
          "internalType": "address",
          "name": "approved",
          "type": "address"
        },
        {
          "indexed": true,
          "internalType": "uint256",
          "name": "tokenId",
          "type": "uint256"
        }
      ],
      "name": "Approval",
      "type": "event"
    },
    {
      "anonymous": false,
      "inputs": [
        {
          "indexed": true,
          "internalType": "address",
          "name": "owner",
          "type": "address"
        },
        {
          "indexed": true,
          "internalType": "address",
          "name": "operator",
          "type": "address"
        },
        {
          "indexed": false,
          "internalType": "bool",
          "name": "approved",
          "type": "bool"
        }
      ],
      "name": "ApprovalForAll",
      "type": "event"
    },
    {
      "anonymous": false,
      "inputs": [
        {
          "indexed": true,
          "internalType": "address",
          "name": "previousOwner",
          "type": "address"
        },
        {
          "indexed": true,
          "internalType": "address",
          "name": "newOwner",
          "type": "address"
        }
      ],
      "name": "OwnershipTransferred",
      "type": "event"
    },
    {
      "anonymous": false,
      "inputs": [
        {
          "indexed": false,
          "internalType": "uint256",
          "name": "tokenId1",
          "type": "uint256"
        },
        {
          "indexed": false,
          "internalType": "uint256",
          "name": "tokenId2",
          "type": "uint256"
        },
        {
          "indexed": false,
          "internalType": "uint256",
          "name": "genes1",
          "type": "uint256"
        },
        {
          "indexed": false,
          "internalType": "uint256",
          "name": "genes2",
          "type": "uint256"
        }
      ],
      "name": "SwapRequest",
      "type": "event"
    },
    {
      "anonymous": false,
      "inputs": [
        {
          "indexed": false,
          "internalType": "uint256",
          "name": "tokenId",
          "type": "uint256"
        },
        {
          "indexed": false,
          "internalType": "string",
          "name": "tokenURI",
          "type": "string"
        }
      ],
      "name": "TokenURIUpdated",
      "type": "event"
    },
    {
      "anonymous": false,
      "inputs": [
        {
          "indexed": true,
          "internalType": "address",
          "name": "from",
          "type": "address"
        },
        {
          "indexed": true,
          "internalType": "address",
          "name": "to",
          "type": "address"
        },
        {
          "indexed": true,
          "internalType": "uint256",
          "name": "tokenId",
          "type": "uint256"
        }
      ],
      "name": "Transfer",
      "type": "event"
    },
    {
      "anonymous": false,
      "inputs": [
        {
          "indexed": false,
          "internalType": "uint256",
          "name": "tokenId",
          "type": "uint256"
        },
        {
          "indexed": false,
          "internalType": "uint256",
          "name": "genes",
          "type": "uint256"
        },
        {
          "indexed": false,
          "internalType": "string",
          "name": "name",
          "type": "string"
        },
        {
          "components": [
            {
              "internalType": "string",
              "name": "position",
              "type": "string"
            },
            {
              "internalType": "string",
              "name": "twitterAccount",
              "type": "string"
            },
            {
              "internalType": "string",
              "name": "telegramAccount",
              "type": "string"
            },
            {
              "internalType": "string",
              "name": "telegramGroup",
              "type": "string"
            },
            {
              "internalType": "uint256",
              "name": "discordAccount",
              "type": "uint256"
            },
            {
              "internalType": "string",
              "name": "discordGroup",
              "type": "string"
            },
            {
              "internalType": "string",
              "name": "githubUsername",
              "type": "string"
            },
            {
              "internalType": "string",
              "name": "website",
              "type": "string"
            }
          ],
          "indexed": false,
          "internalType": "struct BusinessCard.CardProperties",
          "name": "cardProperties",
          "type": "tuple"
        }
      ],
      "name": "UpdateRequest",
      "type": "event"
    },
    {
      "inputs": [
        {
          "internalType": "address",
          "name": "to",
          "type": "address"
        },
        {
          "internalType": "uint256",
          "name": "tokenId",
          "type": "uint256"
        }
      ],
      "name": "approve",
      "outputs": [],
      "stateMutability": "nonpayable",
      "type": "function"
    },
    {
      "inputs": [
        {
          "internalType": "address",
          "name": "owner",
          "type": "address"
        }
      ],
      "name": "balanceOf",
      "outputs": [
        {
          "internalType": "uint256",
          "name": "",
          "type": "uint256"
        }
      ],
      "stateMutability": "view",
      "type": "function"
    },
    {
      "inputs": [],
      "name": "defaultURI",
      "outputs": [
        {
          "internalType": "string",
          "name": "",
          "type": "string"
        }
      ],
      "stateMutability": "view",
      "type": "function"
    },
    {
      "inputs": [
        {
          "internalType": "uint256",
          "name": "tokenId",
          "type": "uint256"
        }
      ],
      "name": "getApproved",
      "outputs": [
        {
          "internalType": "address",
          "name": "",
          "type": "address"
        }
      ],
      "stateMutability": "view",
      "type": "function"
    },
    {
      "inputs": [
        {
          "internalType": "string",
          "name": "_cardName",
          "type": "string"
        },
        {
          "components": [
            {
              "internalType": "string",
              "name": "position",
              "type": "string"
            },
            {
              "internalType": "string",
              "name": "twitterAccount",
              "type": "string"
            },
            {
              "internalType": "string",
              "name": "telegramAccount",
              "type": "string"
            },
            {
              "internalType": "string",
              "name": "telegramGroup",
              "type": "string"
            },
            {
              "internalType": "uint256",
              "name": "discordAccount",
              "type": "uint256"
            },
            {
              "internalType": "string",
              "name": "discordGroup",
              "type": "string"
            },
            {
              "internalType": "string",
              "name": "githubUsername",
              "type": "string"
            },
            {
              "internalType": "string",
              "name": "website",
              "type": "string"
            }
          ],
          "internalType": "struct BusinessCard.CardProperties",
          "name": "_cardProperties",
          "type": "tuple"
        }
      ],
      "name": "getCard",
      "outputs": [],
      "stateMutability": "payable",
      "type": "function"
    },
    {
      "inputs": [
        {
          "internalType": "address",
          "name": "owner",
          "type": "address"
        },
        {
          "internalType": "address",
          "name": "operator",
          "type": "address"
        }
      ],
      "name": "isApprovedForAll",
      "outputs": [
        {
          "internalType": "bool",
          "name": "",
          "type": "bool"
        }
      ],
      "stateMutability": "view",
      "type": "function"
    },
    {
      "inputs": [
        {
          "internalType": "string",
          "name": "nameString",
          "type": "string"
        }
      ],
      "name": "isNameReserved",
      "outputs": [
        {
          "internalType": "bool",
          "name": "",
          "type": "bool"
        }
      ],
      "stateMutability": "view",
      "type": "function"
    },
    {
      "inputs": [],
      "name": "maxSupply",
      "outputs": [
        {
          "internalType": "uint256",
          "name": "",
          "type": "uint256"
        }
      ],
      "stateMutability": "view",
      "type": "function"
    },
    {
      "inputs": [],
      "name": "mintPrice",
      "outputs": [
        {
          "internalType": "uint256",
          "name": "",
          "type": "uint256"
        }
      ],
      "stateMutability": "view",
      "type": "function"
    },
    {
      "inputs": [
        {
          "internalType": "uint256",
          "name": "newUpdatePrice",
          "type": "uint256"
        }
      ],
      "name": "modifyUpdatePrice",
      "outputs": [],
      "stateMutability": "nonpayable",
      "type": "function"
    },
    {
      "inputs": [],
      "name": "name",
      "outputs": [
        {
          "internalType": "string",
          "name": "",
          "type": "string"
        }
      ],
      "stateMutability": "view",
      "type": "function"
    },
    {
      "inputs": [],
      "name": "oraclePrice",
      "outputs": [
        {
          "internalType": "uint256",
          "name": "",
          "type": "uint256"
        }
      ],
      "stateMutability": "view",
      "type": "function"
    },
    {
      "inputs": [],
      "name": "owner",
      "outputs": [
        {
          "internalType": "address",
          "name": "",
          "type": "address"
        }
      ],
      "stateMutability": "view",
      "type": "function"
    },
    {
      "inputs": [
        {
          "internalType": "uint256",
          "name": "tokenId",
          "type": "uint256"
        }
      ],
      "name": "ownerOf",
      "outputs": [
        {
          "internalType": "address",
          "name": "",
          "type": "address"
        }
      ],
      "stateMutability": "view",
      "type": "function"
    },
    {
      "inputs": [],
      "name": "pauseSale",
      "outputs": [],
      "stateMutability": "nonpayable",
      "type": "function"
    },
    {
      "inputs": [],
      "name": "renounceOwnership",
      "outputs": [],
      "stateMutability": "nonpayable",
      "type": "function"
    },
    {
      "inputs": [
        {
          "internalType": "uint256",
          "name": "",
          "type": "uint256"
        }
      ],
      "name": "requests",
      "outputs": [
        {
          "internalType": "bool",
          "name": "",
          "type": "bool"
        }
      ],
      "stateMutability": "view",
      "type": "function"
    },
    {
      "inputs": [
        {
          "internalType": "address",
          "name": "from",
          "type": "address"
        },
        {
          "internalType": "address",
          "name": "to",
          "type": "address"
        },
        {
          "internalType": "uint256",
          "name": "tokenId",
          "type": "uint256"
        }
      ],
      "name": "safeTransferFrom",
      "outputs": [],
      "stateMutability": "nonpayable",
      "type": "function"
    },
    {
      "inputs": [
        {
          "internalType": "address",
          "name": "from",
          "type": "address"
        },
        {
          "internalType": "address",
          "name": "to",
          "type": "address"
        },
        {
          "internalType": "uint256",
          "name": "tokenId",
          "type": "uint256"
        },
        {
          "internalType": "bytes",
          "name": "_data",
          "type": "bytes"
        }
      ],
      "name": "safeTransferFrom",
      "outputs": [],
      "stateMutability": "nonpayable",
      "type": "function"
    },
    {
      "inputs": [],
      "name": "saleStarted",
      "outputs": [
        {
          "internalType": "bool",
          "name": "",
          "type": "bool"
        }
      ],
      "stateMutability": "view",
      "type": "function"
    },
    {
      "inputs": [
        {
          "internalType": "address",
          "name": "operator",
          "type": "address"
        },
        {
          "internalType": "bool",
          "name": "approved",
          "type": "bool"
        }
      ],
      "name": "setApprovalForAll",
      "outputs": [],
      "stateMutability": "nonpayable",
      "type": "function"
    },
    {
      "inputs": [
        {
          "internalType": "string",
          "name": "newDefaultURI",
          "type": "string"
        }
      ],
      "name": "setDefaultURI",
      "outputs": [],
      "stateMutability": "nonpayable",
      "type": "function"
    },
    {
      "inputs": [
        {
          "internalType": "address",
          "name": "_marketplace",
          "type": "address"
        }
      ],
      "name": "setMarketplace",
      "outputs": [],
      "stateMutability": "nonpayable",
      "type": "function"
    },
    {
      "inputs": [
        {
          "internalType": "address",
          "name": "_oracle",
          "type": "address"
        }
      ],
      "name": "setOracle",
      "outputs": [],
      "stateMutability": "nonpayable",
      "type": "function"
    },
    {
      "inputs": [
        {
          "internalType": "address",
          "name": "_soulbound",
          "type": "address"
        }
      ],
      "name": "setSoulboundCard",
      "outputs": [],
      "stateMutability": "nonpayable",
      "type": "function"
    },
    {
      "inputs": [],
      "name": "startSale",
      "outputs": [],
      "stateMutability": "nonpayable",
      "type": "function"
    },
    {
      "inputs": [
        {
          "internalType": "bytes4",
          "name": "interfaceId",
          "type": "bytes4"
        }
      ],
      "name": "supportsInterface",
      "outputs": [
        {
          "internalType": "bool",
          "name": "",
          "type": "bool"
        }
      ],
      "stateMutability": "view",
      "type": "function"
    },
    {
      "inputs": [
        {
          "internalType": "uint256",
          "name": "_tokenId1",
          "type": "uint256"
        },
        {
          "internalType": "uint256",
          "name": "_tokenId2",
          "type": "uint256"
        },
        {
          "internalType": "string",
          "name": "_tokenURI1",
          "type": "string"
        },
        {
          "internalType": "string",
          "name": "_tokenURI2",
          "type": "string"
        }
      ],
      "name": "swapCallback",
      "outputs": [],
      "stateMutability": "nonpayable",
      "type": "function"
    },
    {
      "inputs": [
        {
          "internalType": "uint256",
          "name": "tokenId1",
          "type": "uint256"
        },
        {
          "internalType": "uint256",
          "name": "tokenId2",
          "type": "uint256"
        }
      ],
      "name": "swapCards",
      "outputs": [],
      "stateMutability": "payable",
      "type": "function"
    },
    {
      "inputs": [],
      "name": "symbol",
      "outputs": [
        {
          "internalType": "string",
          "name": "",
          "type": "string"
        }
      ],
      "stateMutability": "view",
      "type": "function"
    },
    {
      "inputs": [
        {
          "internalType": "uint256",
          "name": "index",
          "type": "uint256"
        }
      ],
      "name": "tokenByIndex",
      "outputs": [
        {
          "internalType": "uint256",
          "name": "",
          "type": "uint256"
        }
      ],
      "stateMutability": "view",
      "type": "function"
    },
    {
      "inputs": [
        {
          "internalType": "address",
          "name": "owner",
          "type": "address"
        },
        {
          "internalType": "uint256",
          "name": "index",
          "type": "uint256"
        }
      ],
      "name": "tokenOfOwnerByIndex",
      "outputs": [
        {
          "internalType": "uint256",
          "name": "",
          "type": "uint256"
        }
      ],
      "stateMutability": "view",
      "type": "function"
    },
    {
      "inputs": [
        {
          "internalType": "uint256",
          "name": "tokenId",
          "type": "uint256"
        }
      ],
      "name": "tokenStats",
      "outputs": [
        {
          "components": [
            {
              "internalType": "uint256",
              "name": "genes",
              "type": "uint256"
            },
            {
              "internalType": "string",
              "name": "name",
              "type": "string"
            }
          ],
          "internalType": "struct BusinessCard.Card",
          "name": "",
          "type": "tuple"
        }
      ],
      "stateMutability": "view",
      "type": "function"
    },
    {
      "inputs": [
        {
          "internalType": "uint256",
          "name": "tokenId",
          "type": "uint256"
        }
      ],
      "name": "tokenURI",
      "outputs": [
        {
          "internalType": "string",
          "name": "",
          "type": "string"
        }
      ],
      "stateMutability": "view",
      "type": "function"
    },
    {
      "inputs": [],
      "name": "totalSupply",
      "outputs": [
        {
          "internalType": "uint256",
          "name": "",
          "type": "uint256"
        }
      ],
      "stateMutability": "view",
      "type": "function"
    },
    {
      "inputs": [
        {
          "internalType": "address",
          "name": "from",
          "type": "address"
        },
        {
          "internalType": "address",
          "name": "to",
          "type": "address"
        },
        {
          "internalType": "uint256",
          "name": "tokenId",
          "type": "uint256"
        }
      ],
      "name": "transferFrom",
      "outputs": [],
      "stateMutability": "nonpayable",
      "type": "function"
    },
    {
      "inputs": [
        {
          "internalType": "address",
          "name": "from",
          "type": "address"
        },
        {
          "internalType": "address",
          "name": "to",
          "type": "address"
        },
        {
          "internalType": "uint256",
          "name": "tokenId",
          "type": "uint256"
        }
      ],
      "name": "transferFromWithoutBurn",
      "outputs": [],
      "stateMutability": "nonpayable",
      "type": "function"
    },
    {
      "inputs": [
        {
          "internalType": "address",
          "name": "newOwner",
          "type": "address"
        }
      ],
      "name": "transferOwnership",
      "outputs": [],
      "stateMutability": "nonpayable",
      "type": "function"
    },
    {
      "inputs": [
        {
          "internalType": "uint256",
          "name": "_tokenId",
          "type": "uint256"
        },
        {
          "internalType": "string",
          "name": "_tokenURI",
          "type": "string"
        }
      ],
      "name": "updateCallback",
      "outputs": [],
      "stateMutability": "nonpayable",
      "type": "function"
    },
    {
      "inputs": [
        {
          "internalType": "uint256",
          "name": "tokenId",
          "type": "uint256"
        },
        {
          "internalType": "string",
          "name": "newName",
          "type": "string"
        },
        {
          "components": [
            {
              "internalType": "string",
              "name": "position",
              "type": "string"
            },
            {
              "internalType": "string",
              "name": "twitterAccount",
              "type": "string"
            },
            {
              "internalType": "string",
              "name": "telegramAccount",
              "type": "string"
            },
            {
              "internalType": "string",
              "name": "telegramGroup",
              "type": "string"
            },
            {
              "internalType": "uint256",
              "name": "discordAccount",
              "type": "uint256"
            },
            {
              "internalType": "string",
              "name": "discordGroup",
              "type": "string"
            },
            {
              "internalType": "string",
              "name": "githubUsername",
              "type": "string"
            },
            {
              "internalType": "string",
              "name": "website",
              "type": "string"
            }
          ],
          "internalType": "struct BusinessCard.CardProperties",
          "name": "newCardProperties",
          "type": "tuple"
        }
      ],
      "name": "updateCard",
      "outputs": [],
      "stateMutability": "payable",
      "type": "function"
    },
    {
      "inputs": [],
      "name": "updatePrice",
      "outputs": [
        {
          "internalType": "uint256",
          "name": "",
          "type": "uint256"
        }
      ],
      "stateMutability": "view",
      "type": "function"
    },
    {
      "inputs": [
        {
          "internalType": "uint256",
          "name": "tokenId",
          "type": "uint256"
        },
        {
          "internalType": "string",
          "name": "cardName",
          "type": "string"
        },
        {
          "components": [
            {
              "internalType": "string",
              "name": "position",
              "type": "string"
            },
            {
              "internalType": "string",
              "name": "twitterAccount",
              "type": "string"
            },
            {
              "internalType": "string",
              "name": "telegramAccount",
              "type": "string"
            },
            {
              "internalType": "string",
              "name": "telegramGroup",
              "type": "string"
            },
            {
              "internalType": "uint256",
              "name": "discordAccount",
              "type": "uint256"
            },
            {
              "internalType": "string",
              "name": "discordGroup",
              "type": "string"
            },
            {
              "internalType": "string",
              "name": "githubUsername",
              "type": "string"
            },
            {
              "internalType": "string",
              "name": "website",
              "type": "string"
            }
          ],
          "internalType": "struct BusinessCard.CardProperties",
          "name": "_cardProperties",
          "type": "tuple"
        }
      ],
      "name": "updateTokenURI",
      "outputs": [],
      "stateMutability": "nonpayable",
      "type": "function"
    },
    {
      "inputs": [],
      "name": "withdraw",
      "outputs": [],
      "stateMutability": "nonpayable",
      "type": "function"
    }
  ],
  "bytecode": "0x608060405267016345785d8a000060145566b1a2bc2ec500006015556658d15e176280006016553480156200003357600080fd5b50604051620064fe380380620064fe833981810160405281019062000059919062000436565b620000796200006d6200015760201b60201c565b6200015f60201b60201c565b836008908051906020019062000091929190620002fd565b508260099080519060200190620000aa929190620002fd565b5081600f9080519060200190620000c3929190620002fd565b5080601060006101000a81548173ffffffffffffffffffffffffffffffffffffffff021916908373ffffffffffffffffffffffffffffffffffffffff1602179055506200011d6380ac58cd60e01b6200022560201b60201c565b62000135635b5e139f60e01b6200022560201b60201c565b6200014d63780e9d6360e01b6200022560201b60201c565b505050506200072e565b600033905090565b6000600160009054906101000a900473ffffffffffffffffffffffffffffffffffffffff16905081600160006101000a81548173ffffffffffffffffffffffffffffffffffffffff021916908373ffffffffffffffffffffffffffffffffffffffff1602179055508173ffffffffffffffffffffffffffffffffffffffff168173ffffffffffffffffffffffffffffffffffffffff167f8be0079c531659141344cd1fd0a4f28419497f9722a3daafe3b4186f6b6457e060405160405180910390a35050565b63ffffffff60e01b817bffffffffffffffffffffffffffffffffffffffffffffffffffffffff1916141562000291576040517f08c379a0000000000000000000000000000000000000000000000000000000008152600401620002889062000514565b60405180910390fd5b6001600080837bffffffffffffffffffffffffffffffffffffffffffffffffffffffff19167bffffffffffffffffffffffffffffffffffffffffffffffffffffffff1916815260200190815260200160002060006101000a81548160ff02191690831515021790555050565b8280546200030b9062000610565b90600052602060002090601f0160209004810192826200032f57600085556200037b565b82601f106200034a57805160ff19168380011785556200037b565b828001600101855582156200037b579182015b828111156200037a5782518255916020019190600101906200035d565b5b5090506200038a91906200038e565b5090565b5b80821115620003a95760008160009055506001016200038f565b5090565b6000620003c4620003be846200055f565b62000536565b905082815260208101848484011115620003dd57600080fd5b620003ea848285620005da565b509392505050565b600081519050620004038162000714565b92915050565b600082601f8301126200041b57600080fd5b81516200042d848260208601620003ad565b91505092915050565b600080600080608085870312156200044d57600080fd5b600085015167ffffffffffffffff8111156200046857600080fd5b620004768782880162000409565b945050602085015167ffffffffffffffff8111156200049457600080fd5b620004a28782880162000409565b935050604085015167ffffffffffffffff811115620004c057600080fd5b620004ce8782880162000409565b9250506060620004e187828801620003f2565b91505092959194509250565b6000620004fc601c8362000595565b91506200050982620006eb565b602082019050919050565b600060208201905081810360008301526200052f81620004ed565b9050919050565b60006200054262000555565b905062000550828262000646565b919050565b6000604051905090565b600067ffffffffffffffff8211156200057d576200057c620006ab565b5b6200058882620006da565b9050602081019050919050565b600082825260208201905092915050565b6000620005b382620005ba565b9050919050565b600073ffffffffffffffffffffffffffffffffffffffff82169050919050565b60005b83811015620005fa578082015181840152602081019050620005dd565b838111156200060a576000848401525b50505050565b600060028204905060018216806200062957607f821691505b6020821081141562000640576200063f6200067c565b5b50919050565b6200065182620006da565b810181811067ffffffffffffffff82111715620006735762000672620006ab565b5b80604052505050565b7f4e487b7100000000000000000000000000000000000000000000000000000000600052602260045260246000fd5b7f4e487b7100000000000000000000000000000000000000000000000000000000600052604160045260246000fd5b6000601f19601f8301169050919050565b7f4552433136353a20696e76616c696420696e7465726661636520696400000000600082015250565b6200071f81620005a6565b81146200072b57600080fd5b50565b615dc0806200073e6000396000f3fe60806040526004361061025c5760003560e01c80636817c76c11610144578063b66a0e5d116100b6578063d58be3ce1161007a578063d58be3ce146108a5578063d5abeb01146108ce578063da1b9e08146108f9578063e926ca9514610922578063e985e9c51461095f578063f2fde38b1461099c5761025c565b8063b66a0e5d146107d6578063b88d4fde146107ed578063bedc922814610816578063c67161371461083f578063c87b56dd146108685761025c565b806381d12c581161010857806381d12c58146106d55780638da5cb5b1461071257806395d89b411461073d578063a22cb46514610768578063a5f24d0614610791578063b25691a9146107ba5761025c565b80636817c76c1461060457806370a082311461062f578063715018a61461066c57806373ad6c2d146106835780637adbf973146106ac5761025c565b80632f745c59116101dd57806355367ba9116101a157806355367ba914610506578063566c2e951461051d5780635c474f9e146105465780636352211e14610571578063668aa824146105ae578063673a7e28146105d95761025c565b80632f745c59146104215780633a367a671461045e5780633ccfd60b1461048957806342842e0e146104a05780634f6ccce7146104c95761025c565b806314a86a011161022457806314a86a011461035857806315b56d101461037457806317ae7a03146103b157806318160ddd146103cd57806323b872dd146103f85761025c565b806301ffc9a71461026157806302b53ad01461029e57806306fdde03146102c7578063081812fc146102f2578063095ea7b31461032f575b600080fd5b34801561026d57600080fd5b506102886004803603810190610283919061442e565b6109c5565b6040516102959190614e6d565b60405180910390f35b3480156102aa57600080fd5b506102c560048036038101906102c091906145e2565b610a3c565b005b3480156102d357600080fd5b506102dc610a4a565b6040516102e99190614e88565b60405180910390f35b3480156102fe57600080fd5b5061031960048036038101906103149190614535565b610adc565b6040516103269190614e06565b60405180910390f35b34801561033b57600080fd5b50610356600480360381019061035191906143f2565b610b61565b005b610372600480360381019061036d919061455e565b610c79565b005b34801561038057600080fd5b5061039b60048036038101906103969190614480565b610f9c565b6040516103a89190614e6d565b60405180910390f35b6103cb60048036038101906103c69190614636565b61101e565b005b3480156103d957600080fd5b506103e2611390565b6040516103ef919061518c565b60405180910390f35b34801561040457600080fd5b5061041f600480360381019061041a91906142ec565b6113a1565b005b34801561042d57600080fd5b50610448600480360381019061044391906143f2565b611403565b604051610455919061518c565b60405180910390f35b34801561046a57600080fd5b50610473611472565b6040516104809190614e88565b60405180910390f35b34801561049557600080fd5b5061049e611504565b005b3480156104ac57600080fd5b506104c760048036038101906104c291906142ec565b61155b565b005b3480156104d557600080fd5b506104f060048036038101906104eb9190614535565b61157b565b6040516104fd919061518c565b60405180910390f35b34801561051257600080fd5b5061051b6115b2565b005b34801561052957600080fd5b50610544600480360381019061053f919061455e565b6115d7565b005b34801561055257600080fd5b5061055b611608565b6040516105689190614e6d565b60405180910390f35b34801561057d57600080fd5b5061059860048036038101906105939190614535565b61161b565b6040516105a59190614e06565b60405180910390f35b3480156105ba57600080fd5b506105c3611652565b6040516105d0919061518c565b60405180910390f35b3480156105e557600080fd5b506105ee611658565b6040516105fb919061518c565b60405180910390f35b34801561061057600080fd5b5061061961165e565b604051610626919061518c565b60405180910390f35b34801561063b57600080fd5b5061065660048036038101906106519190614287565b611664565b604051610663919061518c565b60405180910390f35b34801561067857600080fd5b50610681611723565b005b34801561068f57600080fd5b506106aa60048036038101906106a59190614287565b611737565b005b3480156106b857600080fd5b506106d360048036038101906106ce9190614287565b611783565b005b3480156106e157600080fd5b506106fc60048036038101906106f79190614535565b6117cf565b6040516107099190614e6d565b60405180910390f35b34801561071e57600080fd5b506107276117ef565b6040516107349190614e06565b60405180910390f35b34801561074957600080fd5b50610752611819565b60405161075f9190614e88565b60405180910390f35b34801561077457600080fd5b5061078f600480360381019061078a91906143b6565b6118ab565b005b34801561079d57600080fd5b506107b860048036038101906107b391906142ec565b611a2c565b005b6107d460048036038101906107cf91906144c5565b611a8e565b005b3480156107e257600080fd5b506107eb611afe565b005b3480156107f957600080fd5b50610814600480360381019061080f919061433b565b611b7f565b005b34801561082257600080fd5b5061083d60048036038101906108389190614672565b611be1565b005b34801561084b57600080fd5b5061086660048036038101906108619190614535565b611bfb565b005b34801561087457600080fd5b5061088f600480360381019061088a9190614535565b611c1c565b60405161089c9190614e88565b60405180910390f35b3480156108b157600080fd5b506108cc60048036038101906108c79190614287565b611d2a565b005b3480156108da57600080fd5b506108e3611d76565b6040516108f0919061518c565b60405180910390f35b34801561090557600080fd5b50610920600480360381019061091b9190614480565b611d7c565b005b34801561092e57600080fd5b5061094960048036038101906109449190614535565b611daa565b604051610956919061516a565b60405180910390f35b34801561096b57600080fd5b50610986600480360381019061098191906142b0565b611e73565b6040516109939190614e6d565b60405180910390f35b3480156109a857600080fd5b506109c360048036038101906109be9190614287565b611f07565b005b60006109d082611f8b565b80610a355750600080837bffffffffffffffffffffffffffffffffffffffffffffffffffffffff19167bffffffffffffffffffffffffffffffffffffffffffffffffffffffff1916815260200190815260200160002060009054906101000a900460ff165b9050919050565b610a468282611ff5565b5050565b606060088054610a59906155a0565b80601f0160208091040260200160405190810160405280929190818152602001828054610a85906155a0565b8015610ad25780601f10610aa757610100808354040283529160200191610ad2565b820191906000526020600020905b815481529060010190602001808311610ab557829003601f168201915b5050505050905090565b6000610ae782612108565b610b26576040517f08c379a0000000000000000000000000000000000000000000000000000000008152600401610b1d9061500a565b60405180910390fd5b6006600083815260200190815260200160002060009054906101000a900473ffffffffffffffffffffffffffffffffffffffff169050919050565b6000610b6c8261161b565b90508073ffffffffffffffffffffffffffffffffffffffff168373ffffffffffffffffffffffffffffffffffffffff161415610bdd576040517f08c379a0000000000000000000000000000000000000000000000000000000008152600401610bd4906150ca565b60405180910390fd5b8073ffffffffffffffffffffffffffffffffffffffff16610bfc612125565b73ffffffffffffffffffffffffffffffffffffffff161480610c2b5750610c2a81610c25612125565b611e73565b5b610c6a576040517f08c379a0000000000000000000000000000000000000000000000000000000008152600401610c6190614faa565b60405180910390fd5b610c74838361212d565b505050565b60011515600b60009054906101000a900460ff16151514610c9957600080fd5b610caa610ca4612125565b856121e6565b610ce9576040517f08c379a0000000000000000000000000000000000000000000000000000000008152600401610ce0906150ea565b60405180910390fd5b60001515610cf78484610f9c565b1515148015610d2157506000838390501480610d20575060011515610d1c84846122c4565b1515145b5b610d60576040517f08c379a0000000000000000000000000000000000000000000000000000000008152600401610d5790614f8a565b60405180910390fd5b6000818060000190610d729190615271565b90501480610d9b575060011515610d97828060000190610d929190615271565b612477565b1515145b610dda576040517f08c379a0000000000000000000000000000000000000000000000000000000008152600401610dd19061506a565b60405180910390fd5b60155434101580610e3f5750601260009054906101000a900473ffffffffffffffffffffffffffffffffffffffff1673ffffffffffffffffffffffffffffffffffffffff16610e27612125565b73ffffffffffffffffffffffffffffffffffffffff16145b610e4857600080fd5b6000838390501115610f7357610efd600d60008681526020019081526020016000206001018054610e78906155a0565b80601f0160208091040260200160405190810160405280929190818152602001828054610ea4906155a0565b8015610ef15780601f10610ec657610100808354040283529160200191610ef1565b820191906000526020600020905b815481529060010190602001808311610ed457829003601f168201915b5050505050600061262a565b610f4c83838080601f016020809104026020016040519081016040528093929190818152602001838380828437600081840152601f19601f82011690508083019250505050505050600161262a565b8282600d60008781526020019081526020016000206001019190610f71929190613f18565b505b610f9684600d60008781526020019081526020016000206000015485858561266c565b50505050565b6000600e610fed84848080601f016020809104026020016040519081016040528093929190818152602001838380828437600081840152601f19601f820116905080830192505050505050506127d4565b604051610ffa9190614da3565b908152602001604051809103902060009054906101000a900460ff16905092915050565b60011515600b60009054906101000a900460ff1615151461103e57600080fd5b61104f611049612125565b836121e6565b80156110685750611067611061612125565b826121e6565b5b6110a7576040517f08c379a000000000000000000000000000000000000000000000000000000000815260040161109e906150ea565b60405180910390fd5b6015543410156110b657600080fd5b600015156011600084815260200190815260200160002060009054906101000a900460ff16151514801561110e5750600015156011600083815260200190815260200160002060009054906101000a900460ff161515145b61114d576040517f08c379a00000000000000000000000000000000000000000000000000000000081526004016111449061514a565b60405180910390fd5b6000600d60008481526020019081526020016000206001018054611170906155a0565b80601f016020809104026020016040519081016040528092919081815260200182805461119c906155a0565b80156111e95780601f106111be576101008083540402835291602001916111e9565b820191906000526020600020905b8154815290600101906020018083116111cc57829003601f168201915b50505050509050600d6000838152602001908152602001600020600101600d6000858152602001908152602001600020600101908054611228906155a0565b611233929190613f9e565b5080600d6000848152602001908152602001600020600101908051906020019061125e92919061402b565b5060016011600085815260200190815260200160002060006101000a81548160ff02191690831515021790555060016011600084815260200190815260200160002060006101000a81548160ff0219169083151502179055507fbab79a74f80f351e29e4b66520154c19064e8a12e5052364180b47ba641c50128383600d600087815260200190815260200160002060000154600d600087815260200190815260200160002060000154604051611318949392919061522c565b60405180910390a1601060009054906101000a900473ffffffffffffffffffffffffffffffffffffffff1673ffffffffffffffffffffffffffffffffffffffff166108fc6016549081150290604051600060405180830381858888f1935050505015801561138a573d6000803e3d6000fd5b50505050565b600061139c6003612a94565b905090565b6113b26113ac612125565b826121e6565b6113f1576040517f08c379a00000000000000000000000000000000000000000000000000000000081526004016113e89061510a565b60405180910390fd5b6113fe8383836001612aa9565b505050565b600061140e83611664565b821061141957600080fd5b61146a82600260008673ffffffffffffffffffffffffffffffffffffffff1673ffffffffffffffffffffffffffffffffffffffff168152602001908152602001600020612da590919063ffffffff16565b905092915050565b6060600f8054611481906155a0565b80601f01602080910402602001604051908101604052809291908181526020018280546114ad906155a0565b80156114fa5780601f106114cf576101008083540402835291602001916114fa565b820191906000526020600020905b8154815290600101906020018083116114dd57829003601f168201915b5050505050905090565b61150c612dbf565b60004790503373ffffffffffffffffffffffffffffffffffffffff166108fc829081150290604051600060405180830381858888f19350505050158015611557573d6000803e3d6000fd5b5050565b61157683838360405180602001604052806000815250611b7f565b505050565b6000611585611390565b821061159057600080fd5b60006115a6836003612e3d90919063ffffffff16565b50905080915050919050565b6115ba612dbf565b6000600b60006101000a81548160ff021916908315150217905550565b6115df612dbf565b61160284600d60008781526020019081526020016000206000015485858561266c565b50505050565b600b60009054906101000a900460ff1681565b600061164b82604051806060016040528060298152602001615d62602991396003612e699092919063ffffffff16565b9050919050565b60165481565b60155481565b60145481565b60008073ffffffffffffffffffffffffffffffffffffffff168273ffffffffffffffffffffffffffffffffffffffff1614156116d5576040517f08c379a00000000000000000000000000000000000000000000000000000000081526004016116cc90614fca565b60405180910390fd5b61171c600260008473ffffffffffffffffffffffffffffffffffffffff1673ffffffffffffffffffffffffffffffffffffffff168152602001908152602001600020612e88565b9050919050565b61172b612dbf565b6117356000612e9d565b565b61173f612dbf565b80601260006101000a81548173ffffffffffffffffffffffffffffffffffffffff021916908373ffffffffffffffffffffffffffffffffffffffff16021790555050565b61178b612dbf565b80601060006101000a81548173ffffffffffffffffffffffffffffffffffffffff021916908373ffffffffffffffffffffffffffffffffffffffff16021790555050565b60116020528060005260406000206000915054906101000a900460ff1681565b6000600160009054906101000a900473ffffffffffffffffffffffffffffffffffffffff16905090565b606060098054611828906155a0565b80601f0160208091040260200160405190810160405280929190818152602001828054611854906155a0565b80156118a15780601f10611876576101008083540402835291602001916118a1565b820191906000526020600020905b81548152906001019060200180831161188457829003601f168201915b5050505050905090565b6118b3612125565b73ffffffffffffffffffffffffffffffffffffffff168273ffffffffffffffffffffffffffffffffffffffff161415611921576040517f08c379a000000000000000000000000000000000000000000000000000000000815260040161191890614f2a565b60405180910390fd5b806007600061192e612125565b73ffffffffffffffffffffffffffffffffffffffff1673ffffffffffffffffffffffffffffffffffffffff16815260200190815260200160002060008473ffffffffffffffffffffffffffffffffffffffff1673ffffffffffffffffffffffffffffffffffffffff16815260200190815260200160002060006101000a81548160ff0219169083151502179055508173ffffffffffffffffffffffffffffffffffffffff166119db612125565b73ffffffffffffffffffffffffffffffffffffffff167f17307eab39ab6107e8899845ad3d59bd9653f200f220920489ca2b5937696c3183604051611a209190614e6d565b60405180910390a35050565b611a3d611a37612125565b826121e6565b611a7c576040517f08c379a0000000000000000000000000000000000000000000000000000000008152600401611a739061510a565b60405180910390fd5b611a898383836000612aa9565b505050565b60011515600b60009054906101000a900460ff16151514611aae57600080fd5b610457611ab9611390565b10611ac357600080fd5b601454341015611ad257600080fd5b611af9611add612125565b6001611ae7611390565b611af1919061541c565b858585612f63565b505050565b611b06612dbf565b600073ffffffffffffffffffffffffffffffffffffffff16601060009054906101000a900473ffffffffffffffffffffffffffffffffffffffff1673ffffffffffffffffffffffffffffffffffffffff161415611b6257600080fd5b6001600b60006101000a81548160ff021916908315150217905550565b611b90611b8a612125565b836121e6565b611bcf576040517f08c379a0000000000000000000000000000000000000000000000000000000008152600401611bc69061510a565b60405180910390fd5b611bdb848484846131ac565b50505050565b611beb8483611ff5565b611bf58382611ff5565b50505050565b611c03612dbf565b601654811015611c1257600080fd5b8060158190555050565b6060611c2782612108565b611c66576040517f08c379a0000000000000000000000000000000000000000000000000000000008152600401611c5d9061508a565b60405180910390fd5b6000600a60008481526020019081526020016000208054611c86906155a0565b80601f0160208091040260200160405190810160405280929190818152602001828054611cb2906155a0565b8015611cff5780601f10611cd457610100808354040283529160200191611cff565b820191906000526020600020905b815481529060010190602001808311611ce257829003601f168201915b50505050509050600081511415611d2057611d18611472565b915050611d25565b809150505b919050565b611d32612dbf565b80601360006101000a81548173ffffffffffffffffffffffffffffffffffffffff021916908373ffffffffffffffffffffffffffffffffffffffff16021790555050565b61045781565b611d84612dbf565b60008282905011611d9457600080fd5b8181600f9190611da5929190613f18565b505050565b611db26140b1565b600d600083815260200190815260200160002060405180604001604052908160008201548152602001600182018054611dea906155a0565b80601f0160208091040260200160405190810160405280929190818152602001828054611e16906155a0565b8015611e635780601f10611e3857610100808354040283529160200191611e63565b820191906000526020600020905b815481529060010190602001808311611e4657829003601f168201915b5050505050815250509050919050565b6000600760008473ffffffffffffffffffffffffffffffffffffffff1673ffffffffffffffffffffffffffffffffffffffff16815260200190815260200160002060008373ffffffffffffffffffffffffffffffffffffffff1673ffffffffffffffffffffffffffffffffffffffff16815260200190815260200160002060009054906101000a900460ff16905092915050565b611f0f612dbf565b600073ffffffffffffffffffffffffffffffffffffffff168173ffffffffffffffffffffffffffffffffffffffff161415611f7f576040517f08c379a0000000000000000000000000000000000000000000000000000000008152600401611f7690614eca565b60405180910390fd5b611f8881612e9d565b50565b60007f01ffc9a7000000000000000000000000000000000000000000000000000000007bffffffffffffffffffffffffffffffffffffffffffffffffffffffff1916827bffffffffffffffffffffffffffffffffffffffffffffffffffffffff1916149050919050565b601060009054906101000a900473ffffffffffffffffffffffffffffffffffffffff1673ffffffffffffffffffffffffffffffffffffffff16612036612125565b73ffffffffffffffffffffffffffffffffffffffff161461205657600080fd5b6011600083815260200190815260200160002060009054906101000a900460ff1661208057600080fd5b80600a600084815260200190815260200160002090805190602001906120a792919061402b565b506011600083815260200190815260200160002060006101000a81549060ff02191690557f931f495b9a8e5d8e61946ea5d61e021f636cfe213a801f97589c18c152e408bd82826040516120fc9291906151a7565b60405180910390a15050565b600061211e82600361320a90919063ffffffff16565b9050919050565b600033905090565b816006600083815260200190815260200160002060006101000a81548173ffffffffffffffffffffffffffffffffffffffff021916908373ffffffffffffffffffffffffffffffffffffffff160217905550808273ffffffffffffffffffffffffffffffffffffffff166121a08361161b565b73ffffffffffffffffffffffffffffffffffffffff167f8c5be1e5ebec7d5bd14f71427d1e84f3dd0314c0f7b2291e5b200ac8c7c3b92560405160405180910390a45050565b60006121f182612108565b612230576040517f08c379a000000000000000000000000000000000000000000000000000000000815260040161222790614f6a565b60405180910390fd5b600061223b8361161b565b90508073ffffffffffffffffffffffffffffffffffffffff168473ffffffffffffffffffffffffffffffffffffffff1614806122aa57508373ffffffffffffffffffffffffffffffffffffffff1661229284610adc565b73ffffffffffffffffffffffffffffffffffffffff16145b806122bb57506122ba8185611e73565b5b91505092915050565b60008083838080601f016020809104026020016040519081016040528093929190818152602001838380828437600081840152601f19601f82011690508083019250505050505050905060008151148061231f575060168151115b806123935750602060f81b81600081518110612364577f4e487b7100000000000000000000000000000000000000000000000000000000600052603260045260246000fd5b602001015160f81c60f81b7effffffffffffffffffffffffffffffffffffffffffffffffffffffffffffff1916145b806124135750602060f81b81600183516123ad91906154a9565b815181106123e4577f4e487b7100000000000000000000000000000000000000000000000000000000600052603260045260246000fd5b602001015160f81c60f81b7effffffffffffffffffffffffffffffffffffffffffffffffffffffffffffff1916145b15612422576000915050612471565b61242c8484613224565b61246b576040517f08c379a0000000000000000000000000000000000000000000000000000000008152600401612462906150aa565b60405180910390fd5b60019150505b92915050565b60008083838080601f016020809104026020016040519081016040528093929190818152602001838380828437600081840152601f19601f8201169050808301925050505050505090506000815114806124d2575060208151115b806125465750602060f81b81600081518110612517577f4e487b7100000000000000000000000000000000000000000000000000000000600052603260045260246000fd5b602001015160f81c60f81b7effffffffffffffffffffffffffffffffffffffffffffffffffffffffffffff1916145b806125c65750602060f81b816001835161256091906154a9565b81518110612597577f4e487b7100000000000000000000000000000000000000000000000000000000600052603260045260246000fd5b602001015160f81c60f81b7effffffffffffffffffffffffffffffffffffffffffffffffffffffffffffff1916145b156125d5576000915050612624565b6125df8484613224565b61261e576040517f08c379a0000000000000000000000000000000000000000000000000000000008152600401612615906150aa565b60405180910390fd5b60019150505b92915050565b80600e612636846127d4565b6040516126439190614da3565b908152602001604051809103902060006101000a81548160ff0219169083151502179055505050565b612675816134d3565b61267e57600080fd5b61268785612108565b61269057600080fd5b600015156011600087815260200190815260200160002060009054906101000a900460ff161515146126f7576040517f08c379a00000000000000000000000000000000000000000000000000000000081526004016126ee9061514a565b60405180910390fd5b60016011600087815260200190815260200160002060006101000a81548160ff021916908315150217905550601060009054906101000a900473ffffffffffffffffffffffffffffffffffffffff1673ffffffffffffffffffffffffffffffffffffffff166108fc6016549081150290604051600060405180830381858888f1935050505015801561278d573d6000803e3d6000fd5b507f04d6aedc38d372f18e01cc1d43d491d6bd883fdc6af386e8ceab5d441a84235885858585856040516127c59594939291906151d7565b60405180910390a15050505050565b606060008290506000815167ffffffffffffffff81111561281e577f4e487b7100000000000000000000000000000000000000000000000000000000600052604160045260246000fd5b6040519080825280601f01601f1916602001820160405280156128505781602001600182028036833780820191505090505b50905060005b8251811015612a8957604183828151811061289a577f4e487b7100000000000000000000000000000000000000000000000000000000600052603260045260246000fd5b602001015160f81c60f81b60f81c60ff16101580156129035750605a8382815181106128ef577f4e487b7100000000000000000000000000000000000000000000000000000000600052603260045260246000fd5b602001015160f81c60f81b60f81c60ff1611155b156129cb576020838281518110612943577f4e487b7100000000000000000000000000000000000000000000000000000000600052603260045260246000fd5b602001015160f81c60f81b60f81c61295b9190615472565b60f81b828281518110612997577f4e487b7100000000000000000000000000000000000000000000000000000000600052603260045260246000fd5b60200101907effffffffffffffffffffffffffffffffffffffffffffffffffffffffffffff1916908160001a905350612a78565b828181518110612a04577f4e487b7100000000000000000000000000000000000000000000000000000000600052603260045260246000fd5b602001015160f81c60f81b828281518110612a48577f4e487b7100000000000000000000000000000000000000000000000000000000600052603260045260246000fd5b60200101907effffffffffffffffffffffffffffffffffffffffffffffffffffffffffffff1916908160001a9053505b80612a8290615603565b9050612856565b508092505050919050565b6000612aa2826000016135d1565b9050919050565b8373ffffffffffffffffffffffffffffffffffffffff16612ac98361161b565b73ffffffffffffffffffffffffffffffffffffffff1614612b1f576040517f08c379a0000000000000000000000000000000000000000000000000000000008152600401612b169061504a565b60405180910390fd5b600073ffffffffffffffffffffffffffffffffffffffff168373ffffffffffffffffffffffffffffffffffffffff161415612b8f576040517f08c379a0000000000000000000000000000000000000000000000000000000008152600401612b8690614f0a565b60405180910390fd5b600073ffffffffffffffffffffffffffffffffffffffff16601360009054906101000a900473ffffffffffffffffffffffffffffffffffffffff1673ffffffffffffffffffffffffffffffffffffffff1614158015612beb5750805b15612c7e57601360009054906101000a900473ffffffffffffffffffffffffffffffffffffffff1673ffffffffffffffffffffffffffffffffffffffff1663ca3c5c07836040518263ffffffff1660e01b8152600401612c4b919061518c565b600060405180830381600087803b158015612c6557600080fd5b505af1158015612c79573d6000803e3d6000fd5b505050505b612c8960008361212d565b612cda82600260008773ffffffffffffffffffffffffffffffffffffffff1673ffffffffffffffffffffffffffffffffffffffff1681526020019081526020016000206135e690919063ffffffff16565b50612d2c82600260008673ffffffffffffffffffffffffffffffffffffffff1673ffffffffffffffffffffffffffffffffffffffff16815260200190815260200160002061360090919063ffffffff16565b50612d438284600361361a9092919063ffffffff16565b50818373ffffffffffffffffffffffffffffffffffffffff168573ffffffffffffffffffffffffffffffffffffffff167fddf252ad1be2c89b69c2b068fc378daa952ba7f163c4a11628f55a4df523b3ef60405160405180910390a450505050565b6000612db4836000018361364f565b60001c905092915050565b612dc7612125565b73ffffffffffffffffffffffffffffffffffffffff16612de56117ef565b73ffffffffffffffffffffffffffffffffffffffff1614612e3b576040517f08c379a0000000000000000000000000000000000000000000000000000000008152600401612e329061502a565b60405180910390fd5b565b600080600080612e5086600001866136a0565b915091508160001c8160001c9350935050509250929050565b6000612e7c846000018460001b846136e0565b60001c90509392505050565b6000612e9682600001613761565b9050919050565b6000600160009054906101000a900473ffffffffffffffffffffffffffffffffffffffff16905081600160006101000a81548173ffffffffffffffffffffffffffffffffffffffff021916908373ffffffffffffffffffffffffffffffffffffffff1602179055508173ffffffffffffffffffffffffffffffffffffffff168173ffffffffffffffffffffffffffffffffffffffff167f8be0079c531659141344cd1fd0a4f28419497f9722a3daafe3b4186f6b6457e060405160405180910390a35050565b612f6d83836122c4565b8015612f86575060001515612f828484610f9c565b1515145b612fc5576040517f08c379a0000000000000000000000000000000000000000000000000000000008152600401612fbc90614f8a565b60405180910390fd5b612fdd818060000190612fd89190615271565b612477565b61301c576040517f08c379a00000000000000000000000000000000000000000000000000000000081526004016130139061506a565b60405180910390fd5b60006c0c9f2c9cd04674edea4000000042338686600c54604051602001613047959493929190614dba565b6040516020818303038152906040528051906020012060001c61306a919061567a565b9050600c600081548092919061307f90615603565b91905055506130d384848080601f016020809104026020016040519081016040528093929190818152602001838380828437600081840152601f19601f82011690508083019250505050505050600161262a565b604051806040016040528082815260200185858080601f016020809104026020016040519081016040528093929190818152602001838380828437600081840152601f19601f82011690508083019250505050505050815250600d600087815260200190815260200160002060008201518160000155602082015181600101908051906020019061316592919061402b565b50905050613197868686868560405160200161318393929190614d79565b604051602081830303815290604052613772565b6131a4858286868661266c565b505050505050565b6131b98484846001612aa9565b6131c5848484846137cd565b613204576040517f08c379a00000000000000000000000000000000000000000000000000000000081526004016131fb90614eaa565b60405180910390fd5b50505050565b600061321c836000018360001b613912565b905092915050565b60008083838080601f016020809104026020016040519081016040528093929190818152602001838380828437600081840152601f19601f8201169050808301925050505050505090506000816000815181106132aa577f4e487b7100000000000000000000000000000000000000000000000000000000600052603260045260246000fd5b602001015160f81c60f81b905060005b82518110156134c55760008382815181106132fe577f4e487b7100000000000000000000000000000000000000000000000000000000600052603260045260246000fd5b602001015160f81c60f81b9050602060f81b817effffffffffffffffffffffffffffffffffffffffffffffffffffffffffffff19161480156133655750602060f81b837effffffffffffffffffffffffffffffffffffffffffffffffffffffffffffff1916145b156133775760009450505050506134cd565b602060f81b817effffffffffffffffffffffffffffffffffffffffffffffffffffffffffffff1916101580156133d35750603f60f81b817effffffffffffffffffffffffffffffffffffffffffffffffffffffffffffff191611155b1580156134395750604160f81b817effffffffffffffffffffffffffffffffffffffffffffffffffffffffffffff1916101580156134375750605a60f81b817effffffffffffffffffffffffffffffffffffffffffffffffffffffffffffff191611155b155b801561349e5750606160f81b817effffffffffffffffffffffffffffffffffffffffffffffffffffffffffffff19161015801561349c5750607a60f81b817effffffffffffffffffffffffffffffffffffffffffffffffffffffffffffff191611155b155b156134b05760009450505050506134cd565b80925050806134be90615603565b90506132ba565b506001925050505b92915050565b6000600f8280602001906134e79190615271565b9050108015613507575060208280604001906135039190615271565b9050105b8015613524575060208280606001906135209190615271565b9050105b8015613562575067016345785d8a00008260800135101580156135525750670de0b6b3a76400008260800135105b80613561575060008260800135145b5b801561357f57506020828060a0019061357b9190615271565b9050105b801561359c57506027828060c001906135989190615271565b9050105b80156135b957506032828060e001906135b59190615271565b9050105b156135c757600190506135cc565b600090505b919050565b60006135df82600001613932565b9050919050565b60006135f8836000018360001b613947565b905092915050565b6000613612836000018360001b613acd565b905092915050565b6000613646846000018460001b8473ffffffffffffffffffffffffffffffffffffffff1660001b613b3d565b90509392505050565b600082600001828154811061368d577f4e487b7100000000000000000000000000000000000000000000000000000000600052603260045260246000fd5b9060005260206000200154905092915050565b60008060006136bb8486600001613b7890919063ffffffff16565b9050808560020160008381526020019081526020016000205492509250509250929050565b6000808460020160008581526020019081526020016000205490506000801b8114158061371357506137128585613912565b5b8390613755576040517f08c379a000000000000000000000000000000000000000000000000000000000815260040161374c9190614e88565b60405180910390fd5b50809150509392505050565b600081600001805490509050919050565b61377c8383613b8f565b61378960008484846137cd565b6137c8576040517f08c379a00000000000000000000000000000000000000000000000000000000081526004016137bf90614eaa565b60405180910390fd5b505050565b60006137ee8473ffffffffffffffffffffffffffffffffffffffff16613d11565b6137fb576001905061390a565b60006138c263150b7a0260e01b613810612125565b8887876040516024016138269493929190614e21565b604051602081830303815290604052907bffffffffffffffffffffffffffffffffffffffffffffffffffffffff19166020820180517bffffffffffffffffffffffffffffffffffffffffffffffffffffffff8381831617835250505050604051806060016040528060328152602001615d30603291398773ffffffffffffffffffffffffffffffffffffffff16613d349092919063ffffffff16565b90506000818060200190518101906138da9190614457565b905063150b7a0260e01b817bffffffffffffffffffffffffffffffffffffffffffffffffffffffff191614925050505b949350505050565b600061392a8284600001613d4c90919063ffffffff16565b905092915050565b600061394082600001613761565b9050919050565b60008083600101600084815260200190815260200160002054905060008114613ac157600060018261397991906154a9565b905060006001866000018054905061399191906154a9565b9050818114613a4c5760008660000182815481106139d8577f4e487b7100000000000000000000000000000000000000000000000000000000600052603260045260246000fd5b9060005260206000200154905080876000018481548110613a22577f4e487b7100000000000000000000000000000000000000000000000000000000600052603260045260246000fd5b90600052602060002001819055508387600101600083815260200190815260200160002081905550505b85600001805480613a86577f4e487b7100000000000000000000000000000000000000000000000000000000600052603160045260246000fd5b600190038181906000526020600020016000905590558560010160008681526020019081526020016000206000905560019350505050613ac7565b60009150505b92915050565b6000613ad98383613d63565b613b32578260000182908060018154018082558091505060019003906000526020600020016000909190919091505582600001805490508360010160008481526020019081526020016000208190555060019050613b37565b600090505b92915050565b60008184600201600085815260200190815260200160002081905550613b6f8385600001613d8690919063ffffffff16565b90509392505050565b6000613b87836000018361364f565b905092915050565b600073ffffffffffffffffffffffffffffffffffffffff168273ffffffffffffffffffffffffffffffffffffffff161415613bff576040517f08c379a0000000000000000000000000000000000000000000000000000000008152600401613bf690614fea565b60405180910390fd5b613c0881612108565b15613c48576040517f08c379a0000000000000000000000000000000000000000000000000000000008152600401613c3f90614eea565b60405180910390fd5b613c9981600260008573ffffffffffffffffffffffffffffffffffffffff1673ffffffffffffffffffffffffffffffffffffffff16815260200190815260200160002061360090919063ffffffff16565b50613cb08183600361361a9092919063ffffffff16565b50808273ffffffffffffffffffffffffffffffffffffffff16600073ffffffffffffffffffffffffffffffffffffffff167fddf252ad1be2c89b69c2b068fc378daa952ba7f163c4a11628f55a4df523b3ef60405160405180910390a45050565b6000808273ffffffffffffffffffffffffffffffffffffffff163b119050919050565b6060613d438484600085613d9d565b90509392505050565b6000613d5b8360000183613d63565b905092915050565b600080836001016000848152602001908152602001600020541415905092915050565b6000613d958360000183613acd565b905092915050565b606082471015613de2576040517f08c379a0000000000000000000000000000000000000000000000000000000008152600401613dd990614f4a565b60405180910390fd5b613deb85613d11565b613e2a576040517f08c379a0000000000000000000000000000000000000000000000000000000008152600401613e219061512a565b60405180910390fd5b6000808673ffffffffffffffffffffffffffffffffffffffff168587604051613e539190614d62565b60006040518083038185875af1925050503d8060008114613e90576040519150601f19603f3d011682016040523d82523d6000602084013e613e95565b606091505b5091509150613ea5828286613eb1565b92505050949350505050565b60608315613ec157829050613f11565b600083511115613ed45782518084602001fd5b816040517f08c379a0000000000000000000000000000000000000000000000000000000008152600401613f089190614e88565b60405180910390fd5b9392505050565b828054613f24906155a0565b90600052602060002090601f016020900481019282613f465760008555613f8d565b82601f10613f5f57803560ff1916838001178555613f8d565b82800160010185558215613f8d579182015b82811115613f8c578235825591602001919060010190613f71565b5b509050613f9a91906140cb565b5090565b828054613faa906155a0565b90600052602060002090601f016020900481019282613fcc576000855561401a565b82601f10613fdd578054855561401a565b8280016001018555821561401a57600052602060002091601f016020900482015b82811115614019578254825591600101919060010190613ffe565b5b50905061402791906140cb565b5090565b828054614037906155a0565b90600052602060002090601f01602090048101928261405957600085556140a0565b82601f1061407257805160ff19168380011785556140a0565b828001600101855582156140a0579182015b8281111561409f578251825591602001919060010190614084565b5b5090506140ad91906140cb565b5090565b604051806040016040528060008152602001606081525090565b5b808211156140e45760008160009055506001016140cc565b5090565b60006140fb6140f6846152ed565b6152c8565b90508281526020810184848401111561411357600080fd5b61411e84828561555e565b509392505050565b60006141396141348461531e565b6152c8565b90508281526020810184848401111561415157600080fd5b61415c84828561555e565b509392505050565b60008135905061417381615cd3565b92915050565b60008135905061418881615cea565b92915050565b60008135905061419d81615d01565b92915050565b6000815190506141b281615d01565b92915050565b600082601f8301126141c957600080fd5b81356141d98482602086016140e8565b91505092915050565b60008083601f8401126141f457600080fd5b8235905067ffffffffffffffff81111561420d57600080fd5b60208301915083600182028301111561422557600080fd5b9250929050565b600082601f83011261423d57600080fd5b813561424d848260208601614126565b91505092915050565b6000610100828403121561426957600080fd5b81905092915050565b60008135905061428181615d18565b92915050565b60006020828403121561429957600080fd5b60006142a784828501614164565b91505092915050565b600080604083850312156142c357600080fd5b60006142d185828601614164565b92505060206142e285828601614164565b9150509250929050565b60008060006060848603121561430157600080fd5b600061430f86828701614164565b935050602061432086828701614164565b925050604061433186828701614272565b9150509250925092565b6000806000806080858703121561435157600080fd5b600061435f87828801614164565b945050602061437087828801614164565b935050604061438187828801614272565b925050606085013567ffffffffffffffff81111561439e57600080fd5b6143aa878288016141b8565b91505092959194509250565b600080604083850312156143c957600080fd5b60006143d785828601614164565b92505060206143e885828601614179565b9150509250929050565b6000806040838503121561440557600080fd5b600061441385828601614164565b925050602061442485828601614272565b9150509250929050565b60006020828403121561444057600080fd5b600061444e8482850161418e565b91505092915050565b60006020828403121561446957600080fd5b6000614477848285016141a3565b91505092915050565b6000806020838503121561449357600080fd5b600083013567ffffffffffffffff8111156144ad57600080fd5b6144b9858286016141e2565b92509250509250929050565b6000806000604084860312156144da57600080fd5b600084013567ffffffffffffffff8111156144f457600080fd5b614500868287016141e2565b9350935050602084013567ffffffffffffffff81111561451f57600080fd5b61452b86828701614256565b9150509250925092565b60006020828403121561454757600080fd5b600061455584828501614272565b91505092915050565b6000806000806060858703121561457457600080fd5b600061458287828801614272565b945050602085013567ffffffffffffffff81111561459f57600080fd5b6145ab878288016141e2565b9350935050604085013567ffffffffffffffff8111156145ca57600080fd5b6145d687828801614256565b91505092959194509250565b600080604083850312156145f557600080fd5b600061460385828601614272565b925050602083013567ffffffffffffffff81111561462057600080fd5b61462c8582860161422c565b9150509250929050565b6000806040838503121561464957600080fd5b600061465785828601614272565b925050602061466885828601614272565b9150509250929050565b6000806000806080858703121561468857600080fd5b600061469687828801614272565b94505060206146a787828801614272565b935050604085013567ffffffffffffffff8111156146c457600080fd5b6146d08782880161422c565b925050606085013567ffffffffffffffff8111156146ed57600080fd5b6146f98782880161422c565b91505092959194509250565b61470e816154dd565b82525050565b614725614720826154dd565b61564c565b82525050565b614734816154ef565b82525050565b60006147458261534f565b61474f8185615365565b935061475f81856020860161556d565b61476881615767565b840191505092915050565b600061477e8261534f565b6147888185615376565b935061479881856020860161556d565b80840191505092915050565b60006147b08385615381565b93506147bd83858461555e565b6147c683615767565b840190509392505050565b60006147dd8385615392565b93506147ea83858461555e565b6147f383615767565b840190509392505050565b600061480a83856153a3565b935061481783858461555e565b82840190509392505050565b600061482e8261535a565b6148388185615381565b935061484881856020860161556d565b61485181615767565b840191505092915050565b60006148678261535a565b6148718185615392565b935061488181856020860161556d565b61488a81615767565b840191505092915050565b60006148a08261535a565b6148aa81856153a3565b93506148ba81856020860161556d565b80840191505092915050565b60006148d3603283615392565b91506148de82615785565b604082019050919050565b60006148f6602683615392565b9150614901826157d4565b604082019050919050565b6000614919601c83615392565b915061492482615823565b602082019050919050565b600061493c602483615392565b91506149478261584c565b604082019050919050565b600061495f601983615392565b915061496a8261589b565b602082019050919050565b6000614982602683615392565b915061498d826158c4565b604082019050919050565b60006149a5602c83615392565b91506149b082615913565b604082019050919050565b60006149c8601783615392565b91506149d382615962565b602082019050919050565b60006149eb603883615392565b91506149f68261598b565b604082019050919050565b6000614a0e602a83615392565b9150614a19826159da565b604082019050919050565b6000614a31602083615392565b9150614a3c82615a29565b602082019050919050565b6000614a54602c83615392565b9150614a5f82615a52565b604082019050919050565b6000614a77602083615392565b9150614a8282615aa1565b602082019050919050565b6000614a9a602983615392565b9150614aa582615aca565b604082019050919050565b6000614abd601283615392565b9150614ac882615b19565b602082019050919050565b6000614ae0602f83615392565b9150614aeb82615b42565b604082019050919050565b6000614b03601483615392565b9150614b0e82615b91565b602082019050919050565b6000614b26602183615392565b9150614b3182615bba565b604082019050919050565b6000614b49602083615392565b9150614b5482615c09565b602082019050919050565b6000614b6c603183615392565b9150614b7782615c32565b604082019050919050565b6000614b8f601d83615392565b9150614b9a82615c81565b602082019050919050565b6000614bb2601683615392565b9150614bbd82615caa565b602082019050919050565b60006101008301614bdc60008401846153ae565b8583036000870152614bef8382846147a4565b92505050614c0060208401846153ae565b8583036020870152614c138382846147a4565b92505050614c2460408401846153ae565b8583036040870152614c378382846147a4565b92505050614c4860608401846153ae565b8583036060870152614c5b8382846147a4565b92505050614c6c6080840184615405565b614c796080860182614d2d565b50614c8760a08401846153ae565b85830360a0870152614c9a8382846147a4565b92505050614cab60c08401846153ae565b85830360c0870152614cbe8382846147a4565b92505050614ccf60e08401846153ae565b85830360e0870152614ce28382846147a4565b925050508091505092915050565b6000604083016000830151614d086000860182614d2d565b5060208301518482036020860152614d208282614823565b9150508091505092915050565b614d3681615547565b82525050565b614d4581615547565b82525050565b614d5c614d5782615547565b615670565b82525050565b6000614d6e8284614773565b915081905092915050565b6000614d868285876147fe565b9150614d928284614d4b565b602082019150819050949350505050565b6000614daf8284614895565b915081905092915050565b6000614dc68288614d4b565b602082019150614dd68287614714565b601482019150614de78285876147fe565b9150614df38284614d4b565b6020820191508190509695505050505050565b6000602082019050614e1b6000830184614705565b92915050565b6000608082019050614e366000830187614705565b614e436020830186614705565b614e506040830185614d3c565b8181036060830152614e62818461473a565b905095945050505050565b6000602082019050614e82600083018461472b565b92915050565b60006020820190508181036000830152614ea2818461485c565b905092915050565b60006020820190508181036000830152614ec3816148c6565b9050919050565b60006020820190508181036000830152614ee3816148e9565b9050919050565b60006020820190508181036000830152614f038161490c565b9050919050565b60006020820190508181036000830152614f238161492f565b9050919050565b60006020820190508181036000830152614f4381614952565b9050919050565b60006020820190508181036000830152614f6381614975565b9050919050565b60006020820190508181036000830152614f8381614998565b9050919050565b60006020820190508181036000830152614fa3816149bb565b9050919050565b60006020820190508181036000830152614fc3816149de565b9050919050565b60006020820190508181036000830152614fe381614a01565b9050919050565b6000602082019050818103600083015261500381614a24565b9050919050565b6000602082019050818103600083015261502381614a47565b9050919050565b6000602082019050818103600083015261504381614a6a565b9050919050565b6000602082019050818103600083015261506381614a8d565b9050919050565b6000602082019050818103600083015261508381614ab0565b9050919050565b600060208201905081810360008301526150a381614ad3565b9050919050565b600060208201905081810360008301526150c381614af6565b9050919050565b600060208201905081810360008301526150e381614b19565b9050919050565b6000602082019050818103600083015261510381614b3c565b9050919050565b6000602082019050818103600083015261512381614b5f565b9050919050565b6000602082019050818103600083015261514381614b82565b9050919050565b6000602082019050818103600083015261516381614ba5565b9050919050565b600060208201905081810360008301526151848184614cf0565b905092915050565b60006020820190506151a16000830184614d3c565b92915050565b60006040820190506151bc6000830185614d3c565b81810360208301526151ce818461485c565b90509392505050565b60006080820190506151ec6000830188614d3c565b6151f96020830187614d3c565b818103604083015261520c8185876147d1565b905081810360608301526152208184614bc8565b90509695505050505050565b60006080820190506152416000830187614d3c565b61524e6020830186614d3c565b61525b6040830185614d3c565b6152686060830184614d3c565b95945050505050565b6000808335600160200384360303811261528a57600080fd5b80840192508235915067ffffffffffffffff8211156152a857600080fd5b6020830192506001820236038313156152c057600080fd5b509250929050565b60006152d26152e3565b90506152de82826155d2565b919050565b6000604051905090565b600067ffffffffffffffff82111561530857615307615738565b5b61531182615767565b9050602081019050919050565b600067ffffffffffffffff82111561533957615338615738565b5b61534282615767565b9050602081019050919050565b600081519050919050565b600081519050919050565b600082825260208201905092915050565b600081905092915050565b600082825260208201905092915050565b600082825260208201905092915050565b600081905092915050565b600080833560016020038436030381126153c757600080fd5b83810192508235915060208301925067ffffffffffffffff8211156153eb57600080fd5b6001820236038413156153fd57600080fd5b509250929050565b60006154146020840184614272565b905092915050565b600061542782615547565b915061543283615547565b9250827fffffffffffffffffffffffffffffffffffffffffffffffffffffffffffffffff03821115615467576154666156ab565b5b828201905092915050565b600061547d82615551565b915061548883615551565b92508260ff0382111561549e5761549d6156ab565b5b828201905092915050565b60006154b482615547565b91506154bf83615547565b9250828210156154d2576154d16156ab565b5b828203905092915050565b60006154e882615527565b9050919050565b60008115159050919050565b60007fffffffff0000000000000000000000000000000000000000000000000000000082169050919050565b600073ffffffffffffffffffffffffffffffffffffffff82169050919050565b6000819050919050565b600060ff82169050919050565b82818337600083830152505050565b60005b8381101561558b578082015181840152602081019050615570565b8381111561559a576000848401525b50505050565b600060028204905060018216806155b857607f821691505b602082108114156155cc576155cb615709565b5b50919050565b6155db82615767565b810181811067ffffffffffffffff821117156155fa576155f9615738565b5b80604052505050565b600061560e82615547565b91507fffffffffffffffffffffffffffffffffffffffffffffffffffffffffffffffff821415615641576156406156ab565b5b600182019050919050565b60006156578261565e565b9050919050565b600061566982615778565b9050919050565b6000819050919050565b600061568582615547565b915061569083615547565b9250826156a05761569f6156da565b5b828206905092915050565b7f4e487b7100000000000000000000000000000000000000000000000000000000600052601160045260246000fd5b7f4e487b7100000000000000000000000000000000000000000000000000000000600052601260045260246000fd5b7f4e487b7100000000000000000000000000000000000000000000000000000000600052602260045260246000fd5b7f4e487b7100000000000000000000000000000000000000000000000000000000600052604160045260246000fd5b6000601f19601f8301169050919050565b60008160601b9050919050565b7f4552433732313a207472616e7366657220746f206e6f6e20455243373231526560008201527f63656976657220696d706c656d656e7465720000000000000000000000000000602082015250565b7f4f776e61626c653a206e6577206f776e657220697320746865207a65726f206160008201527f6464726573730000000000000000000000000000000000000000000000000000602082015250565b7f4552433732313a20746f6b656e20616c7265616479206d696e74656400000000600082015250565b7f4552433732313a207472616e7366657220746f20746865207a65726f2061646460008201527f7265737300000000000000000000000000000000000000000000000000000000602082015250565b7f4552433732313a20617070726f766520746f2063616c6c657200000000000000600082015250565b7f416464726573733a20696e73756666696369656e742062616c616e636520666f60008201527f722063616c6c0000000000000000000000000000000000000000000000000000602082015250565b7f4552433732313a206f70657261746f7220717565727920666f72206e6f6e657860008201527f697374656e7420746f6b656e0000000000000000000000000000000000000000602082015250565b7f4e616d652074616b656e206f72206e6f742076616c6964000000000000000000600082015250565b7f4552433732313a20617070726f76652063616c6c6572206973206e6f74206f7760008201527f6e6572206e6f7220617070726f76656420666f7220616c6c0000000000000000602082015250565b7f4552433732313a2062616c616e636520717565727920666f7220746865207a6560008201527f726f206164647265737300000000000000000000000000000000000000000000602082015250565b7f4552433732313a206d696e7420746f20746865207a65726f2061646472657373600082015250565b7f4552433732313a20617070726f76656420717565727920666f72206e6f6e657860008201527f697374656e7420746f6b656e0000000000000000000000000000000000000000602082015250565b7f4f776e61626c653a2063616c6c6572206973206e6f7420746865206f776e6572600082015250565b7f4552433732313a207472616e73666572206f6620746f6b656e2074686174206960008201527f73206e6f74206f776e0000000000000000000000000000000000000000000000602082015250565b7f506f736974696f6e206e6f742076616c69640000000000000000000000000000600082015250565b7f4552433732314d657461646174613a2055524920717565727920666f72206e6f60008201527f6e6578697374656e7420746f6b656e0000000000000000000000000000000000602082015250565b7f4e6f6e2076616c69642063686172616374657273000000000000000000000000600082015250565b7f4552433732313a20617070726f76616c20746f2063757272656e74206f776e6560008201527f7200000000000000000000000000000000000000000000000000000000000000602082015250565b7f43616c6c6572206973206e6f74206f776e6572206e6f7220617070726f766564600082015250565b7f4552433732313a207472616e736665722063616c6c6572206973206e6f74206f60008201527f776e6572206e6f7220617070726f766564000000000000000000000000000000602082015250565b7f416464726573733a2063616c6c20746f206e6f6e2d636f6e7472616374000000600082015250565b7f557064617465206265696e672070726f63657373656400000000000000000000600082015250565b615cdc816154dd565b8114615ce757600080fd5b50565b615cf3816154ef565b8114615cfe57600080fd5b50565b615d0a816154fb565b8114615d1557600080fd5b50565b615d2181615547565b8114615d2c57600080fd5b5056fe4552433732313a207472616e7366657220746f206e6f6e20455243373231526563656976657220696d706c656d656e7465724552433732313a206f776e657220717565727920666f72206e6f6e6578697374656e7420746f6b656ea26469706673582212204f0c1ada8c6b3ae0d69a3fdcb26d2f9e13622f565f33618632f7650f5d34b40e64736f6c63430008040033",
  "linkReferences": {},
  "deployedLinkReferences": {}
}