{
  "_format": "hh-sol-artifact-1",
  "contractName": "Marketplace",
  "sourceName": "contracts/Marketplace.sol",
  "abi": [
    {
      "inputs": [
        {
          "internalType": "address",
          "name": "_bCardAddress",
          "type": "address"
        }
      ],
      "stateMutability": "nonpayable",
      "type": "constructor"
    },
    {
      "anonymous": false,
      "inputs": [
        {
          "indexed": true,
          "internalType": "uint256",
          "name": "itemId",
          "type": "uint256"
        },
        {
          "indexed": true,
          "internalType": "uint256",
          "name": "tokenId",
          "type": "uint256"
        },
        {
          "indexed": false,
          "internalType": "address",
          "name": "seller",
          "type": "address"
        },
        {
          "indexed": false,
          "internalType": "address",
          "name": "owner",
          "type": "address"
        },
        {
          "indexed": false,
          "internalType": "uint256",
          "name": "price",
          "type": "uint256"
        },
        {
          "indexed": false,
          "internalType": "bool",
          "name": "sold",
          "type": "bool"
        },
        {
          "indexed": false,
          "internalType": "bool",
          "name": "cancelled",
          "type": "bool"
        }
      ],
      "name": "MarketItemCreated",
      "type": "event"
    },
    {
      "anonymous": false,
      "inputs": [
        {
          "indexed": true,
          "internalType": "address",
          "name": "previousOwner",
          "type": "address"
        },
        {
          "indexed": true,
          "internalType": "address",
          "name": "newOwner",
          "type": "address"
        }
      ],
      "name": "OwnershipTransferred",
      "type": "event"
    },
    {
      "inputs": [
        {
          "internalType": "uint256",
          "name": "itemId",
          "type": "uint256"
        }
      ],
      "name": "cancelMarketItem",
      "outputs": [],
      "stateMutability": "payable",
      "type": "function"
    },
    {
      "inputs": [
        {
          "internalType": "uint256",
          "name": "tokenId",
          "type": "uint256"
        },
        {
          "internalType": "uint256",
          "name": "price",
          "type": "uint256"
        }
      ],
      "name": "createMarketItem",
      "outputs": [
        {
          "internalType": "uint256",
          "name": "",
          "type": "uint256"
        }
      ],
      "stateMutability": "payable",
      "type": "function"
    },
    {
      "inputs": [
        {
          "internalType": "uint256",
          "name": "itemId",
          "type": "uint256"
        },
        {
          "internalType": "string",
          "name": "newName",
          "type": "string"
        },
        {
          "components": [
            {
              "internalType": "string",
              "name": "position",
              "type": "string"
            },
            {
              "internalType": "string",
              "name": "twitterAccount",
              "type": "string"
            },
            {
              "internalType": "string",
              "name": "telegramAccount",
              "type": "string"
            },
            {
              "internalType": "string",
              "name": "telegramGroup",
              "type": "string"
            },
            {
              "internalType": "uint256",
              "name": "discordAccount",
              "type": "uint256"
            },
            {
              "internalType": "string",
              "name": "discordGroup",
              "type": "string"
            },
            {
              "internalType": "string",
              "name": "githubUsername",
              "type": "string"
            },
            {
              "internalType": "string",
              "name": "website",
              "type": "string"
            }
          ],
          "internalType": "struct IBusinessCard.CardProperties",
          "name": "newCardProperties",
          "type": "tuple"
        }
      ],
      "name": "createMarketSale",
      "outputs": [],
      "stateMutability": "payable",
      "type": "function"
    },
    {
      "inputs": [],
      "name": "fetchAvailableMarketItems",
      "outputs": [
        {
          "components": [
            {
              "internalType": "uint256",
              "name": "itemId",
              "type": "uint256"
            },
            {
              "internalType": "uint256",
              "name": "tokenId",
              "type": "uint256"
            },
            {
              "internalType": "address payable",
              "name": "seller",
              "type": "address"
            },
            {
              "internalType": "address payable",
              "name": "owner",
              "type": "address"
            },
            {
              "internalType": "uint256",
              "name": "price",
              "type": "uint256"
            },
            {
              "internalType": "bool",
              "name": "isSold",
              "type": "bool"
            },
            {
              "internalType": "bool",
              "name": "isCancelled",
              "type": "bool"
            }
          ],
          "internalType": "struct Marketplace.MarketItem[]",
          "name": "",
          "type": "tuple[]"
        }
      ],
      "stateMutability": "view",
      "type": "function"
    },
    {
      "inputs": [
        {
          "internalType": "string",
          "name": "_addressProperty",
          "type": "string"
        },
        {
          "internalType": "address",
          "name": "account",
          "type": "address"
        }
      ],
      "name": "fetchMarketItemsByAddressProperty",
      "outputs": [
        {
          "components": [
            {
              "internalType": "uint256",
              "name": "itemId",
              "type": "uint256"
            },
            {
              "internalType": "uint256",
              "name": "tokenId",
              "type": "uint256"
            },
            {
              "internalType": "address payable",
              "name": "seller",
              "type": "address"
            },
            {
              "internalType": "address payable",
              "name": "owner",
              "type": "address"
            },
            {
              "internalType": "uint256",
              "name": "price",
              "type": "uint256"
            },
            {
              "internalType": "bool",
              "name": "isSold",
              "type": "bool"
            },
            {
              "internalType": "bool",
              "name": "isCancelled",
              "type": "bool"
            }
          ],
          "internalType": "struct Marketplace.MarketItem[]",
          "name": "",
          "type": "tuple[]"
        }
      ],
      "stateMutability": "view",
      "type": "function"
    },
    {
      "inputs": [
        {
          "internalType": "address",
          "name": "account",
          "type": "address"
        }
      ],
      "name": "fetchOwnedMarketItems",
      "outputs": [
        {
          "components": [
            {
              "internalType": "uint256",
              "name": "itemId",
              "type": "uint256"
            },
            {
              "internalType": "uint256",
              "name": "tokenId",
              "type": "uint256"
            },
            {
              "internalType": "address payable",
              "name": "seller",
              "type": "address"
            },
            {
              "internalType": "address payable",
              "name": "owner",
              "type": "address"
            },
            {
              "internalType": "uint256",
              "name": "price",
              "type": "uint256"
            },
            {
              "internalType": "bool",
              "name": "isSold",
              "type": "bool"
            },
            {
              "internalType": "bool",
              "name": "isCancelled",
              "type": "bool"
            }
          ],
          "internalType": "struct Marketplace.MarketItem[]",
          "name": "",
          "type": "tuple[]"
        }
      ],
      "stateMutability": "view",
      "type": "function"
    },
    {
      "inputs": [
        {
          "internalType": "address",
          "name": "account",
          "type": "address"
        }
      ],
      "name": "fetchSellingMarketItems",
      "outputs": [
        {
          "components": [
            {
              "internalType": "uint256",
              "name": "itemId",
              "type": "uint256"
            },
            {
              "internalType": "uint256",
              "name": "tokenId",
              "type": "uint256"
            },
            {
              "internalType": "address payable",
              "name": "seller",
              "type": "address"
            },
            {
              "internalType": "address payable",
              "name": "owner",
              "type": "address"
            },
            {
              "internalType": "uint256",
              "name": "price",
              "type": "uint256"
            },
            {
              "internalType": "bool",
              "name": "isSold",
              "type": "bool"
            },
            {
              "internalType": "bool",
              "name": "isCancelled",
              "type": "bool"
            }
          ],
          "internalType": "struct Marketplace.MarketItem[]",
          "name": "",
          "type": "tuple[]"
        }
      ],
      "stateMutability": "view",
      "type": "function"
    },
    {
      "inputs": [
        {
          "internalType": "uint256",
          "name": "tokenId",
          "type": "uint256"
        }
      ],
      "name": "getLatestMarketItemByTokenId",
      "outputs": [
        {
          "components": [
            {
              "internalType": "uint256",
              "name": "itemId",
              "type": "uint256"
            },
            {
              "internalType": "uint256",
              "name": "tokenId",
              "type": "uint256"
            },
            {
              "internalType": "address payable",
              "name": "seller",
              "type": "address"
            },
            {
              "internalType": "address payable",
              "name": "owner",
              "type": "address"
            },
            {
              "internalType": "uint256",
              "name": "price",
              "type": "uint256"
            },
            {
              "internalType": "bool",
              "name": "isSold",
              "type": "bool"
            },
            {
              "internalType": "bool",
              "name": "isCancelled",
              "type": "bool"
            }
          ],
          "internalType": "struct Marketplace.MarketItem",
          "name": "",
          "type": "tuple"
        },
        {
          "internalType": "bool",
          "name": "",
          "type": "bool"
        }
      ],
      "stateMutability": "view",
      "type": "function"
    },
    {
      "inputs": [],
      "name": "minimumPrice",
      "outputs": [
        {
          "internalType": "uint256",
          "name": "",
          "type": "uint256"
        }
      ],
      "stateMutability": "view",
      "type": "function"
    },
    {
      "inputs": [],
      "name": "oracleFee",
      "outputs": [
        {
          "internalType": "uint256",
          "name": "",
          "type": "uint256"
        }
      ],
      "stateMutability": "view",
      "type": "function"
    },
    {
      "inputs": [],
      "name": "owner",
      "outputs": [
        {
          "internalType": "address",
          "name": "",
          "type": "address"
        }
      ],
      "stateMutability": "view",
      "type": "function"
    },
    {
      "inputs": [],
      "name": "pauseSale",
      "outputs": [],
      "stateMutability": "nonpayable",
      "type": "function"
    },
    {
      "inputs": [],
      "name": "renounceOwnership",
      "outputs": [],
      "stateMutability": "nonpayable",
      "type": "function"
    },
    {
      "inputs": [],
      "name": "saleStarted",
      "outputs": [
        {
          "internalType": "bool",
          "name": "",
          "type": "bool"
        }
      ],
      "stateMutability": "view",
      "type": "function"
    },
    {
      "inputs": [],
      "name": "startSale",
      "outputs": [],
      "stateMutability": "nonpayable",
      "type": "function"
    },
    {
      "inputs": [
        {
          "internalType": "address",
          "name": "newOwner",
          "type": "address"
        }
      ],
      "name": "transferOwnership",
      "outputs": [],
      "stateMutability": "nonpayable",
      "type": "function"
    },
    {
      "inputs": [],
      "name": "withdraw",
      "outputs": [],
      "stateMutability": "nonpayable",
      "type": "function"
    }
  ],
  "bytecode": "0x60a06040526658d15e1762800060055566b1a2bc2ec500006006553480156200002757600080fd5b5060405162002e6f38038062002e6f83398181016040528101906200004d919062000198565b60016000819055506200007562000069620000b360201b60201c565b620000bb60201b60201c565b8073ffffffffffffffffffffffffffffffffffffffff1660808173ffffffffffffffffffffffffffffffffffffffff1660601b815250505062000212565b600033905090565b6000600160009054906101000a900473ffffffffffffffffffffffffffffffffffffffff16905081600160006101000a81548173ffffffffffffffffffffffffffffffffffffffff021916908373ffffffffffffffffffffffffffffffffffffffff1602179055508173ffffffffffffffffffffffffffffffffffffffff168173ffffffffffffffffffffffffffffffffffffffff167f8be0079c531659141344cd1fd0a4f28419497f9722a3daafe3b4186f6b6457e060405160405180910390a35050565b6000815190506200019281620001f8565b92915050565b600060208284031215620001ab57600080fd5b6000620001bb8482850162000181565b91505092915050565b6000620001d182620001d8565b9050919050565b600073ffffffffffffffffffffffffffffffffffffffff82169050919050565b6200020381620001c4565b81146200020f57600080fd5b50565b60805160601c612c29620002466000396000818161092101528181610e910152818161110801526112190152612c296000f3fe6080604052600436106100fe5760003560e01c806379fb4fb411610095578063b66a0e5d11610064578063b66a0e5d146102f8578063b9e31b9a1461030f578063f2fde38b1461032b578063f9cd3ceb14610354578063fdfddc701461037f576100fe565b806379fb4fb4146102495780637f386b6c146102865780638da5cb5b146102b1578063a6e22b02146102dc576100fe565b806355367ba9116100d157806355367ba9146101b25780635c474f9e146101c95780636f9b4920146101f4578063715018a614610232576100fe565b80630e01c969146101035780631e0b94ac1461012e578063361c19951461016b5780633ccfd60b1461019b575b600080fd5b34801561010f57600080fd5b506101186103bc565b604051610125919061248b565b60405180910390f35b34801561013a57600080fd5b5061015560048036038101906101509190611d8f565b61066c565b604051610162919061248b565b60405180910390f35b61018560048036038101906101809190611eb9565b6106b4565b6040516101929190612612565b60405180910390f35b3480156101a757600080fd5b506101b0610a03565b005b3480156101be57600080fd5b506101c7610a5a565b005b3480156101d557600080fd5b506101de610a7f565b6040516101eb91906124ad565b60405180910390f35b34801561020057600080fd5b5061021b60048036038101906102169190611e0c565b610a92565b6040516102299291906125e8565b60405180910390f35b34801561023e57600080fd5b50610247610c25565b005b34801561025557600080fd5b50610270600480360381019061026b9190611d8f565b610c39565b60405161027d919061248b565b60405180910390f35b34801561029257600080fd5b5061029b610c81565b6040516102a89190612612565b60405180910390f35b3480156102bd57600080fd5b506102c6610c87565b6040516102d391906123e6565b60405180910390f35b6102f660048036038101906102f19190611e0c565b610cb1565b005b34801561030457600080fd5b5061030d610f2a565b005b61032960048036038101906103249190611e35565b610f4f565b005b34801561033757600080fd5b50610352600480360381019061034d9190611d8f565b6112b6565b005b34801561036057600080fd5b5061036961133a565b6040516103769190612612565b60405180910390f35b34801561038b57600080fd5b506103a660048036038101906103a19190611db8565b611340565b6040516103b3919061248b565b60405180910390f35b606060006103ca6002611940565b905060006103d86003611940565b905060006103e66004611940565b905060008183856103f791906127ff565b61040191906127ff565b905060008167ffffffffffffffff811115610445577f4e487b7100000000000000000000000000000000000000000000000000000000600052604160045260246000fd5b60405190808252806020026020018201604052801561047e57816020015b61046b611c2a565b8152602001906001900390816104635790505b5090506000805b8681101561065f576000600860006001846104a091906127a9565b81526020019081526020016000206040518060e001604052908160008201548152602001600182015481526020016002820160009054906101000a900473ffffffffffffffffffffffffffffffffffffffff1673ffffffffffffffffffffffffffffffffffffffff1673ffffffffffffffffffffffffffffffffffffffff1681526020016003820160009054906101000a900473ffffffffffffffffffffffffffffffffffffffff1673ffffffffffffffffffffffffffffffffffffffff1673ffffffffffffffffffffffffffffffffffffffff168152602001600482015481526020016005820160009054906101000a900460ff161515151581526020016005820160019054906101000a900460ff1615151515815250509050600073ffffffffffffffffffffffffffffffffffffffff16816060015173ffffffffffffffffffffffffffffffffffffffff16146105f9575061064e565b80848481518110610633577f4e487b7100000000000000000000000000000000000000000000000000000000600052603260045260246000fd5b602002602001018190525082806106499061292a565b935050505b806106589061292a565b9050610485565b5081965050505050505090565b60606106ad6040518060400160405280600581526020017f6f776e657200000000000000000000000000000000000000000000000000000081525083611340565b9050919050565b6000600260005414156106fc576040517f08c379a00000000000000000000000000000000000000000000000000000000081526004016106f3906125c8565b60405180910390fd5b600260008190555060011515600760009054906101000a900460ff1615151461075a576040517f08c379a000000000000000000000000000000000000000000000000000000000815260040161075190612508565b60405180910390fd5b60065482101561079f576040517f08c379a000000000000000000000000000000000000000000000000000000000815260040161079690612548565b60405180910390fd5b6107a9600261194e565b60006107b56002611940565b90506040518060e001604052808281526020018581526020013373ffffffffffffffffffffffffffffffffffffffff168152602001600073ffffffffffffffffffffffffffffffffffffffff1681526020018481526020016000151581526020016000151581525060086000838152602001908152602001600020600082015181600001556020820151816001015560408201518160020160006101000a81548173ffffffffffffffffffffffffffffffffffffffff021916908373ffffffffffffffffffffffffffffffffffffffff16021790555060608201518160030160006101000a81548173ffffffffffffffffffffffffffffffffffffffff021916908373ffffffffffffffffffffffffffffffffffffffff1602179055506080820151816004015560a08201518160050160006101000a81548160ff02191690831515021790555060c08201518160050160016101000a81548160ff0219169083151502179055509050507f000000000000000000000000000000000000000000000000000000000000000073ffffffffffffffffffffffffffffffffffffffff1663a5f24d063330876040518463ffffffff1660e01b815260040161097c93929190612401565b600060405180830381600087803b15801561099657600080fd5b505af11580156109aa573d6000803e3d6000fd5b5050505083817f37a688d146d52021107322f877f4c58eb012a129b80d9383e2ec76c4d4a9e273336000876000806040516109e9959493929190612438565b60405180910390a380915050600160008190555092915050565b610a0b611964565b60004790503373ffffffffffffffffffffffffffffffffffffffff166108fc829081150290604051600060405180830381858888f19350505050158015610a56573d6000803e3d6000fd5b5050565b610a62611964565b6000600760006101000a81548160ff021916908315150217905550565b600760009054906101000a900460ff1681565b610a9a611c2a565b600080610aa76002611940565b905060008190505b6000811115610c0d576000600860008381526020019081526020016000206040518060e001604052908160008201548152602001600182015481526020016002820160009054906101000a900473ffffffffffffffffffffffffffffffffffffffff1673ffffffffffffffffffffffffffffffffffffffff1673ffffffffffffffffffffffffffffffffffffffff1681526020016003820160009054906101000a900473ffffffffffffffffffffffffffffffffffffffff1673ffffffffffffffffffffffffffffffffffffffff1673ffffffffffffffffffffffffffffffffffffffff168152602001600482015481526020016005820160009054906101000a900460ff161515151581526020016005820160019054906101000a900460ff161515151581525050905085816020015114610beb5750610bfa565b80600194509450505050610c20565b8080610c05906128cf565b915050610aaf565b50610c16611c2a565b8060009350935050505b915091565b610c2d611964565b610c3760006119e2565b565b6060610c7a6040518060400160405280600681526020017f73656c6c6572000000000000000000000000000000000000000000000000000081525083611340565b9050919050565b60065481565b6000600160009054906101000a900473ffffffffffffffffffffffffffffffffffffffff16905090565b60026000541415610cf7576040517f08c379a0000000000000000000000000000000000000000000000000000000008152600401610cee906125c8565b60405180910390fd5b600260008190555060006008600083815260200190815260200160002060010154905060008111610d5d576040517f08c379a0000000000000000000000000000000000000000000000000000000008152600401610d54906124c8565b60405180910390fd5b3373ffffffffffffffffffffffffffffffffffffffff166008600084815260200190815260200160002060020160009054906101000a900473ffffffffffffffffffffffffffffffffffffffff1673ffffffffffffffffffffffffffffffffffffffff1614610e01576040517f08c379a0000000000000000000000000000000000000000000000000000000008152600401610df890612588565b60405180910390fd5b336008600084815260200190815260200160002060030160006101000a81548173ffffffffffffffffffffffffffffffffffffffff021916908373ffffffffffffffffffffffffffffffffffffffff16021790555060016008600084815260200190815260200160002060050160016101000a81548160ff021916908315150217905550610e8f600461194e565b7f000000000000000000000000000000000000000000000000000000000000000073ffffffffffffffffffffffffffffffffffffffff1663a5f24d063033846040518463ffffffff1660e01b8152600401610eec93929190612401565b600060405180830381600087803b158015610f0657600080fd5b505af1158015610f1a573d6000803e3d6000fd5b5050505050600160008190555050565b610f32611964565b6001600760006101000a81548160ff021916908315150217905550565b60026000541415610f95576040517f08c379a0000000000000000000000000000000000000000000000000000000008152600401610f8c906125c8565b60405180910390fd5b600260008190555060011515600760009054906101000a900460ff16151514610ff3576040517f08c379a0000000000000000000000000000000000000000000000000000000008152600401610fea90612508565b60405180910390fd5b6000600860008681526020019081526020016000206004015490506000600860008781526020019081526020016000206001015490506005548261103791906127a9565b3414611078576040517f08c379a000000000000000000000000000000000000000000000000000000000815260040161106f906125a8565b60405180910390fd5b60016008600088815260200190815260200160002060050160006101000a81548160ff021916908315150217905550336008600088815260200190815260200160002060030160006101000a81548173ffffffffffffffffffffffffffffffffffffffff021916908373ffffffffffffffffffffffffffffffffffffffff160217905550611106600361194e565b7f000000000000000000000000000000000000000000000000000000000000000073ffffffffffffffffffffffffffffffffffffffff166314a86a01600554838888886040518663ffffffff1660e01b8152600401611168949392919061262d565b6000604051808303818588803b15801561118157600080fd5b505af1158015611195573d6000803e3d6000fd5b50505050506008600087815260200190815260200160002060020160009054906101000a900473ffffffffffffffffffffffffffffffffffffffff1673ffffffffffffffffffffffffffffffffffffffff166108fc839081150290604051600060405180830381858888f19350505050158015611216573d6000803e3d6000fd5b507f000000000000000000000000000000000000000000000000000000000000000073ffffffffffffffffffffffffffffffffffffffff166323b872dd3033846040518463ffffffff1660e01b815260040161127493929190612401565b600060405180830381600087803b15801561128e57600080fd5b505af11580156112a2573d6000803e3d6000fd5b505050505050600160008190555050505050565b6112be611964565b600073ffffffffffffffffffffffffffffffffffffffff168173ffffffffffffffffffffffffffffffffffffffff16141561132e576040517f08c379a0000000000000000000000000000000000000000000000000000000008152600401611325906124e8565b60405180910390fd5b611337816119e2565b50565b60055481565b6060611381836040518060400160405280600681526020017f73656c6c65720000000000000000000000000000000000000000000000000000815250611aa8565b806113c757506113c6836040518060400160405280600581526020017f6f776e6572000000000000000000000000000000000000000000000000000000815250611aa8565b5b611406576040517f08c379a00000000000000000000000000000000000000000000000000000000081526004016113fd90612568565b60405180910390fd5b60006114126002611940565b905060008060005b838110156115bd5760006008600060018461143591906127a9565b81526020019081526020016000209050600061155c826040518060e001604052908160008201548152602001600182015481526020016002820160009054906101000a900473ffffffffffffffffffffffffffffffffffffffff1673ffffffffffffffffffffffffffffffffffffffff1673ffffffffffffffffffffffffffffffffffffffff1681526020016003820160009054906101000a900473ffffffffffffffffffffffffffffffffffffffff1673ffffffffffffffffffffffffffffffffffffffff1673ffffffffffffffffffffffffffffffffffffffff168152602001600482015481526020016005820160009054906101000a900460ff161515151581526020016005820160019054906101000a900460ff1615151515815250508a611b01565b90508773ffffffffffffffffffffffffffffffffffffffff168173ffffffffffffffffffffffffffffffffffffffff16146115985750506115aa565b6001856115a591906127a9565b945050505b80806115b59061292a565b91505061141a565b5060008267ffffffffffffffff811115611600577f4e487b7100000000000000000000000000000000000000000000000000000000600052604160045260246000fd5b60405190808252806020026020018201604052801561163957816020015b611626611c2a565b81526020019060019003908161161e5790505b50905060005b848110156119325760006008600060018461165a91906127a9565b815260200190815260200160002090506000611781826040518060e001604052908160008201548152602001600182015481526020016002820160009054906101000a900473ffffffffffffffffffffffffffffffffffffffff1673ffffffffffffffffffffffffffffffffffffffff1673ffffffffffffffffffffffffffffffffffffffff1681526020016003820160009054906101000a900473ffffffffffffffffffffffffffffffffffffffff1673ffffffffffffffffffffffffffffffffffffffff1673ffffffffffffffffffffffffffffffffffffffff168152602001600482015481526020016005820160009054906101000a900460ff161515151581526020016005820160019054906101000a900460ff1615151515815250508b611b01565b90508873ffffffffffffffffffffffffffffffffffffffff168173ffffffffffffffffffffffffffffffffffffffff16146117bd57505061191f565b816040518060e001604052908160008201548152602001600182015481526020016002820160009054906101000a900473ffffffffffffffffffffffffffffffffffffffff1673ffffffffffffffffffffffffffffffffffffffff1673ffffffffffffffffffffffffffffffffffffffff1681526020016003820160009054906101000a900473ffffffffffffffffffffffffffffffffffffffff1673ffffffffffffffffffffffffffffffffffffffff1673ffffffffffffffffffffffffffffffffffffffff168152602001600482015481526020016005820160009054906101000a900460ff161515151581526020016005820160019054906101000a900460ff161515151581525050848681518110611902577f4e487b7100000000000000000000000000000000000000000000000000000000600052603260045260246000fd5b602002602001018190525060018561191a91906127a9565b945050505b808061192a9061292a565b91505061163f565b508094505050505092915050565b600081600001549050919050565b6001816000016000828254019250508190555050565b61196c611c22565b73ffffffffffffffffffffffffffffffffffffffff1661198a610c87565b73ffffffffffffffffffffffffffffffffffffffff16146119e0576040517f08c379a00000000000000000000000000000000000000000000000000000000081526004016119d790612528565b60405180910390fd5b565b6000600160009054906101000a900473ffffffffffffffffffffffffffffffffffffffff16905081600160006101000a81548173ffffffffffffffffffffffffffffffffffffffff021916908373ffffffffffffffffffffffffffffffffffffffff1602179055508173ffffffffffffffffffffffffffffffffffffffff168173ffffffffffffffffffffffffffffffffffffffff167f8be0079c531659141344cd1fd0a4f28419497f9722a3daafe3b4186f6b6457e060405160405180910390a35050565b600081604051602001611abb91906123cf565b6040516020818303038152906040528051906020012083604051602001611ae291906123cf565b6040516020818303038152906040528051906020012014905092915050565b6000611b42826040518060400160405280600681526020017f73656c6c65720000000000000000000000000000000000000000000000000000815250611aa8565b80611b885750611b87826040518060400160405280600581526020017f6f776e6572000000000000000000000000000000000000000000000000000000815250611aa8565b5b611bc7576040517f08c379a0000000000000000000000000000000000000000000000000000000008152600401611bbe90612568565b60405180910390fd5b611c06826040518060400160405280600681526020017f73656c6c65720000000000000000000000000000000000000000000000000000815250611aa8565b611c14578260600151611c1a565b82604001515b905092915050565b600033905090565b6040518060e001604052806000815260200160008152602001600073ffffffffffffffffffffffffffffffffffffffff168152602001600073ffffffffffffffffffffffffffffffffffffffff168152602001600081526020016000151581526020016000151581525090565b6000611caa611ca584612699565b612674565b905082815260208101848484011115611cc257600080fd5b611ccd84828561288d565b509392505050565b600081359050611ce481612bc5565b92915050565b60008083601f840112611cfc57600080fd5b8235905067ffffffffffffffff811115611d1557600080fd5b602083019150836001820283011115611d2d57600080fd5b9250929050565b600082601f830112611d4557600080fd5b8135611d55848260208601611c97565b91505092915050565b60006101008284031215611d7157600080fd5b81905092915050565b600081359050611d8981612bdc565b92915050565b600060208284031215611da157600080fd5b6000611daf84828501611cd5565b91505092915050565b60008060408385031215611dcb57600080fd5b600083013567ffffffffffffffff811115611de557600080fd5b611df185828601611d34565b9250506020611e0285828601611cd5565b9150509250929050565b600060208284031215611e1e57600080fd5b6000611e2c84828501611d7a565b91505092915050565b60008060008060608587031215611e4b57600080fd5b6000611e5987828801611d7a565b945050602085013567ffffffffffffffff811115611e7657600080fd5b611e8287828801611cea565b9350935050604085013567ffffffffffffffff811115611ea157600080fd5b611ead87828801611d5e565b91505092959194509250565b60008060408385031215611ecc57600080fd5b6000611eda85828601611d7a565b9250506020611eeb85828601611d7a565b9150509250929050565b6000611f018383612295565b60e08301905092915050565b611f1681612845565b82525050565b611f2581612833565b82525050565b6000611f36826126da565b611f4081856126fd565b9350611f4b836126ca565b8060005b83811015611f7c578151611f638882611ef5565b9750611f6e836126f0565b925050600181019050611f4f565b5085935050505092915050565b611f9281612857565b82525050565b611fa181612857565b82525050565b6000611fb3838561270e565b9350611fc083858461288d565b611fc9836129d1565b840190509392505050565b6000611fe0838561271f565b9350611fed83858461288d565b611ff6836129d1565b840190509392505050565b600061200c826126e5565b6120168185612730565b935061202681856020860161289c565b80840191505092915050565b600061203f601a8361271f565b915061204a826129e2565b602082019050919050565b600061206260268361271f565b915061206d82612a0b565b604082019050919050565b600061208560158361271f565b915061209082612a5a565b602082019050919050565b60006120a860208361271f565b91506120b382612a83565b602082019050919050565b60006120cb600d8361271f565b91506120d682612aac565b602082019050919050565b60006120ee60258361271f565b91506120f982612ad5565b604082019050919050565b600061211160168361271f565b915061211c82612b24565b602082019050919050565b600061213460258361271f565b915061213f82612b4d565b604082019050919050565b6000612157601f8361271f565b915061216282612b9c565b602082019050919050565b60006101008301612181600084018461273b565b8583036000870152612194838284611fa7565b925050506121a5602084018461273b565b85830360208701526121b8838284611fa7565b925050506121c9604084018461273b565b85830360408701526121dc838284611fa7565b925050506121ed606084018461273b565b8583036060870152612200838284611fa7565b925050506122116080840184612792565b61221e60808601826123b1565b5061222c60a084018461273b565b85830360a087015261223f838284611fa7565b9250505061225060c084018461273b565b85830360c0870152612263838284611fa7565b9250505061227460e084018461273b565b85830360e0870152612287838284611fa7565b925050508091505092915050565b60e0820160008201516122ab60008501826123b1565b5060208201516122be60208501826123b1565b5060408201516122d16040850182611f0d565b5060608201516122e46060850182611f0d565b5060808201516122f760808501826123b1565b5060a082015161230a60a0850182611f89565b5060c082015161231d60c0850182611f89565b50505050565b60e08201600082015161233960008501826123b1565b50602082015161234c60208501826123b1565b50604082015161235f6040850182611f0d565b5060608201516123726060850182611f0d565b50608082015161238560808501826123b1565b5060a082015161239860a0850182611f89565b5060c08201516123ab60c0850182611f89565b50505050565b6123ba81612883565b82525050565b6123c981612883565b82525050565b60006123db8284612001565b915081905092915050565b60006020820190506123fb6000830184611f1c565b92915050565b60006060820190506124166000830186611f1c565b6124236020830185611f1c565b61243060408301846123c0565b949350505050565b600060a08201905061244d6000830188611f1c565b61245a6020830187611f1c565b61246760408301866123c0565b6124746060830185611f98565b6124816080830184611f98565b9695505050505050565b600060208201905081810360008301526124a58184611f2b565b905092915050565b60006020820190506124c26000830184611f98565b92915050565b600060208201905081810360008301526124e181612032565b9050919050565b6000602082019050818103600083015261250181612055565b9050919050565b6000602082019050818103600083015261252181612078565b9050919050565b600060208201905081810360008301526125418161209b565b9050919050565b60006020820190508181036000830152612561816120be565b9050919050565b60006020820190508181036000830152612581816120e1565b9050919050565b600060208201905081810360008301526125a181612104565b9050919050565b600060208201905081810360008301526125c181612127565b9050919050565b600060208201905081810360008301526125e18161214a565b9050919050565b6000610100820190506125fe6000830185612323565b61260b60e0830184611f98565b9392505050565b600060208201905061262760008301846123c0565b92915050565b600060608201905061264260008301876123c0565b8181036020830152612655818587611fd4565b90508181036040830152612669818461216d565b905095945050505050565b600061267e61268f565b905061268a82826128f9565b919050565b6000604051905090565b600067ffffffffffffffff8211156126b4576126b36129a2565b5b6126bd826129d1565b9050602081019050919050565b6000819050602082019050919050565b600081519050919050565b600081519050919050565b6000602082019050919050565b600082825260208201905092915050565b600082825260208201905092915050565b600082825260208201905092915050565b600081905092915050565b6000808335600160200384360303811261275457600080fd5b83810192508235915060208301925067ffffffffffffffff82111561277857600080fd5b60018202360384131561278a57600080fd5b509250929050565b60006127a16020840184611d7a565b905092915050565b60006127b482612883565b91506127bf83612883565b9250827fffffffffffffffffffffffffffffffffffffffffffffffffffffffffffffffff038211156127f4576127f3612973565b5b828201905092915050565b600061280a82612883565b915061281583612883565b92508282101561282857612827612973565b5b828203905092915050565b600061283e82612863565b9050919050565b600061285082612863565b9050919050565b60008115159050919050565b600073ffffffffffffffffffffffffffffffffffffffff82169050919050565b6000819050919050565b82818337600083830152505050565b60005b838110156128ba57808201518184015260208101905061289f565b838111156128c9576000848401525b50505050565b60006128da82612883565b915060008214156128ee576128ed612973565b5b600182039050919050565b612902826129d1565b810181811067ffffffffffffffff82111715612921576129206129a2565b5b80604052505050565b600061293582612883565b91507fffffffffffffffffffffffffffffffffffffffffffffffffffffffffffffffff82141561296857612967612973565b5b600182019050919050565b7f4e487b7100000000000000000000000000000000000000000000000000000000600052601160045260246000fd5b7f4e487b7100000000000000000000000000000000000000000000000000000000600052604160045260246000fd5b6000601f19601f8301169050919050565b7f4d61726b6574206974656d20646f6573206e6f74206578697374000000000000600082015250565b7f4f776e61626c653a206e6577206f776e657220697320746865207a65726f206160008201527f6464726573730000000000000000000000000000000000000000000000000000602082015250565b7f4d61726b6574706c616365206973207061757365640000000000000000000000600082015250565b7f4f776e61626c653a2063616c6c6572206973206e6f7420746865206f776e6572600082015250565b7f507269636520746f6f206c6f7700000000000000000000000000000000000000600082015250565b7f506172616d65746572206d757374206265202773656c6c657227206f7220276f60008201527f776e657227000000000000000000000000000000000000000000000000000000602082015250565b7f596f7520617265206e6f74207468652073656c6c657200000000000000000000600082015250565b7f5061796d656e74206d75737420626520707269636520706c7573206f7261636c60008201527f6520666565000000000000000000000000000000000000000000000000000000602082015250565b7f5265656e7472616e637947756172643a207265656e7472616e742063616c6c00600082015250565b612bce81612833565b8114612bd957600080fd5b50565b612be581612883565b8114612bf057600080fd5b5056fea2646970667358221220b350fd13b2d0ddae7f3fbad1cae17cc4d8f08254df35520a44bdc98bf23d64e164736f6c63430008040033",
  "linkReferences": {},
  "deployedLinkReferences": {}
}