{
  "_format": "hh-sol-artifact-1",
  "contractName": "Marketplace",
  "sourceName": "contracts/Marketplace.sol",
  "abi": [
    {
      "inputs": [
        {
          "internalType": "address",
          "name": "_bCardAddress",
          "type": "address"
        }
      ],
      "stateMutability": "nonpayable",
      "type": "constructor"
    },
    {
      "anonymous": false,
      "inputs": [
        {
          "indexed": true,
          "internalType": "uint256",
          "name": "itemId",
          "type": "uint256"
        },
        {
          "indexed": true,
          "internalType": "uint256",
          "name": "tokenId",
          "type": "uint256"
        },
        {
          "indexed": false,
          "internalType": "address",
          "name": "seller",
          "type": "address"
        },
        {
          "indexed": false,
          "internalType": "address",
          "name": "owner",
          "type": "address"
        },
        {
          "indexed": false,
          "internalType": "uint256",
          "name": "price",
          "type": "uint256"
        },
        {
          "indexed": false,
          "internalType": "bool",
          "name": "sold",
          "type": "bool"
        },
        {
          "indexed": false,
          "internalType": "bool",
          "name": "cancelled",
          "type": "bool"
        }
      ],
      "name": "MarketItemCreated",
      "type": "event"
    },
    {
      "anonymous": false,
      "inputs": [
        {
          "indexed": true,
          "internalType": "address",
          "name": "previousOwner",
          "type": "address"
        },
        {
          "indexed": true,
          "internalType": "address",
          "name": "newOwner",
          "type": "address"
        }
      ],
      "name": "OwnershipTransferred",
      "type": "event"
    },
    {
      "inputs": [
        {
          "internalType": "uint256",
          "name": "itemId",
          "type": "uint256"
        }
      ],
      "name": "cancelMarketItem",
      "outputs": [],
      "stateMutability": "payable",
      "type": "function"
    },
    {
      "inputs": [
        {
          "internalType": "uint256",
          "name": "tokenId",
          "type": "uint256"
        },
        {
          "internalType": "uint256",
          "name": "price",
          "type": "uint256"
        }
      ],
      "name": "createMarketItem",
      "outputs": [
        {
          "internalType": "uint256",
          "name": "",
          "type": "uint256"
        }
      ],
      "stateMutability": "payable",
      "type": "function"
    },
    {
      "inputs": [
        {
          "internalType": "uint256",
          "name": "itemId",
          "type": "uint256"
        },
        {
          "internalType": "string",
          "name": "newName",
          "type": "string"
        },
        {
          "components": [
            {
              "internalType": "string",
              "name": "position",
              "type": "string"
            },
            {
              "internalType": "string",
              "name": "twitterAccount",
              "type": "string"
            },
            {
              "internalType": "string",
              "name": "telegramAccount",
              "type": "string"
            },
            {
              "internalType": "string",
              "name": "telegramGroup",
              "type": "string"
            },
            {
              "internalType": "uint256",
              "name": "discordAccount",
              "type": "uint256"
            },
            {
              "internalType": "string",
              "name": "discordGroup",
              "type": "string"
            },
            {
              "internalType": "string",
              "name": "githubUsername",
              "type": "string"
            },
            {
              "internalType": "string",
              "name": "website",
              "type": "string"
            }
          ],
          "internalType": "struct IBusinessCard.CardProperties",
          "name": "newCardProperties",
          "type": "tuple"
        }
      ],
      "name": "createMarketSale",
      "outputs": [],
      "stateMutability": "payable",
      "type": "function"
    },
    {
      "inputs": [],
      "name": "fetchAvailableMarketItems",
      "outputs": [
        {
          "components": [
            {
              "internalType": "uint256",
              "name": "itemId",
              "type": "uint256"
            },
            {
              "internalType": "uint256",
              "name": "tokenId",
              "type": "uint256"
            },
            {
              "internalType": "address payable",
              "name": "seller",
              "type": "address"
            },
            {
              "internalType": "address payable",
              "name": "owner",
              "type": "address"
            },
            {
              "internalType": "uint256",
              "name": "price",
              "type": "uint256"
            },
            {
              "internalType": "bool",
              "name": "isSold",
              "type": "bool"
            },
            {
              "internalType": "bool",
              "name": "isCancelled",
              "type": "bool"
            }
          ],
          "internalType": "struct Marketplace.MarketItem[]",
          "name": "",
          "type": "tuple[]"
        }
      ],
      "stateMutability": "view",
      "type": "function"
    },
    {
      "inputs": [
        {
          "internalType": "string",
          "name": "_addressProperty",
          "type": "string"
        },
        {
          "internalType": "address",
          "name": "account",
          "type": "address"
        }
      ],
      "name": "fetchMarketItemsByAddressProperty",
      "outputs": [
        {
          "components": [
            {
              "internalType": "uint256",
              "name": "itemId",
              "type": "uint256"
            },
            {
              "internalType": "uint256",
              "name": "tokenId",
              "type": "uint256"
            },
            {
              "internalType": "address payable",
              "name": "seller",
              "type": "address"
            },
            {
              "internalType": "address payable",
              "name": "owner",
              "type": "address"
            },
            {
              "internalType": "uint256",
              "name": "price",
              "type": "uint256"
            },
            {
              "internalType": "bool",
              "name": "isSold",
              "type": "bool"
            },
            {
              "internalType": "bool",
              "name": "isCancelled",
              "type": "bool"
            }
          ],
          "internalType": "struct Marketplace.MarketItem[]",
          "name": "",
          "type": "tuple[]"
        }
      ],
      "stateMutability": "view",
      "type": "function"
    },
    {
      "inputs": [
        {
          "internalType": "address",
          "name": "account",
          "type": "address"
        }
      ],
      "name": "fetchOwnedMarketItems",
      "outputs": [
        {
          "components": [
            {
              "internalType": "uint256",
              "name": "itemId",
              "type": "uint256"
            },
            {
              "internalType": "uint256",
              "name": "tokenId",
              "type": "uint256"
            },
            {
              "internalType": "address payable",
              "name": "seller",
              "type": "address"
            },
            {
              "internalType": "address payable",
              "name": "owner",
              "type": "address"
            },
            {
              "internalType": "uint256",
              "name": "price",
              "type": "uint256"
            },
            {
              "internalType": "bool",
              "name": "isSold",
              "type": "bool"
            },
            {
              "internalType": "bool",
              "name": "isCancelled",
              "type": "bool"
            }
          ],
          "internalType": "struct Marketplace.MarketItem[]",
          "name": "",
          "type": "tuple[]"
        }
      ],
      "stateMutability": "view",
      "type": "function"
    },
    {
      "inputs": [
        {
          "internalType": "address",
          "name": "account",
          "type": "address"
        }
      ],
      "name": "fetchSellingMarketItems",
      "outputs": [
        {
          "components": [
            {
              "internalType": "uint256",
              "name": "itemId",
              "type": "uint256"
            },
            {
              "internalType": "uint256",
              "name": "tokenId",
              "type": "uint256"
            },
            {
              "internalType": "address payable",
              "name": "seller",
              "type": "address"
            },
            {
              "internalType": "address payable",
              "name": "owner",
              "type": "address"
            },
            {
              "internalType": "uint256",
              "name": "price",
              "type": "uint256"
            },
            {
              "internalType": "bool",
              "name": "isSold",
              "type": "bool"
            },
            {
              "internalType": "bool",
              "name": "isCancelled",
              "type": "bool"
            }
          ],
          "internalType": "struct Marketplace.MarketItem[]",
          "name": "",
          "type": "tuple[]"
        }
      ],
      "stateMutability": "view",
      "type": "function"
    },
    {
      "inputs": [
        {
          "internalType": "uint256",
          "name": "tokenId",
          "type": "uint256"
        }
      ],
      "name": "getLatestMarketItemByTokenId",
      "outputs": [
        {
          "components": [
            {
              "internalType": "uint256",
              "name": "itemId",
              "type": "uint256"
            },
            {
              "internalType": "uint256",
              "name": "tokenId",
              "type": "uint256"
            },
            {
              "internalType": "address payable",
              "name": "seller",
              "type": "address"
            },
            {
              "internalType": "address payable",
              "name": "owner",
              "type": "address"
            },
            {
              "internalType": "uint256",
              "name": "price",
              "type": "uint256"
            },
            {
              "internalType": "bool",
              "name": "isSold",
              "type": "bool"
            },
            {
              "internalType": "bool",
              "name": "isCancelled",
              "type": "bool"
            }
          ],
          "internalType": "struct Marketplace.MarketItem",
          "name": "",
          "type": "tuple"
        },
        {
          "internalType": "bool",
          "name": "",
          "type": "bool"
        }
      ],
      "stateMutability": "view",
      "type": "function"
    },
    {
      "inputs": [],
      "name": "oracleFee",
      "outputs": [
        {
          "internalType": "uint256",
          "name": "",
          "type": "uint256"
        }
      ],
      "stateMutability": "view",
      "type": "function"
    },
    {
      "inputs": [],
      "name": "owner",
      "outputs": [
        {
          "internalType": "address",
          "name": "",
          "type": "address"
        }
      ],
      "stateMutability": "view",
      "type": "function"
    },
    {
      "inputs": [],
      "name": "pauseSale",
      "outputs": [],
      "stateMutability": "nonpayable",
      "type": "function"
    },
    {
      "inputs": [],
      "name": "renounceOwnership",
      "outputs": [],
      "stateMutability": "nonpayable",
      "type": "function"
    },
    {
      "inputs": [],
      "name": "saleStarted",
      "outputs": [
        {
          "internalType": "bool",
          "name": "",
          "type": "bool"
        }
      ],
      "stateMutability": "view",
      "type": "function"
    },
    {
      "inputs": [],
      "name": "startSale",
      "outputs": [],
      "stateMutability": "nonpayable",
      "type": "function"
    },
    {
      "inputs": [
        {
          "internalType": "address",
          "name": "newOwner",
          "type": "address"
        }
      ],
      "name": "transferOwnership",
      "outputs": [],
      "stateMutability": "nonpayable",
      "type": "function"
    },
    {
      "inputs": [],
      "name": "withdraw",
      "outputs": [],
      "stateMutability": "nonpayable",
      "type": "function"
    }
  ],
  "bytecode": "0x60a060405266354a6ba7a180006005553480156200001c57600080fd5b5060405162002e2638038062002e2683398181016040528101906200004291906200018d565b60016000819055506200006a6200005e620000a860201b60201c565b620000b060201b60201c565b8073ffffffffffffffffffffffffffffffffffffffff1660808173ffffffffffffffffffffffffffffffffffffffff1660601b815250505062000207565b600033905090565b6000600160009054906101000a900473ffffffffffffffffffffffffffffffffffffffff16905081600160006101000a81548173ffffffffffffffffffffffffffffffffffffffff021916908373ffffffffffffffffffffffffffffffffffffffff1602179055508173ffffffffffffffffffffffffffffffffffffffff168173ffffffffffffffffffffffffffffffffffffffff167f8be0079c531659141344cd1fd0a4f28419497f9722a3daafe3b4186f6b6457e060405160405180910390a35050565b6000815190506200018781620001ed565b92915050565b600060208284031215620001a057600080fd5b6000620001b08482850162000176565b91505092915050565b6000620001c682620001cd565b9050919050565b600073ffffffffffffffffffffffffffffffffffffffff82169050919050565b620001f881620001b9565b81146200020457600080fd5b50565b60805160601c612beb6200023b600039600081816108e901528181610e53015281816110ca01526111db0152612beb6000f3fe6080604052600436106100f35760003560e01c806379fb4fb41161008a578063b9e31b9a11610059578063b9e31b9a146102d9578063f2fde38b146102f5578063f9cd3ceb1461031e578063fdfddc7014610349576100f3565b806379fb4fb41461023e5780638da5cb5b1461027b578063a6e22b02146102a6578063b66a0e5d146102c2576100f3565b806355367ba9116100c657806355367ba9146101a75780635c474f9e146101be5780636f9b4920146101e9578063715018a614610227576100f3565b80630e01c969146100f85780631e0b94ac14610123578063361c1995146101605780633ccfd60b14610190575b600080fd5b34801561010457600080fd5b5061010d610386565b60405161011a919061244d565b60405180910390f35b34801561012f57600080fd5b5061014a60048036038101906101459190611d51565b610636565b604051610157919061244d565b60405180910390f35b61017a60048036038101906101759190611e7b565b61067e565b60405161018791906125d4565b60405180910390f35b34801561019c57600080fd5b506101a56109cb565b005b3480156101b357600080fd5b506101bc610a22565b005b3480156101ca57600080fd5b506101d3610a47565b6040516101e0919061246f565b60405180910390f35b3480156101f557600080fd5b50610210600480360381019061020b9190611dce565b610a5a565b60405161021e9291906125aa565b60405180910390f35b34801561023357600080fd5b5061023c610bed565b005b34801561024a57600080fd5b5061026560048036038101906102609190611d51565b610c01565b604051610272919061244d565b60405180910390f35b34801561028757600080fd5b50610290610c49565b60405161029d91906123a8565b60405180910390f35b6102c060048036038101906102bb9190611dce565b610c73565b005b3480156102ce57600080fd5b506102d7610eec565b005b6102f360048036038101906102ee9190611df7565b610f11565b005b34801561030157600080fd5b5061031c60048036038101906103179190611d51565b611278565b005b34801561032a57600080fd5b506103336112fc565b60405161034091906125d4565b60405180910390f35b34801561035557600080fd5b50610370600480360381019061036b9190611d7a565b611302565b60405161037d919061244d565b60405180910390f35b606060006103946002611902565b905060006103a26003611902565b905060006103b06004611902565b905060008183856103c191906127c1565b6103cb91906127c1565b905060008167ffffffffffffffff81111561040f577f4e487b7100000000000000000000000000000000000000000000000000000000600052604160045260246000fd5b60405190808252806020026020018201604052801561044857816020015b610435611bec565b81526020019060019003908161042d5790505b5090506000805b868110156106295760006007600060018461046a919061276b565b81526020019081526020016000206040518060e001604052908160008201548152602001600182015481526020016002820160009054906101000a900473ffffffffffffffffffffffffffffffffffffffff1673ffffffffffffffffffffffffffffffffffffffff1673ffffffffffffffffffffffffffffffffffffffff1681526020016003820160009054906101000a900473ffffffffffffffffffffffffffffffffffffffff1673ffffffffffffffffffffffffffffffffffffffff1673ffffffffffffffffffffffffffffffffffffffff168152602001600482015481526020016005820160009054906101000a900460ff161515151581526020016005820160019054906101000a900460ff1615151515815250509050600073ffffffffffffffffffffffffffffffffffffffff16816060015173ffffffffffffffffffffffffffffffffffffffff16146105c35750610618565b808484815181106105fd577f4e487b7100000000000000000000000000000000000000000000000000000000600052603260045260246000fd5b60200260200101819052508280610613906128ec565b935050505b80610622906128ec565b905061044f565b5081965050505050505090565b60606106776040518060400160405280600581526020017f6f776e657200000000000000000000000000000000000000000000000000000081525083611302565b9050919050565b6000600260005414156106c6576040517f08c379a00000000000000000000000000000000000000000000000000000000081526004016106bd9061258a565b60405180910390fd5b600260008190555060011515600660009054906101000a900460ff16151514610724576040517f08c379a000000000000000000000000000000000000000000000000000000000815260040161071b906124ea565b60405180910390fd5b60008211610767576040517f08c379a000000000000000000000000000000000000000000000000000000000815260040161075e906124aa565b60405180910390fd5b6107716002611910565b600061077d6002611902565b90506040518060e001604052808281526020018581526020013373ffffffffffffffffffffffffffffffffffffffff168152602001600073ffffffffffffffffffffffffffffffffffffffff1681526020018481526020016000151581526020016000151581525060076000838152602001908152602001600020600082015181600001556020820151816001015560408201518160020160006101000a81548173ffffffffffffffffffffffffffffffffffffffff021916908373ffffffffffffffffffffffffffffffffffffffff16021790555060608201518160030160006101000a81548173ffffffffffffffffffffffffffffffffffffffff021916908373ffffffffffffffffffffffffffffffffffffffff1602179055506080820151816004015560a08201518160050160006101000a81548160ff02191690831515021790555060c08201518160050160016101000a81548160ff0219169083151502179055509050507f000000000000000000000000000000000000000000000000000000000000000073ffffffffffffffffffffffffffffffffffffffff1663a5f24d063330876040518463ffffffff1660e01b8152600401610944939291906123c3565b600060405180830381600087803b15801561095e57600080fd5b505af1158015610972573d6000803e3d6000fd5b5050505083817f37a688d146d52021107322f877f4c58eb012a129b80d9383e2ec76c4d4a9e273336000876000806040516109b19594939291906123fa565b60405180910390a380915050600160008190555092915050565b6109d3611926565b60004790503373ffffffffffffffffffffffffffffffffffffffff166108fc829081150290604051600060405180830381858888f19350505050158015610a1e573d6000803e3d6000fd5b5050565b610a2a611926565b6000600660006101000a81548160ff021916908315150217905550565b600660009054906101000a900460ff1681565b610a62611bec565b600080610a6f6002611902565b905060008190505b6000811115610bd5576000600760008381526020019081526020016000206040518060e001604052908160008201548152602001600182015481526020016002820160009054906101000a900473ffffffffffffffffffffffffffffffffffffffff1673ffffffffffffffffffffffffffffffffffffffff1673ffffffffffffffffffffffffffffffffffffffff1681526020016003820160009054906101000a900473ffffffffffffffffffffffffffffffffffffffff1673ffffffffffffffffffffffffffffffffffffffff1673ffffffffffffffffffffffffffffffffffffffff168152602001600482015481526020016005820160009054906101000a900460ff161515151581526020016005820160019054906101000a900460ff161515151581525050905085816020015114610bb35750610bc2565b80600194509450505050610be8565b8080610bcd90612891565b915050610a77565b50610bde611bec565b8060009350935050505b915091565b610bf5611926565b610bff60006119a4565b565b6060610c426040518060400160405280600681526020017f73656c6c6572000000000000000000000000000000000000000000000000000081525083611302565b9050919050565b6000600160009054906101000a900473ffffffffffffffffffffffffffffffffffffffff16905090565b60026000541415610cb9576040517f08c379a0000000000000000000000000000000000000000000000000000000008152600401610cb09061258a565b60405180910390fd5b600260008190555060006007600083815260200190815260200160002060010154905060008111610d1f576040517f08c379a0000000000000000000000000000000000000000000000000000000008152600401610d169061248a565b60405180910390fd5b3373ffffffffffffffffffffffffffffffffffffffff166007600084815260200190815260200160002060020160009054906101000a900473ffffffffffffffffffffffffffffffffffffffff1673ffffffffffffffffffffffffffffffffffffffff1614610dc3576040517f08c379a0000000000000000000000000000000000000000000000000000000008152600401610dba9061254a565b60405180910390fd5b336007600084815260200190815260200160002060030160006101000a81548173ffffffffffffffffffffffffffffffffffffffff021916908373ffffffffffffffffffffffffffffffffffffffff16021790555060016007600084815260200190815260200160002060050160016101000a81548160ff021916908315150217905550610e516004611910565b7f000000000000000000000000000000000000000000000000000000000000000073ffffffffffffffffffffffffffffffffffffffff1663a5f24d063033846040518463ffffffff1660e01b8152600401610eae939291906123c3565b600060405180830381600087803b158015610ec857600080fd5b505af1158015610edc573d6000803e3d6000fd5b5050505050600160008190555050565b610ef4611926565b6001600660006101000a81548160ff021916908315150217905550565b60026000541415610f57576040517f08c379a0000000000000000000000000000000000000000000000000000000008152600401610f4e9061258a565b60405180910390fd5b600260008190555060011515600660009054906101000a900460ff16151514610fb5576040517f08c379a0000000000000000000000000000000000000000000000000000000008152600401610fac906124ea565b60405180910390fd5b60006007600086815260200190815260200160002060040154905060006007600087815260200190815260200160002060010154905060055482610ff9919061276b565b341461103a576040517f08c379a00000000000000000000000000000000000000000000000000000000081526004016110319061256a565b60405180910390fd5b60016007600088815260200190815260200160002060050160006101000a81548160ff021916908315150217905550336007600088815260200190815260200160002060030160006101000a81548173ffffffffffffffffffffffffffffffffffffffff021916908373ffffffffffffffffffffffffffffffffffffffff1602179055506110c86003611910565b7f000000000000000000000000000000000000000000000000000000000000000073ffffffffffffffffffffffffffffffffffffffff166314a86a01600554838888886040518663ffffffff1660e01b815260040161112a94939291906125ef565b6000604051808303818588803b15801561114357600080fd5b505af1158015611157573d6000803e3d6000fd5b50505050506007600087815260200190815260200160002060020160009054906101000a900473ffffffffffffffffffffffffffffffffffffffff1673ffffffffffffffffffffffffffffffffffffffff166108fc839081150290604051600060405180830381858888f193505050501580156111d8573d6000803e3d6000fd5b507f000000000000000000000000000000000000000000000000000000000000000073ffffffffffffffffffffffffffffffffffffffff166323b872dd3033846040518463ffffffff1660e01b8152600401611236939291906123c3565b600060405180830381600087803b15801561125057600080fd5b505af1158015611264573d6000803e3d6000fd5b505050505050600160008190555050505050565b611280611926565b600073ffffffffffffffffffffffffffffffffffffffff168173ffffffffffffffffffffffffffffffffffffffff1614156112f0576040517f08c379a00000000000000000000000000000000000000000000000000000000081526004016112e7906124ca565b60405180910390fd5b6112f9816119a4565b50565b60055481565b6060611343836040518060400160405280600681526020017f73656c6c65720000000000000000000000000000000000000000000000000000815250611a6a565b806113895750611388836040518060400160405280600581526020017f6f776e6572000000000000000000000000000000000000000000000000000000815250611a6a565b5b6113c8576040517f08c379a00000000000000000000000000000000000000000000000000000000081526004016113bf9061252a565b60405180910390fd5b60006113d46002611902565b905060008060005b8381101561157f576000600760006001846113f7919061276b565b81526020019081526020016000209050600061151e826040518060e001604052908160008201548152602001600182015481526020016002820160009054906101000a900473ffffffffffffffffffffffffffffffffffffffff1673ffffffffffffffffffffffffffffffffffffffff1673ffffffffffffffffffffffffffffffffffffffff1681526020016003820160009054906101000a900473ffffffffffffffffffffffffffffffffffffffff1673ffffffffffffffffffffffffffffffffffffffff1673ffffffffffffffffffffffffffffffffffffffff168152602001600482015481526020016005820160009054906101000a900460ff161515151581526020016005820160019054906101000a900460ff1615151515815250508a611ac3565b90508773ffffffffffffffffffffffffffffffffffffffff168173ffffffffffffffffffffffffffffffffffffffff161461155a57505061156c565b600185611567919061276b565b945050505b8080611577906128ec565b9150506113dc565b5060008267ffffffffffffffff8111156115c2577f4e487b7100000000000000000000000000000000000000000000000000000000600052604160045260246000fd5b6040519080825280602002602001820160405280156115fb57816020015b6115e8611bec565b8152602001906001900390816115e05790505b50905060005b848110156118f45760006007600060018461161c919061276b565b815260200190815260200160002090506000611743826040518060e001604052908160008201548152602001600182015481526020016002820160009054906101000a900473ffffffffffffffffffffffffffffffffffffffff1673ffffffffffffffffffffffffffffffffffffffff1673ffffffffffffffffffffffffffffffffffffffff1681526020016003820160009054906101000a900473ffffffffffffffffffffffffffffffffffffffff1673ffffffffffffffffffffffffffffffffffffffff1673ffffffffffffffffffffffffffffffffffffffff168152602001600482015481526020016005820160009054906101000a900460ff161515151581526020016005820160019054906101000a900460ff1615151515815250508b611ac3565b90508873ffffffffffffffffffffffffffffffffffffffff168173ffffffffffffffffffffffffffffffffffffffff161461177f5750506118e1565b816040518060e001604052908160008201548152602001600182015481526020016002820160009054906101000a900473ffffffffffffffffffffffffffffffffffffffff1673ffffffffffffffffffffffffffffffffffffffff1673ffffffffffffffffffffffffffffffffffffffff1681526020016003820160009054906101000a900473ffffffffffffffffffffffffffffffffffffffff1673ffffffffffffffffffffffffffffffffffffffff1673ffffffffffffffffffffffffffffffffffffffff168152602001600482015481526020016005820160009054906101000a900460ff161515151581526020016005820160019054906101000a900460ff1615151515815250508486815181106118c4577f4e487b7100000000000000000000000000000000000000000000000000000000600052603260045260246000fd5b60200260200101819052506001856118dc919061276b565b945050505b80806118ec906128ec565b915050611601565b508094505050505092915050565b600081600001549050919050565b6001816000016000828254019250508190555050565b61192e611be4565b73ffffffffffffffffffffffffffffffffffffffff1661194c610c49565b73ffffffffffffffffffffffffffffffffffffffff16146119a2576040517f08c379a00000000000000000000000000000000000000000000000000000000081526004016119999061250a565b60405180910390fd5b565b6000600160009054906101000a900473ffffffffffffffffffffffffffffffffffffffff16905081600160006101000a81548173ffffffffffffffffffffffffffffffffffffffff021916908373ffffffffffffffffffffffffffffffffffffffff1602179055508173ffffffffffffffffffffffffffffffffffffffff168173ffffffffffffffffffffffffffffffffffffffff167f8be0079c531659141344cd1fd0a4f28419497f9722a3daafe3b4186f6b6457e060405160405180910390a35050565b600081604051602001611a7d9190612391565b6040516020818303038152906040528051906020012083604051602001611aa49190612391565b6040516020818303038152906040528051906020012014905092915050565b6000611b04826040518060400160405280600681526020017f73656c6c65720000000000000000000000000000000000000000000000000000815250611a6a565b80611b4a5750611b49826040518060400160405280600581526020017f6f776e6572000000000000000000000000000000000000000000000000000000815250611a6a565b5b611b89576040517f08c379a0000000000000000000000000000000000000000000000000000000008152600401611b809061252a565b60405180910390fd5b611bc8826040518060400160405280600681526020017f73656c6c65720000000000000000000000000000000000000000000000000000815250611a6a565b611bd6578260600151611bdc565b82604001515b905092915050565b600033905090565b6040518060e001604052806000815260200160008152602001600073ffffffffffffffffffffffffffffffffffffffff168152602001600073ffffffffffffffffffffffffffffffffffffffff168152602001600081526020016000151581526020016000151581525090565b6000611c6c611c678461265b565b612636565b905082815260208101848484011115611c8457600080fd5b611c8f84828561284f565b509392505050565b600081359050611ca681612b87565b92915050565b60008083601f840112611cbe57600080fd5b8235905067ffffffffffffffff811115611cd757600080fd5b602083019150836001820283011115611cef57600080fd5b9250929050565b600082601f830112611d0757600080fd5b8135611d17848260208601611c59565b91505092915050565b60006101008284031215611d3357600080fd5b81905092915050565b600081359050611d4b81612b9e565b92915050565b600060208284031215611d6357600080fd5b6000611d7184828501611c97565b91505092915050565b60008060408385031215611d8d57600080fd5b600083013567ffffffffffffffff811115611da757600080fd5b611db385828601611cf6565b9250506020611dc485828601611c97565b9150509250929050565b600060208284031215611de057600080fd5b6000611dee84828501611d3c565b91505092915050565b60008060008060608587031215611e0d57600080fd5b6000611e1b87828801611d3c565b945050602085013567ffffffffffffffff811115611e3857600080fd5b611e4487828801611cac565b9350935050604085013567ffffffffffffffff811115611e6357600080fd5b611e6f87828801611d20565b91505092959194509250565b60008060408385031215611e8e57600080fd5b6000611e9c85828601611d3c565b9250506020611ead85828601611d3c565b9150509250929050565b6000611ec38383612257565b60e08301905092915050565b611ed881612807565b82525050565b611ee7816127f5565b82525050565b6000611ef88261269c565b611f0281856126bf565b9350611f0d8361268c565b8060005b83811015611f3e578151611f258882611eb7565b9750611f30836126b2565b925050600181019050611f11565b5085935050505092915050565b611f5481612819565b82525050565b611f6381612819565b82525050565b6000611f7583856126d0565b9350611f8283858461284f565b611f8b83612993565b840190509392505050565b6000611fa283856126e1565b9350611faf83858461284f565b611fb883612993565b840190509392505050565b6000611fce826126a7565b611fd881856126f2565b9350611fe881856020860161285e565b80840191505092915050565b6000612001601a836126e1565b915061200c826129a4565b602082019050919050565b6000612024601c836126e1565b915061202f826129cd565b602082019050919050565b60006120476026836126e1565b9150612052826129f6565b604082019050919050565b600061206a6015836126e1565b915061207582612a45565b602082019050919050565b600061208d6020836126e1565b915061209882612a6e565b602082019050919050565b60006120b06025836126e1565b91506120bb82612a97565b604082019050919050565b60006120d36016836126e1565b91506120de82612ae6565b602082019050919050565b60006120f66025836126e1565b915061210182612b0f565b604082019050919050565b6000612119601f836126e1565b915061212482612b5e565b602082019050919050565b6000610100830161214360008401846126fd565b8583036000870152612156838284611f69565b9250505061216760208401846126fd565b858303602087015261217a838284611f69565b9250505061218b60408401846126fd565b858303604087015261219e838284611f69565b925050506121af60608401846126fd565b85830360608701526121c2838284611f69565b925050506121d36080840184612754565b6121e06080860182612373565b506121ee60a08401846126fd565b85830360a0870152612201838284611f69565b9250505061221260c08401846126fd565b85830360c0870152612225838284611f69565b9250505061223660e08401846126fd565b85830360e0870152612249838284611f69565b925050508091505092915050565b60e08201600082015161226d6000850182612373565b5060208201516122806020850182612373565b5060408201516122936040850182611ecf565b5060608201516122a66060850182611ecf565b5060808201516122b96080850182612373565b5060a08201516122cc60a0850182611f4b565b5060c08201516122df60c0850182611f4b565b50505050565b60e0820160008201516122fb6000850182612373565b50602082015161230e6020850182612373565b5060408201516123216040850182611ecf565b5060608201516123346060850182611ecf565b5060808201516123476080850182612373565b5060a082015161235a60a0850182611f4b565b5060c082015161236d60c0850182611f4b565b50505050565b61237c81612845565b82525050565b61238b81612845565b82525050565b600061239d8284611fc3565b915081905092915050565b60006020820190506123bd6000830184611ede565b92915050565b60006060820190506123d86000830186611ede565b6123e56020830185611ede565b6123f26040830184612382565b949350505050565b600060a08201905061240f6000830188611ede565b61241c6020830187611ede565b6124296040830186612382565b6124366060830185611f5a565b6124436080830184611f5a565b9695505050505050565b600060208201905081810360008301526124678184611eed565b905092915050565b60006020820190506124846000830184611f5a565b92915050565b600060208201905081810360008301526124a381611ff4565b9050919050565b600060208201905081810360008301526124c381612017565b9050919050565b600060208201905081810360008301526124e38161203a565b9050919050565b600060208201905081810360008301526125038161205d565b9050919050565b6000602082019050818103600083015261252381612080565b9050919050565b60006020820190508181036000830152612543816120a3565b9050919050565b60006020820190508181036000830152612563816120c6565b9050919050565b60006020820190508181036000830152612583816120e9565b9050919050565b600060208201905081810360008301526125a38161210c565b9050919050565b6000610100820190506125c060008301856122e5565b6125cd60e0830184611f5a565b9392505050565b60006020820190506125e96000830184612382565b92915050565b60006060820190506126046000830187612382565b8181036020830152612617818587611f96565b9050818103604083015261262b818461212f565b905095945050505050565b6000612640612651565b905061264c82826128bb565b919050565b6000604051905090565b600067ffffffffffffffff82111561267657612675612964565b5b61267f82612993565b9050602081019050919050565b6000819050602082019050919050565b600081519050919050565b600081519050919050565b6000602082019050919050565b600082825260208201905092915050565b600082825260208201905092915050565b600082825260208201905092915050565b600081905092915050565b6000808335600160200384360303811261271657600080fd5b83810192508235915060208301925067ffffffffffffffff82111561273a57600080fd5b60018202360384131561274c57600080fd5b509250929050565b60006127636020840184611d3c565b905092915050565b600061277682612845565b915061278183612845565b9250827fffffffffffffffffffffffffffffffffffffffffffffffffffffffffffffffff038211156127b6576127b5612935565b5b828201905092915050565b60006127cc82612845565b91506127d783612845565b9250828210156127ea576127e9612935565b5b828203905092915050565b600061280082612825565b9050919050565b600061281282612825565b9050919050565b60008115159050919050565b600073ffffffffffffffffffffffffffffffffffffffff82169050919050565b6000819050919050565b82818337600083830152505050565b60005b8381101561287c578082015181840152602081019050612861565b8381111561288b576000848401525b50505050565b600061289c82612845565b915060008214156128b0576128af612935565b5b600182039050919050565b6128c482612993565b810181811067ffffffffffffffff821117156128e3576128e2612964565b5b80604052505050565b60006128f782612845565b91507fffffffffffffffffffffffffffffffffffffffffffffffffffffffffffffffff82141561292a57612929612935565b5b600182019050919050565b7f4e487b7100000000000000000000000000000000000000000000000000000000600052601160045260246000fd5b7f4e487b7100000000000000000000000000000000000000000000000000000000600052604160045260246000fd5b6000601f19601f8301169050919050565b7f4d61726b6574206974656d20646f6573206e6f74206578697374000000000000600082015250565b7f427573696e65737320436172647320617265206e6f7420667265652100000000600082015250565b7f4f776e61626c653a206e6577206f776e657220697320746865207a65726f206160008201527f6464726573730000000000000000000000000000000000000000000000000000602082015250565b7f4d61726b6574706c616365206973207061757365640000000000000000000000600082015250565b7f4f776e61626c653a2063616c6c6572206973206e6f7420746865206f776e6572600082015250565b7f506172616d65746572206d757374206265202773656c6c657227206f7220276f60008201527f776e657227000000000000000000000000000000000000000000000000000000602082015250565b7f596f7520617265206e6f74207468652073656c6c657200000000000000000000600082015250565b7f5061796d656e74206d75737420626520707269636520706c7573206f7261636c60008201527f6520666565000000000000000000000000000000000000000000000000000000602082015250565b7f5265656e7472616e637947756172643a207265656e7472616e742063616c6c00600082015250565b612b90816127f5565b8114612b9b57600080fd5b50565b612ba781612845565b8114612bb257600080fd5b5056fea2646970667358221220262c5fd798bebdd955578501e6f7de95ad31feb8d81b62419f44f7663c80934364736f6c63430008040033",
  "linkReferences": {},
  "deployedLinkReferences": {}
}