{
  "_format": "hh-sol-artifact-1",
  "contractName": "SoulboundCard",
  "sourceName": "contracts/SoulboundCard.sol",
  "abi": [
    {
      "inputs": [
        {
          "internalType": "string",
          "name": "name_",
          "type": "string"
        },
        {
          "internalType": "string",
          "name": "symbol_",
          "type": "string"
        },
        {
          "internalType": "address",
          "name": "_bCard",
          "type": "address"
        }
      ],
      "stateMutability": "nonpayable",
      "type": "constructor"
    },
    {
      "anonymous": false,
      "inputs": [
        {
          "indexed": true,
          "internalType": "address",
          "name": "owner",
          "type": "address"
        },
        {
          "indexed": true,
          "internalType": "address",
          "name": "approved",
          "type": "address"
        },
        {
          "indexed": true,
          "internalType": "uint256",
          "name": "tokenId",
          "type": "uint256"
        }
      ],
      "name": "Approval",
      "type": "event"
    },
    {
      "anonymous": false,
      "inputs": [
        {
          "indexed": true,
          "internalType": "address",
          "name": "owner",
          "type": "address"
        },
        {
          "indexed": true,
          "internalType": "address",
          "name": "operator",
          "type": "address"
        },
        {
          "indexed": false,
          "internalType": "bool",
          "name": "approved",
          "type": "bool"
        }
      ],
      "name": "ApprovalForAll",
      "type": "event"
    },
    {
      "anonymous": false,
      "inputs": [
        {
          "indexed": true,
          "internalType": "address",
          "name": "previousOwner",
          "type": "address"
        },
        {
          "indexed": true,
          "internalType": "address",
          "name": "newOwner",
          "type": "address"
        }
      ],
      "name": "OwnershipTransferred",
      "type": "event"
    },
    {
      "anonymous": false,
      "inputs": [
        {
          "indexed": true,
          "internalType": "address",
          "name": "from",
          "type": "address"
        },
        {
          "indexed": true,
          "internalType": "address",
          "name": "to",
          "type": "address"
        },
        {
          "indexed": true,
          "internalType": "uint256",
          "name": "tokenId",
          "type": "uint256"
        }
      ],
      "name": "Transfer",
      "type": "event"
    },
    {
      "inputs": [
        {
          "internalType": "address",
          "name": "",
          "type": "address"
        },
        {
          "internalType": "uint256",
          "name": "",
          "type": "uint256"
        }
      ],
      "name": "approve",
      "outputs": [],
      "stateMutability": "pure",
      "type": "function"
    },
    {
      "inputs": [
        {
          "internalType": "address",
          "name": "_owner",
          "type": "address"
        }
      ],
      "name": "balanceOf",
      "outputs": [
        {
          "internalType": "uint256",
          "name": "",
          "type": "uint256"
        }
      ],
      "stateMutability": "view",
      "type": "function"
    },
    {
      "inputs": [
        {
          "internalType": "uint256",
          "name": "tokenId",
          "type": "uint256"
        }
      ],
      "name": "burnAllSoulboundCardsOfToken",
      "outputs": [],
      "stateMutability": "nonpayable",
      "type": "function"
    },
    {
      "inputs": [
        {
          "internalType": "address",
          "name": "receiver",
          "type": "address"
        },
        {
          "internalType": "uint256[]",
          "name": "toBurn",
          "type": "uint256[]"
        }
      ],
      "name": "burnReceivedSoulboundCards",
      "outputs": [],
      "stateMutability": "nonpayable",
      "type": "function"
    },
    {
      "inputs": [
        {
          "internalType": "address",
          "name": "receiver",
          "type": "address"
        },
        {
          "internalType": "uint256",
          "name": "toBurn",
          "type": "uint256"
        }
      ],
      "name": "burnSoulboundCard",
      "outputs": [],
      "stateMutability": "nonpayable",
      "type": "function"
    },
    {
      "inputs": [
        {
          "internalType": "uint256",
          "name": "tokenId",
          "type": "uint256"
        },
        {
          "internalType": "address[]",
          "name": "toBurn",
          "type": "address[]"
        }
      ],
      "name": "burnSoulboundCardsOfToken",
      "outputs": [],
      "stateMutability": "nonpayable",
      "type": "function"
    },
    {
      "inputs": [
        {
          "internalType": "uint256",
          "name": "tokenId",
          "type": "uint256"
        }
      ],
      "name": "getApproved",
      "outputs": [
        {
          "internalType": "address",
          "name": "",
          "type": "address"
        }
      ],
      "stateMutability": "view",
      "type": "function"
    },
    {
      "inputs": [
        {
          "internalType": "address",
          "name": "owner",
          "type": "address"
        },
        {
          "internalType": "address",
          "name": "operator",
          "type": "address"
        }
      ],
      "name": "isApprovedForAll",
      "outputs": [
        {
          "internalType": "bool",
          "name": "",
          "type": "bool"
        }
      ],
      "stateMutability": "view",
      "type": "function"
    },
    {
      "inputs": [
        {
          "internalType": "address",
          "name": "receiver",
          "type": "address"
        }
      ],
      "name": "isBlacklisted",
      "outputs": [
        {
          "internalType": "bool",
          "name": "blacklisted",
          "type": "bool"
        }
      ],
      "stateMutability": "view",
      "type": "function"
    },
    {
      "inputs": [],
      "name": "name",
      "outputs": [
        {
          "internalType": "string",
          "name": "",
          "type": "string"
        }
      ],
      "stateMutability": "view",
      "type": "function"
    },
    {
      "inputs": [],
      "name": "owner",
      "outputs": [
        {
          "internalType": "address",
          "name": "",
          "type": "address"
        }
      ],
      "stateMutability": "view",
      "type": "function"
    },
    {
      "inputs": [
        {
          "internalType": "uint256",
          "name": "_tokenId",
          "type": "uint256"
        }
      ],
      "name": "ownerOf",
      "outputs": [
        {
          "internalType": "address",
          "name": "",
          "type": "address"
        }
      ],
      "stateMutability": "view",
      "type": "function"
    },
    {
      "inputs": [
        {
          "internalType": "address",
          "name": "receiver",
          "type": "address"
        }
      ],
      "name": "receivedSoulboundCards",
      "outputs": [
        {
          "internalType": "uint256[]",
          "name": "",
          "type": "uint256[]"
        }
      ],
      "stateMutability": "view",
      "type": "function"
    },
    {
      "inputs": [],
      "name": "renounceOwnership",
      "outputs": [],
      "stateMutability": "nonpayable",
      "type": "function"
    },
    {
      "inputs": [
        {
          "internalType": "address",
          "name": "from",
          "type": "address"
        },
        {
          "internalType": "address",
          "name": "to",
          "type": "address"
        },
        {
          "internalType": "uint256",
          "name": "tokenId",
          "type": "uint256"
        }
      ],
      "name": "safeTransferFrom",
      "outputs": [],
      "stateMutability": "nonpayable",
      "type": "function"
    },
    {
      "inputs": [
        {
          "internalType": "address",
          "name": "",
          "type": "address"
        },
        {
          "internalType": "address",
          "name": "",
          "type": "address"
        },
        {
          "internalType": "uint256",
          "name": "",
          "type": "uint256"
        },
        {
          "internalType": "bytes",
          "name": "",
          "type": "bytes"
        }
      ],
      "name": "safeTransferFrom",
      "outputs": [],
      "stateMutability": "pure",
      "type": "function"
    },
    {
      "inputs": [
        {
          "internalType": "address",
          "name": "from",
          "type": "address"
        },
        {
          "internalType": "address",
          "name": "receiver",
          "type": "address"
        },
        {
          "internalType": "uint256",
          "name": "tokenId",
          "type": "uint256"
        }
      ],
      "name": "sendSoulboundCard",
      "outputs": [],
      "stateMutability": "nonpayable",
      "type": "function"
    },
    {
      "inputs": [
        {
          "internalType": "address",
          "name": "",
          "type": "address"
        },
        {
          "internalType": "bool",
          "name": "",
          "type": "bool"
        }
      ],
      "name": "setApprovalForAll",
      "outputs": [],
      "stateMutability": "pure",
      "type": "function"
    },
    {
      "inputs": [
        {
          "internalType": "address",
          "name": "receiver",
          "type": "address"
        },
        {
          "internalType": "bool",
          "name": "blacklist",
          "type": "bool"
        }
      ],
      "name": "setBlacklistForAddress",
      "outputs": [],
      "stateMutability": "nonpayable",
      "type": "function"
    },
    {
      "inputs": [
        {
          "internalType": "uint256",
          "name": "tokenId",
          "type": "uint256"
        }
      ],
      "name": "soulboundCardReceivers",
      "outputs": [
        {
          "internalType": "address[]",
          "name": "",
          "type": "address[]"
        }
      ],
      "stateMutability": "view",
      "type": "function"
    },
    {
      "inputs": [
        {
          "internalType": "bytes4",
          "name": "interfaceId",
          "type": "bytes4"
        }
      ],
      "name": "supportsInterface",
      "outputs": [
        {
          "internalType": "bool",
          "name": "",
          "type": "bool"
        }
      ],
      "stateMutability": "view",
      "type": "function"
    },
    {
      "inputs": [],
      "name": "symbol",
      "outputs": [
        {
          "internalType": "string",
          "name": "",
          "type": "string"
        }
      ],
      "stateMutability": "view",
      "type": "function"
    },
    {
      "inputs": [
        {
          "internalType": "uint256",
          "name": "index",
          "type": "uint256"
        }
      ],
      "name": "tokenByIndex",
      "outputs": [
        {
          "internalType": "uint256",
          "name": "",
          "type": "uint256"
        }
      ],
      "stateMutability": "view",
      "type": "function"
    },
    {
      "inputs": [
        {
          "internalType": "address",
          "name": "_owner",
          "type": "address"
        },
        {
          "internalType": "uint256",
          "name": "index",
          "type": "uint256"
        }
      ],
      "name": "tokenOfOwnerByIndex",
      "outputs": [
        {
          "internalType": "uint256",
          "name": "",
          "type": "uint256"
        }
      ],
      "stateMutability": "view",
      "type": "function"
    },
    {
      "inputs": [
        {
          "internalType": "uint256",
          "name": "tokenId",
          "type": "uint256"
        }
      ],
      "name": "tokenURI",
      "outputs": [
        {
          "internalType": "string",
          "name": "",
          "type": "string"
        }
      ],
      "stateMutability": "view",
      "type": "function"
    },
    {
      "inputs": [],
      "name": "totalSupply",
      "outputs": [
        {
          "internalType": "uint256",
          "name": "count",
          "type": "uint256"
        }
      ],
      "stateMutability": "view",
      "type": "function"
    },
    {
      "inputs": [
        {
          "internalType": "address",
          "name": "",
          "type": "address"
        },
        {
          "internalType": "address",
          "name": "",
          "type": "address"
        },
        {
          "internalType": "uint256",
          "name": "",
          "type": "uint256"
        }
      ],
      "name": "transferFrom",
      "outputs": [],
      "stateMutability": "pure",
      "type": "function"
    },
    {
      "inputs": [
        {
          "internalType": "address",
          "name": "newOwner",
          "type": "address"
        }
      ],
      "name": "transferOwnership",
      "outputs": [],
      "stateMutability": "nonpayable",
      "type": "function"
    }
  ],
  "bytecode": "0x60806040523480156200001157600080fd5b5060405162003e3638038062003e368339818101604052810190620000379190620003fa565b620000576200004b6200011b60201b60201c565b6200012360201b60201c565b82600590805190602001906200006f929190620002c1565b50816006908051906020019062000088929190620002c1565b5080600760006101000a81548173ffffffffffffffffffffffffffffffffffffffff021916908373ffffffffffffffffffffffffffffffffffffffff160217905550620000e26380ac58cd60e01b620001e960201b60201c565b620000fa635b5e139f60e01b620001e960201b60201c565b6200011263780e9d6360e01b620001e960201b60201c565b505050620006c3565b600033905090565b6000600160009054906101000a900473ffffffffffffffffffffffffffffffffffffffff16905081600160006101000a81548173ffffffffffffffffffffffffffffffffffffffff021916908373ffffffffffffffffffffffffffffffffffffffff1602179055508173ffffffffffffffffffffffffffffffffffffffff168173ffffffffffffffffffffffffffffffffffffffff167f8be0079c531659141344cd1fd0a4f28419497f9722a3daafe3b4186f6b6457e060405160405180910390a35050565b63ffffffff60e01b817bffffffffffffffffffffffffffffffffffffffffffffffffffffffff1916141562000255576040517f08c379a00000000000000000000000000000000000000000000000000000000081526004016200024c90620004a9565b60405180910390fd5b6001600080837bffffffffffffffffffffffffffffffffffffffffffffffffffffffff19167bffffffffffffffffffffffffffffffffffffffffffffffffffffffff1916815260200190815260200160002060006101000a81548160ff02191690831515021790555050565b828054620002cf90620005a5565b90600052602060002090601f016020900481019282620002f357600085556200033f565b82601f106200030e57805160ff19168380011785556200033f565b828001600101855582156200033f579182015b828111156200033e57825182559160200191906001019062000321565b5b5090506200034e919062000352565b5090565b5b808211156200036d57600081600090555060010162000353565b5090565b6000620003886200038284620004f4565b620004cb565b905082815260208101848484011115620003a157600080fd5b620003ae8482856200056f565b509392505050565b600081519050620003c781620006a9565b92915050565b600082601f830112620003df57600080fd5b8151620003f184826020860162000371565b91505092915050565b6000806000606084860312156200041057600080fd5b600084015167ffffffffffffffff8111156200042b57600080fd5b6200043986828701620003cd565b935050602084015167ffffffffffffffff8111156200045757600080fd5b6200046586828701620003cd565b92505060406200047886828701620003b6565b9150509250925092565b600062000491601c836200052a565b91506200049e8262000680565b602082019050919050565b60006020820190508181036000830152620004c48162000482565b9050919050565b6000620004d7620004ea565b9050620004e58282620005db565b919050565b6000604051905090565b600067ffffffffffffffff82111562000512576200051162000640565b5b6200051d826200066f565b9050602081019050919050565b600082825260208201905092915050565b600062000548826200054f565b9050919050565b600073ffffffffffffffffffffffffffffffffffffffff82169050919050565b60005b838110156200058f57808201518184015260208101905062000572565b838111156200059f576000848401525b50505050565b60006002820490506001821680620005be57607f821691505b60208210811415620005d557620005d462000611565b5b50919050565b620005e6826200066f565b810181811067ffffffffffffffff8211171562000608576200060762000640565b5b80604052505050565b7f4e487b7100000000000000000000000000000000000000000000000000000000600052602260045260246000fd5b7f4e487b7100000000000000000000000000000000000000000000000000000000600052604160045260246000fd5b6000601f19601f8301169050919050565b7f4552433136353a20696e76616c696420696e7465726661636520696400000000600082015250565b620006b4816200053b565b8114620006c057600080fd5b50565b61376380620006d36000396000f3fe608060405234801561001057600080fd5b50600436106101c45760003560e01c8063715018a6116100f9578063b88d4fde11610097578063ca3c5c0711610071578063ca3c5c0714610513578063e985e9c51461052f578063f2fde38b1461055f578063fe575a871461057b576101c4565b8063b88d4fde146104ab578063b9473538146104c7578063c87b56dd146104e3576101c4565b80638da5cb5b116100d35780638da5cb5b14610423578063947aea3b1461044157806395d89b4114610471578063a22cb4651461048f576101c4565b8063715018a6146103e157806373f8c0e8146103eb5780638777a38e14610407576101c4565b80632f745c59116101665780634f6ccce7116101405780634f6ccce7146103355780636352211e14610365578063667b70621461039557806370a08231146103b1576101c4565b80632f745c59146102b95780633701e582146102e957806342842e0e14610319576101c4565b8063095ea7b3116101a2578063095ea7b31461024757806318160ddd1461026357806323b872dd1461028157806329759ae91461029d576101c4565b806301ffc9a7146101c957806306fdde03146101f9578063081812fc14610217575b600080fd5b6101e360048036038101906101de91906126da565b6105ab565b6040516101f09190612c39565b60405180910390f35b610201610622565b60405161020e9190612c54565b60405180910390f35b610231600480360381019061022c9190612744565b6106b4565b60405161023e9190612bb1565b60405180910390f35b610261600480360381019061025c9190612675565b610768565b005b61026b6107a3565b6040516102789190612e96565b60405180910390f35b61029b60048036038101906102969190612517565b610894565b005b6102b760048036038101906102b29190612675565b6108cf565b005b6102d360048036038101906102ce9190612675565b6109ec565b6040516102e09190612e96565b60405180910390f35b61030360048036038101906102fe9190612489565b610a91565b6040516103109190612c17565b60405180910390f35b610333600480360381019061032e9190612517565b610ae1565b005b61034f600480360381019061034a9190612744565b610b01565b60405161035c9190612e96565b60405180910390f35b61037f600480360381019061037a9190612744565b610bb5565b60405161038c9190612bb1565b60405180910390f35b6103af60048036038101906103aa9190612796565b610c69565b005b6103cb60048036038101906103c69190612489565b610d8e565b6040516103d89190612e96565b60405180910390f35b6103e9610e4d565b005b61040560048036038101906104009190612517565b610e61565b005b610421600480360381019061041c91906125e1565b611297565b005b61042b61138a565b6040516104389190612bb1565b60405180910390f35b61045b60048036038101906104569190612744565b6113b4565b6040516104689190612bf5565b60405180910390f35b6104796113d8565b6040516104869190612c54565b60405180910390f35b6104a960048036038101906104a49190612639565b61146a565b005b6104c560048036038101906104c09190612566565b6114a5565b005b6104e160048036038101906104dc9190612639565b6114e0565b005b6104fd60048036038101906104f89190612744565b6115ba565b60405161050a9190612c54565b60405180910390f35b61052d60048036038101906105289190612744565b611673565b005b610549600480360381019061054491906124db565b6117a7565b6040516105569190612c39565b60405180910390f35b61057960048036038101906105749190612489565b61185e565b005b61059560048036038101906105909190612489565b6118e2565b6040516105a29190612c39565b60405180910390f35b60006105b682611938565b8061061b5750600080837bffffffffffffffffffffffffffffffffffffffffffffffffffffffff19167bffffffffffffffffffffffffffffffffffffffffffffffffffffffff1916815260200190815260200160002060009054906101000a900460ff165b9050919050565b60606005805461063190613106565b80601f016020809104026020016040519081016040528092919081815260200182805461065d90613106565b80156106aa5780601f1061067f576101008083540402835291602001916106aa565b820191906000526020600020905b81548152906001019060200180831161068d57829003601f168201915b5050505050905090565b6000600760009054906101000a900473ffffffffffffffffffffffffffffffffffffffff1673ffffffffffffffffffffffffffffffffffffffff1663081812fc836040518263ffffffff1660e01b81526004016107119190612e96565b60206040518083038186803b15801561072957600080fd5b505afa15801561073d573d6000803e3d6000fd5b505050506040513d601f19601f8201168201806040525081019061076191906124b2565b9050919050565b6040517f08c379a000000000000000000000000000000000000000000000000000000000815260040161079a90612cf6565b60405180910390fd5b600080600760009054906101000a900473ffffffffffffffffffffffffffffffffffffffff1673ffffffffffffffffffffffffffffffffffffffff166318160ddd6040518163ffffffff1660e01b815260040160206040518083038186803b15801561080e57600080fd5b505afa158015610822573d6000803e3d6000fd5b505050506040513d601f19601f82011682018060405250810190610846919061276d565b90506000600190505b81811161088f57610871600360008381526020019081526020016000206119a2565b8361087c9190612fc6565b92508061088890613169565b905061084f565b505090565b6040517f08c379a00000000000000000000000000000000000000000000000000000000081526004016108c690612db6565b60405180910390fd5b8173ffffffffffffffffffffffffffffffffffffffff163373ffffffffffffffffffffffffffffffffffffffff16148061090f575061090e33826119b7565b5b61094e576040517f08c379a000000000000000000000000000000000000000000000000000000000815260040161094590612cb6565b60405180910390fd5b61099f81600260008573ffffffffffffffffffffffffffffffffffffffff1673ffffffffffffffffffffffffffffffffffffffff168152602001908152602001600020611c3390919063ffffffff16565b6109de576040517f08c379a00000000000000000000000000000000000000000000000000000000081526004016109d590612d16565b60405180910390fd5b6109e88282611c4d565b5050565b60006109f783610d8e565b8210610a38576040517f08c379a0000000000000000000000000000000000000000000000000000000008152600401610a2f90612e16565b60405180910390fd5b610a8982600260008673ffffffffffffffffffffffffffffffffffffffff1673ffffffffffffffffffffffffffffffffffffffff168152602001908152602001600020611d6a90919063ffffffff16565b905092915050565b6060610ada600260008473ffffffffffffffffffffffffffffffffffffffff1673ffffffffffffffffffffffffffffffffffffffff168152602001908152602001600020611d84565b9050919050565b610afc838383604051806020016040528060008152506114a5565b505050565b6000600760009054906101000a900473ffffffffffffffffffffffffffffffffffffffff1673ffffffffffffffffffffffffffffffffffffffff16634f6ccce7836040518263ffffffff1660e01b8152600401610b5e9190612e96565b60206040518083038186803b158015610b7657600080fd5b505afa158015610b8a573d6000803e3d6000fd5b505050506040513d601f19601f82011682018060405250810190610bae919061276d565b9050919050565b6000600760009054906101000a900473ffffffffffffffffffffffffffffffffffffffff1673ffffffffffffffffffffffffffffffffffffffff16636352211e836040518263ffffffff1660e01b8152600401610c129190612e96565b60206040518083038186803b158015610c2a57600080fd5b505afa158015610c3e573d6000803e3d6000fd5b505050506040513d601f19601f82011682018060405250810190610c6291906124b2565b9050919050565b600760009054906101000a900473ffffffffffffffffffffffffffffffffffffffff1673ffffffffffffffffffffffffffffffffffffffff163373ffffffffffffffffffffffffffffffffffffffff161480610ccb5750610cca33846119b7565b5b610d0a576040517f08c379a0000000000000000000000000000000000000000000000000000000008152600401610d0190612c76565b60405180910390fd5b60005b82829050811015610d88576000838383818110610d53577f4e487b7100000000000000000000000000000000000000000000000000000000600052603260045260246000fd5b9050602002016020810190610d689190612489565b9050610d748186611c4d565b508080610d8090613169565b915050610d0d565b50505050565b60008073ffffffffffffffffffffffffffffffffffffffff168273ffffffffffffffffffffffffffffffffffffffff161415610dff576040517f08c379a0000000000000000000000000000000000000000000000000000000008152600401610df690612d36565b60405180910390fd5b610e46600260008473ffffffffffffffffffffffffffffffffffffffff1673ffffffffffffffffffffffffffffffffffffffff168152602001908152602001600020611da5565b9050919050565b610e55611dba565b610e5f6000611e38565b565b610e6b33826119b7565b610eaa576040517f08c379a0000000000000000000000000000000000000000000000000000000008152600401610ea190612cb6565b60405180910390fd5b8273ffffffffffffffffffffffffffffffffffffffff16600760009054906101000a900473ffffffffffffffffffffffffffffffffffffffff1673ffffffffffffffffffffffffffffffffffffffff16636352211e836040518263ffffffff1660e01b8152600401610f1c9190612e96565b60206040518083038186803b158015610f3457600080fd5b505afa158015610f48573d6000803e3d6000fd5b505050506040513d601f19601f82011682018060405250810190610f6c91906124b2565b73ffffffffffffffffffffffffffffffffffffffff1614610fc2576040517f08c379a0000000000000000000000000000000000000000000000000000000008152600401610fb990612e36565b60405180910390fd5b600073ffffffffffffffffffffffffffffffffffffffff168273ffffffffffffffffffffffffffffffffffffffff161415611032576040517f08c379a000000000000000000000000000000000000000000000000000000000815260040161102990612d76565b60405180910390fd5b8273ffffffffffffffffffffffffffffffffffffffff168273ffffffffffffffffffffffffffffffffffffffff1614156110a1576040517f08c379a000000000000000000000000000000000000000000000000000000000815260040161109890612d56565b60405180910390fd5b600460008373ffffffffffffffffffffffffffffffffffffffff1673ffffffffffffffffffffffffffffffffffffffff16815260200190815260200160002060009054906101000a900460ff161561112e576040517f08c379a000000000000000000000000000000000000000000000000000000000815260040161112590612e56565b60405180910390fd5b61117f81600260008573ffffffffffffffffffffffffffffffffffffffff1673ffffffffffffffffffffffffffffffffffffffff168152602001908152602001600020611c3390919063ffffffff16565b156111bf576040517f08c379a00000000000000000000000000000000000000000000000000000000081526004016111b690612cd6565b60405180910390fd5b61121081600260008573ffffffffffffffffffffffffffffffffffffffff1673ffffffffffffffffffffffffffffffffffffffff168152602001908152602001600020611efe90919063ffffffff16565b506112368260036000848152602001908152602001600020611f1890919063ffffffff16565b50808273ffffffffffffffffffffffffffffffffffffffff168473ffffffffffffffffffffffffffffffffffffffff167fddf252ad1be2c89b69c2b068fc378daa952ba7f163c4a11628f55a4df523b3ef60405160405180910390a4505050565b8273ffffffffffffffffffffffffffffffffffffffff163373ffffffffffffffffffffffffffffffffffffffff1614806112d757506112d683336117a7565b5b611316576040517f08c379a000000000000000000000000000000000000000000000000000000000815260040161130d90612e76565b60405180910390fd5b60005b8282905081101561138457600083838381811061135f577f4e487b7100000000000000000000000000000000000000000000000000000000600052603260045260246000fd5b9050602002013590506113728582611c4d565b508061137d90613169565b9050611319565b50505050565b6000600160009054906101000a900473ffffffffffffffffffffffffffffffffffffffff16905090565b60606113d160036000848152602001908152602001600020611f48565b9050919050565b6060600680546113e790613106565b80601f016020809104026020016040519081016040528092919081815260200182805461141390613106565b80156114605780601f1061143557610100808354040283529160200191611460565b820191906000526020600020905b81548152906001019060200180831161144357829003601f168201915b5050505050905090565b6040517f08c379a000000000000000000000000000000000000000000000000000000000815260040161149c90612cf6565b60405180910390fd5b6040517f08c379a00000000000000000000000000000000000000000000000000000000081526004016114d790612db6565b60405180910390fd5b8173ffffffffffffffffffffffffffffffffffffffff163373ffffffffffffffffffffffffffffffffffffffff161480611520575061151f82336117a7565b5b61155f576040517f08c379a000000000000000000000000000000000000000000000000000000000815260040161155690612dd6565b60405180910390fd5b80600460008473ffffffffffffffffffffffffffffffffffffffff1673ffffffffffffffffffffffffffffffffffffffff16815260200190815260200160002060006101000a81548160ff0219169083151502179055505050565b6060600760009054906101000a900473ffffffffffffffffffffffffffffffffffffffff1673ffffffffffffffffffffffffffffffffffffffff1663c87b56dd836040518263ffffffff1660e01b81526004016116179190612e96565b60006040518083038186803b15801561162f57600080fd5b505afa158015611643573d6000803e3d6000fd5b505050506040513d6000823e3d601f19601f8201168201806040525081019061166c9190612703565b9050919050565b600760009054906101000a900473ffffffffffffffffffffffffffffffffffffffff1673ffffffffffffffffffffffffffffffffffffffff163373ffffffffffffffffffffffffffffffffffffffff1614806116d557506116d433826119b7565b5b611714576040517f08c379a000000000000000000000000000000000000000000000000000000000815260040161170b90612c76565b60405180910390fd5b600061173160036000848152602001908152602001600020611f48565b905060005b81518110156117a257600082828151811061177a577f4e487b7100000000000000000000000000000000000000000000000000000000600052603260045260246000fd5b6020026020010151905061178e8185611c4d565b50808061179a90613169565b915050611736565b505050565b6000600760009054906101000a900473ffffffffffffffffffffffffffffffffffffffff1673ffffffffffffffffffffffffffffffffffffffff1663e985e9c584846040518363ffffffff1660e01b8152600401611806929190612bcc565b60206040518083038186803b15801561181e57600080fd5b505afa158015611832573d6000803e3d6000fd5b505050506040513d601f19601f8201168201806040525081019061185691906126b1565b905092915050565b611866611dba565b600073ffffffffffffffffffffffffffffffffffffffff168173ffffffffffffffffffffffffffffffffffffffff1614156118d6576040517f08c379a00000000000000000000000000000000000000000000000000000000081526004016118cd90612c96565b60405180910390fd5b6118df81611e38565b50565b6000600460008373ffffffffffffffffffffffffffffffffffffffff1673ffffffffffffffffffffffffffffffffffffffff16815260200190815260200160002060009054906101000a900460ff169050919050565b60007f01ffc9a7000000000000000000000000000000000000000000000000000000007bffffffffffffffffffffffffffffffffffffffffffffffffffffffff1916827bffffffffffffffffffffffffffffffffffffffffffffffffffffffff1916149050919050565b60006119b082600001611f69565b9050919050565b600080600760009054906101000a900473ffffffffffffffffffffffffffffffffffffffff1673ffffffffffffffffffffffffffffffffffffffff16636352211e846040518263ffffffff1660e01b8152600401611a159190612e96565b60206040518083038186803b158015611a2d57600080fd5b505afa158015611a41573d6000803e3d6000fd5b505050506040513d601f19601f82011682018060405250810190611a6591906124b2565b90508073ffffffffffffffffffffffffffffffffffffffff168473ffffffffffffffffffffffffffffffffffffffff161480611b7657508373ffffffffffffffffffffffffffffffffffffffff16600760009054906101000a900473ffffffffffffffffffffffffffffffffffffffff1673ffffffffffffffffffffffffffffffffffffffff1663081812fc856040518263ffffffff1660e01b8152600401611b0e9190612e96565b60206040518083038186803b158015611b2657600080fd5b505afa158015611b3a573d6000803e3d6000fd5b505050506040513d601f19601f82011682018060405250810190611b5e91906124b2565b73ffffffffffffffffffffffffffffffffffffffff16145b80611c2a5750600760009054906101000a900473ffffffffffffffffffffffffffffffffffffffff1673ffffffffffffffffffffffffffffffffffffffff1663e985e9c582866040518363ffffffff1660e01b8152600401611bd9929190612bcc565b60206040518083038186803b158015611bf157600080fd5b505afa158015611c05573d6000803e3d6000fd5b505050506040513d601f19601f82011682018060405250810190611c2991906126b1565b5b91505092915050565b6000611c45836000018360001b611f7a565b905092915050565b611c9e81600260008573ffffffffffffffffffffffffffffffffffffffff1673ffffffffffffffffffffffffffffffffffffffff168152602001908152602001600020611f9d90919063ffffffff16565b8015611ccb5750611cca8260036000848152602001908152602001600020611fb790919063ffffffff16565b5b611d0a576040517f08c379a0000000000000000000000000000000000000000000000000000000008152600401611d0190612df6565b60405180910390fd5b80600073ffffffffffffffffffffffffffffffffffffffff168373ffffffffffffffffffffffffffffffffffffffff167fddf252ad1be2c89b69c2b068fc378daa952ba7f163c4a11628f55a4df523b3ef60405160405180910390a45050565b6000611d798360000183611fe7565b60001c905092915050565b60606000611d9483600001612038565b905060608190508092505050919050565b6000611db382600001611f69565b9050919050565b611dc2612094565b73ffffffffffffffffffffffffffffffffffffffff16611de061138a565b73ffffffffffffffffffffffffffffffffffffffff1614611e36576040517f08c379a0000000000000000000000000000000000000000000000000000000008152600401611e2d90612d96565b60405180910390fd5b565b6000600160009054906101000a900473ffffffffffffffffffffffffffffffffffffffff16905081600160006101000a81548173ffffffffffffffffffffffffffffffffffffffff021916908373ffffffffffffffffffffffffffffffffffffffff1602179055508173ffffffffffffffffffffffffffffffffffffffff168173ffffffffffffffffffffffffffffffffffffffff167f8be0079c531659141344cd1fd0a4f28419497f9722a3daafe3b4186f6b6457e060405160405180910390a35050565b6000611f10836000018360001b61209c565b905092915050565b6000611f40836000018373ffffffffffffffffffffffffffffffffffffffff1660001b61209c565b905092915050565b60606000611f5883600001612038565b905060608190508092505050919050565b600081600001805490509050919050565b600080836001016000848152602001908152602001600020541415905092915050565b6000611faf836000018360001b61210c565b905092915050565b6000611fdf836000018373ffffffffffffffffffffffffffffffffffffffff1660001b61210c565b905092915050565b6000826000018281548110612025577f4e487b7100000000000000000000000000000000000000000000000000000000600052603260045260246000fd5b9060005260206000200154905092915050565b60608160000180548060200260200160405190810160405280929190818152602001828054801561208857602002820191906000526020600020905b815481526020019060010190808311612074575b50505050509050919050565b600033905090565b60006120a88383611f7a565b612101578260000182908060018154018082558091505060019003906000526020600020016000909190919091505582600001805490508360010160008481526020019081526020016000208190555060019050612106565b600090505b92915050565b6000808360010160008481526020019081526020016000205490506000811461228657600060018261213e919061301c565b9050600060018660000180549050612156919061301c565b905081811461221157600086600001828154811061219d577f4e487b7100000000000000000000000000000000000000000000000000000000600052603260045260246000fd5b90600052602060002001549050808760000184815481106121e7577f4e487b7100000000000000000000000000000000000000000000000000000000600052603260045260246000fd5b90600052602060002001819055508387600101600083815260200190815260200160002081905550505b8560000180548061224b577f4e487b7100000000000000000000000000000000000000000000000000000000600052603160045260246000fd5b60019003818190600052602060002001600090559055856001016000868152602001908152602001600020600090556001935050505061228c565b60009150505b92915050565b60006122a56122a084612ed6565b612eb1565b9050828152602081018484840111156122bd57600080fd5b6122c88482856130c4565b509392505050565b60006122e36122de84612f07565b612eb1565b9050828152602081018484840111156122fb57600080fd5b6123068482856130d3565b509392505050565b60008135905061231d816136d1565b92915050565b600081519050612332816136d1565b92915050565b60008083601f84011261234a57600080fd5b8235905067ffffffffffffffff81111561236357600080fd5b60208301915083602082028301111561237b57600080fd5b9250929050565b60008083601f84011261239457600080fd5b8235905067ffffffffffffffff8111156123ad57600080fd5b6020830191508360208202830111156123c557600080fd5b9250929050565b6000813590506123db816136e8565b92915050565b6000815190506123f0816136e8565b92915050565b600081359050612405816136ff565b92915050565b600082601f83011261241c57600080fd5b813561242c848260208601612292565b91505092915050565b600082601f83011261244657600080fd5b81516124568482602086016122d0565b91505092915050565b60008135905061246e81613716565b92915050565b60008151905061248381613716565b92915050565b60006020828403121561249b57600080fd5b60006124a98482850161230e565b91505092915050565b6000602082840312156124c457600080fd5b60006124d284828501612323565b91505092915050565b600080604083850312156124ee57600080fd5b60006124fc8582860161230e565b925050602061250d8582860161230e565b9150509250929050565b60008060006060848603121561252c57600080fd5b600061253a8682870161230e565b935050602061254b8682870161230e565b925050604061255c8682870161245f565b9150509250925092565b6000806000806080858703121561257c57600080fd5b600061258a8782880161230e565b945050602061259b8782880161230e565b93505060406125ac8782880161245f565b925050606085013567ffffffffffffffff8111156125c957600080fd5b6125d58782880161240b565b91505092959194509250565b6000806000604084860312156125f657600080fd5b60006126048682870161230e565b935050602084013567ffffffffffffffff81111561262157600080fd5b61262d86828701612382565b92509250509250925092565b6000806040838503121561264c57600080fd5b600061265a8582860161230e565b925050602061266b858286016123cc565b9150509250929050565b6000806040838503121561268857600080fd5b60006126968582860161230e565b92505060206126a78582860161245f565b9150509250929050565b6000602082840312156126c357600080fd5b60006126d1848285016123e1565b91505092915050565b6000602082840312156126ec57600080fd5b60006126fa848285016123f6565b91505092915050565b60006020828403121561271557600080fd5b600082015167ffffffffffffffff81111561272f57600080fd5b61273b84828501612435565b91505092915050565b60006020828403121561275657600080fd5b60006127648482850161245f565b91505092915050565b60006020828403121561277f57600080fd5b600061278d84828501612474565b91505092915050565b6000806000604084860312156127ab57600080fd5b60006127b98682870161245f565b935050602084013567ffffffffffffffff8111156127d657600080fd5b6127e286828701612338565b92509250509250925092565b60006127fa838361281e565b60208301905092915050565b60006128128383612b93565b60208301905092915050565b61282781613050565b82525050565b61283681613050565b82525050565b600061284782612f58565b6128518185612f93565b935061285c83612f38565b8060005b8381101561288d57815161287488826127ee565b975061287f83612f79565b925050600181019050612860565b5085935050505092915050565b60006128a582612f63565b6128af8185612fa4565b93506128ba83612f48565b8060005b838110156128eb5781516128d28882612806565b97506128dd83612f86565b9250506001810190506128be565b5085935050505092915050565b61290181613062565b82525050565b600061291282612f6e565b61291c8185612fb5565b935061292c8185602086016130d3565b6129358161323f565b840191505092915050565b600061294d603a83612fb5565b915061295882613250565b604082019050919050565b6000612970602683612fb5565b915061297b8261329f565b604082019050919050565b6000612993602783612fb5565b915061299e826132ee565b604082019050919050565b60006129b6603383612fb5565b91506129c18261333d565b604082019050919050565b60006129d9602583612fb5565b91506129e48261338c565b604082019050919050565b60006129fc602383612fb5565b9150612a07826133db565b604082019050919050565b6000612a1f602a83612fb5565b9150612a2a8261342a565b604082019050919050565b6000612a42601783612fb5565b9150612a4d82613479565b602082019050919050565b6000612a65601e83612fb5565b9150612a70826134a2565b602082019050919050565b6000612a88602083612fb5565b9150612a93826134cb565b602082019050919050565b6000612aab602683612fb5565b9150612ab6826134f4565b604082019050919050565b6000612ace602f83612fb5565b9150612ad982613543565b604082019050919050565b6000612af1601b83612fb5565b9150612afc82613592565b602082019050919050565b6000612b14601383612fb5565b9150612b1f826135bb565b602082019050919050565b6000612b37602383612fb5565b9150612b42826135e4565b604082019050919050565b6000612b5a602683612fb5565b9150612b6582613633565b604082019050919050565b6000612b7d603283612fb5565b9150612b8882613682565b604082019050919050565b612b9c816130ba565b82525050565b612bab816130ba565b82525050565b6000602082019050612bc6600083018461282d565b92915050565b6000604082019050612be1600083018561282d565b612bee602083018461282d565b9392505050565b60006020820190508181036000830152612c0f818461283c565b905092915050565b60006020820190508181036000830152612c31818461289a565b905092915050565b6000602082019050612c4e60008301846128f8565b92915050565b60006020820190508181036000830152612c6e8184612907565b905092915050565b60006020820190508181036000830152612c8f81612940565b9050919050565b60006020820190508181036000830152612caf81612963565b9050919050565b60006020820190508181036000830152612ccf81612986565b9050919050565b60006020820190508181036000830152612cef816129a9565b9050919050565b60006020820190508181036000830152612d0f816129cc565b9050919050565b60006020820190508181036000830152612d2f816129ef565b9050919050565b60006020820190508181036000830152612d4f81612a12565b9050919050565b60006020820190508181036000830152612d6f81612a35565b9050919050565b60006020820190508181036000830152612d8f81612a58565b9050919050565b60006020820190508181036000830152612daf81612a7b565b9050919050565b60006020820190508181036000830152612dcf81612a9e565b9050919050565b60006020820190508181036000830152612def81612ac1565b9050919050565b60006020820190508181036000830152612e0f81612ae4565b9050919050565b60006020820190508181036000830152612e2f81612b07565b9050919050565b60006020820190508181036000830152612e4f81612b2a565b9050919050565b60006020820190508181036000830152612e6f81612b4d565b9050919050565b60006020820190508181036000830152612e8f81612b70565b9050919050565b6000602082019050612eab6000830184612ba2565b92915050565b6000612ebb612ecc565b9050612ec78282613138565b919050565b6000604051905090565b600067ffffffffffffffff821115612ef157612ef0613210565b5b612efa8261323f565b9050602081019050919050565b600067ffffffffffffffff821115612f2257612f21613210565b5b612f2b8261323f565b9050602081019050919050565b6000819050602082019050919050565b6000819050602082019050919050565b600081519050919050565b600081519050919050565b600081519050919050565b6000602082019050919050565b6000602082019050919050565b600082825260208201905092915050565b600082825260208201905092915050565b600082825260208201905092915050565b6000612fd1826130ba565b9150612fdc836130ba565b9250827fffffffffffffffffffffffffffffffffffffffffffffffffffffffffffffffff03821115613011576130106131b2565b5b828201905092915050565b6000613027826130ba565b9150613032836130ba565b925082821015613045576130446131b2565b5b828203905092915050565b600061305b8261309a565b9050919050565b60008115159050919050565b60007fffffffff0000000000000000000000000000000000000000000000000000000082169050919050565b600073ffffffffffffffffffffffffffffffffffffffff82169050919050565b6000819050919050565b82818337600083830152505050565b60005b838110156130f15780820151818401526020810190506130d6565b83811115613100576000848401525b50505050565b6000600282049050600182168061311e57607f821691505b60208210811415613132576131316131e1565b5b50919050565b6131418261323f565b810181811067ffffffffffffffff821117156131605761315f613210565b5b80604052505050565b6000613174826130ba565b91507fffffffffffffffffffffffffffffffffffffffffffffffffffffffffffffffff8214156131a7576131a66131b2565b5b600182019050919050565b7f4e487b7100000000000000000000000000000000000000000000000000000000600052601160045260246000fd5b7f4e487b7100000000000000000000000000000000000000000000000000000000600052602260045260246000fd5b7f4e487b7100000000000000000000000000000000000000000000000000000000600052604160045260246000fd5b6000601f19601f8301169050919050565b7f53434152443a2063616c6c6572206973206e6f7420424341524420636f6e747260008201527f616374206e6f72206f776e6572206e6f7220617070726f766564000000000000602082015250565b7f4f776e61626c653a206e6577206f776e657220697320746865207a65726f206160008201527f6464726573730000000000000000000000000000000000000000000000000000602082015250565b7f53434152443a2063616c6c6572206973206e6f74206f776e6572206e6f72206160008201527f7070726f76656400000000000000000000000000000000000000000000000000602082015250565b7f53434152443a2072656365697665722077617320616c72656164792073656e7460008201527f2074686520536f756c626f756e64204361726400000000000000000000000000602082015250565b7f53434152443a2063616e6e6f7420617070726f766520536f756c626f756e642060008201527f4361726473000000000000000000000000000000000000000000000000000000602082015250565b7f53434152443a20746f6b656e206e6f7420696e2072656365697665722773206c60008201527f6973740000000000000000000000000000000000000000000000000000000000602082015250565b7f4552433732313a2062616c616e636520717565727920666f7220746865207a6560008201527f726f206164647265737300000000000000000000000000000000000000000000602082015250565b7f53434152443a2073656e64696e6720746f206f776e6572000000000000000000600082015250565b7f53434152443a2073656e64696e6720746f207a65726f20616464726573730000600082015250565b7f4f776e61626c653a2063616c6c6572206973206e6f7420746865206f776e6572600082015250565b7f53434152443a2063616e6e6f74207472616e7366657220536f756c626f756e6460008201527f2043617264730000000000000000000000000000000000000000000000000000602082015250565b7f53434152443a2063616c6c6572206973206e6f74206f776e6572206e6f72206160008201527f7070726f76656420666f7220616c6c0000000000000000000000000000000000602082015250565b7f53434152443a20746f6b656e206e6f74206f6e20746865207365740000000000600082015250565b7f496e646578206f7574206f6620626f756e647300000000000000000000000000600082015250565b7f53434152443a2073656e64696e6720636172642074686174206973206e6f742060008201527f6f776e0000000000000000000000000000000000000000000000000000000000602082015250565b7f53434152443a20726563656976657220626c61636b6c6973746564207468656d60008201527f73656c7665730000000000000000000000000000000000000000000000000000602082015250565b7f53434152443a2063616c6c6572206973206e6f74207265636569766572206e6f60008201527f7220617070726f76656420666f7220616c6c0000000000000000000000000000602082015250565b6136da81613050565b81146136e557600080fd5b50565b6136f181613062565b81146136fc57600080fd5b50565b6137088161306e565b811461371357600080fd5b50565b61371f816130ba565b811461372a57600080fd5b5056fea26469706673582212209f9d835de5c1c912e0a26f57c8c35fccd2d154128ad1cff823226e17b457e09364736f6c63430008040033",
  "linkReferences": {},
  "deployedLinkReferences": {}
}