{
  "_format": "hh-sol-artifact-1",
  "contractName": "SoulboundCard",
  "sourceName": "contracts/SoulboundCard.sol",
  "abi": [
    {
      "inputs": [
        {
          "internalType": "string",
          "name": "name_",
          "type": "string"
        },
        {
          "internalType": "string",
          "name": "symbol_",
          "type": "string"
        },
        {
          "internalType": "address",
          "name": "_bCard",
          "type": "address"
        }
      ],
      "stateMutability": "nonpayable",
      "type": "constructor"
    },
    {
      "anonymous": false,
      "inputs": [
        {
          "indexed": true,
          "internalType": "address",
          "name": "owner",
          "type": "address"
        },
        {
          "indexed": true,
          "internalType": "address",
          "name": "approved",
          "type": "address"
        },
        {
          "indexed": true,
          "internalType": "uint256",
          "name": "tokenId",
          "type": "uint256"
        }
      ],
      "name": "Approval",
      "type": "event"
    },
    {
      "anonymous": false,
      "inputs": [
        {
          "indexed": true,
          "internalType": "address",
          "name": "owner",
          "type": "address"
        },
        {
          "indexed": true,
          "internalType": "address",
          "name": "operator",
          "type": "address"
        },
        {
          "indexed": false,
          "internalType": "bool",
          "name": "approved",
          "type": "bool"
        }
      ],
      "name": "ApprovalForAll",
      "type": "event"
    },
    {
      "anonymous": false,
      "inputs": [
        {
          "indexed": true,
          "internalType": "address",
          "name": "previousOwner",
          "type": "address"
        },
        {
          "indexed": true,
          "internalType": "address",
          "name": "newOwner",
          "type": "address"
        }
      ],
      "name": "OwnershipTransferred",
      "type": "event"
    },
    {
      "anonymous": false,
      "inputs": [
        {
          "indexed": true,
          "internalType": "address",
          "name": "from",
          "type": "address"
        },
        {
          "indexed": true,
          "internalType": "address",
          "name": "to",
          "type": "address"
        },
        {
          "indexed": true,
          "internalType": "uint256",
          "name": "tokenId",
          "type": "uint256"
        }
      ],
      "name": "Transfer",
      "type": "event"
    },
    {
      "inputs": [
        {
          "internalType": "address",
          "name": "",
          "type": "address"
        },
        {
          "internalType": "uint256",
          "name": "",
          "type": "uint256"
        }
      ],
      "name": "approve",
      "outputs": [],
      "stateMutability": "pure",
      "type": "function"
    },
    {
      "inputs": [
        {
          "internalType": "address",
          "name": "_owner",
          "type": "address"
        }
      ],
      "name": "balanceOf",
      "outputs": [
        {
          "internalType": "uint256",
          "name": "",
          "type": "uint256"
        }
      ],
      "stateMutability": "view",
      "type": "function"
    },
    {
      "inputs": [
        {
          "internalType": "uint256",
          "name": "tokenId",
          "type": "uint256"
        }
      ],
      "name": "burnAllSoulboundCardsOfToken",
      "outputs": [],
      "stateMutability": "nonpayable",
      "type": "function"
    },
    {
      "inputs": [
        {
          "internalType": "address",
          "name": "receiver",
          "type": "address"
        },
        {
          "internalType": "uint256[]",
          "name": "toBurn",
          "type": "uint256[]"
        }
      ],
      "name": "burnReceivedSoulboundCards",
      "outputs": [],
      "stateMutability": "nonpayable",
      "type": "function"
    },
    {
      "inputs": [
        {
          "internalType": "address",
          "name": "receiver",
          "type": "address"
        },
        {
          "internalType": "uint256",
          "name": "toBurn",
          "type": "uint256"
        }
      ],
      "name": "burnSoulboundCard",
      "outputs": [],
      "stateMutability": "nonpayable",
      "type": "function"
    },
    {
      "inputs": [
        {
          "internalType": "uint256",
          "name": "tokenId",
          "type": "uint256"
        },
        {
          "internalType": "address[]",
          "name": "toBurn",
          "type": "address[]"
        }
      ],
      "name": "burnSoulboundCardsOfToken",
      "outputs": [],
      "stateMutability": "nonpayable",
      "type": "function"
    },
    {
      "inputs": [
        {
          "internalType": "address",
          "name": "toDisable",
          "type": "address"
        }
      ],
      "name": "disableSoulboundCardsForAddress",
      "outputs": [],
      "stateMutability": "nonpayable",
      "type": "function"
    },
    {
      "inputs": [
        {
          "internalType": "uint256",
          "name": "tokenId",
          "type": "uint256"
        }
      ],
      "name": "getApproved",
      "outputs": [
        {
          "internalType": "address",
          "name": "",
          "type": "address"
        }
      ],
      "stateMutability": "view",
      "type": "function"
    },
    {
      "inputs": [
        {
          "internalType": "address",
          "name": "owner",
          "type": "address"
        },
        {
          "internalType": "address",
          "name": "operator",
          "type": "address"
        }
      ],
      "name": "isApprovedForAll",
      "outputs": [
        {
          "internalType": "bool",
          "name": "",
          "type": "bool"
        }
      ],
      "stateMutability": "view",
      "type": "function"
    },
    {
      "inputs": [
        {
          "internalType": "address",
          "name": "receiver",
          "type": "address"
        }
      ],
      "name": "isBlacklisted",
      "outputs": [
        {
          "internalType": "bool",
          "name": "blacklisted",
          "type": "bool"
        }
      ],
      "stateMutability": "view",
      "type": "function"
    },
    {
      "inputs": [],
      "name": "name",
      "outputs": [
        {
          "internalType": "string",
          "name": "",
          "type": "string"
        }
      ],
      "stateMutability": "view",
      "type": "function"
    },
    {
      "inputs": [],
      "name": "owner",
      "outputs": [
        {
          "internalType": "address",
          "name": "",
          "type": "address"
        }
      ],
      "stateMutability": "view",
      "type": "function"
    },
    {
      "inputs": [
        {
          "internalType": "uint256",
          "name": "_tokenId",
          "type": "uint256"
        }
      ],
      "name": "ownerOf",
      "outputs": [
        {
          "internalType": "address",
          "name": "",
          "type": "address"
        }
      ],
      "stateMutability": "view",
      "type": "function"
    },
    {
      "inputs": [
        {
          "internalType": "address",
          "name": "receiver",
          "type": "address"
        }
      ],
      "name": "receivedSoulboundCards",
      "outputs": [
        {
          "internalType": "uint256[]",
          "name": "",
          "type": "uint256[]"
        }
      ],
      "stateMutability": "view",
      "type": "function"
    },
    {
      "inputs": [],
      "name": "renounceOwnership",
      "outputs": [],
      "stateMutability": "nonpayable",
      "type": "function"
    },
    {
      "inputs": [
        {
          "internalType": "address",
          "name": "from",
          "type": "address"
        },
        {
          "internalType": "address",
          "name": "to",
          "type": "address"
        },
        {
          "internalType": "uint256",
          "name": "tokenId",
          "type": "uint256"
        }
      ],
      "name": "safeTransferFrom",
      "outputs": [],
      "stateMutability": "nonpayable",
      "type": "function"
    },
    {
      "inputs": [
        {
          "internalType": "address",
          "name": "",
          "type": "address"
        },
        {
          "internalType": "address",
          "name": "",
          "type": "address"
        },
        {
          "internalType": "uint256",
          "name": "",
          "type": "uint256"
        },
        {
          "internalType": "bytes",
          "name": "",
          "type": "bytes"
        }
      ],
      "name": "safeTransferFrom",
      "outputs": [],
      "stateMutability": "pure",
      "type": "function"
    },
    {
      "inputs": [
        {
          "internalType": "address",
          "name": "from",
          "type": "address"
        },
        {
          "internalType": "address",
          "name": "receiver",
          "type": "address"
        },
        {
          "internalType": "uint256",
          "name": "tokenId",
          "type": "uint256"
        }
      ],
      "name": "sendSoulboundCard",
      "outputs": [],
      "stateMutability": "nonpayable",
      "type": "function"
    },
    {
      "inputs": [
        {
          "internalType": "address",
          "name": "",
          "type": "address"
        },
        {
          "internalType": "bool",
          "name": "",
          "type": "bool"
        }
      ],
      "name": "setApprovalForAll",
      "outputs": [],
      "stateMutability": "pure",
      "type": "function"
    },
    {
      "inputs": [
        {
          "internalType": "uint256",
          "name": "tokenId",
          "type": "uint256"
        }
      ],
      "name": "soulboundCardReceivers",
      "outputs": [
        {
          "internalType": "address[]",
          "name": "",
          "type": "address[]"
        }
      ],
      "stateMutability": "view",
      "type": "function"
    },
    {
      "inputs": [
        {
          "internalType": "bytes4",
          "name": "interfaceId",
          "type": "bytes4"
        }
      ],
      "name": "supportsInterface",
      "outputs": [
        {
          "internalType": "bool",
          "name": "",
          "type": "bool"
        }
      ],
      "stateMutability": "view",
      "type": "function"
    },
    {
      "inputs": [],
      "name": "symbol",
      "outputs": [
        {
          "internalType": "string",
          "name": "",
          "type": "string"
        }
      ],
      "stateMutability": "view",
      "type": "function"
    },
    {
      "inputs": [
        {
          "internalType": "uint256",
          "name": "index",
          "type": "uint256"
        }
      ],
      "name": "tokenByIndex",
      "outputs": [
        {
          "internalType": "uint256",
          "name": "",
          "type": "uint256"
        }
      ],
      "stateMutability": "view",
      "type": "function"
    },
    {
      "inputs": [
        {
          "internalType": "address",
          "name": "_owner",
          "type": "address"
        },
        {
          "internalType": "uint256",
          "name": "index",
          "type": "uint256"
        }
      ],
      "name": "tokenOfOwnerByIndex",
      "outputs": [
        {
          "internalType": "uint256",
          "name": "",
          "type": "uint256"
        }
      ],
      "stateMutability": "view",
      "type": "function"
    },
    {
      "inputs": [
        {
          "internalType": "uint256",
          "name": "tokenId",
          "type": "uint256"
        }
      ],
      "name": "tokenURI",
      "outputs": [
        {
          "internalType": "string",
          "name": "",
          "type": "string"
        }
      ],
      "stateMutability": "view",
      "type": "function"
    },
    {
      "inputs": [],
      "name": "totalSupply",
      "outputs": [
        {
          "internalType": "uint256",
          "name": "count",
          "type": "uint256"
        }
      ],
      "stateMutability": "view",
      "type": "function"
    },
    {
      "inputs": [
        {
          "internalType": "address",
          "name": "",
          "type": "address"
        },
        {
          "internalType": "address",
          "name": "",
          "type": "address"
        },
        {
          "internalType": "uint256",
          "name": "",
          "type": "uint256"
        }
      ],
      "name": "transferFrom",
      "outputs": [],
      "stateMutability": "pure",
      "type": "function"
    },
    {
      "inputs": [
        {
          "internalType": "address",
          "name": "newOwner",
          "type": "address"
        }
      ],
      "name": "transferOwnership",
      "outputs": [],
      "stateMutability": "nonpayable",
      "type": "function"
    }
  ],
  "bytecode": "0x60806040523480156200001157600080fd5b5060405162003d5b38038062003d5b8339818101604052810190620000379190620003fa565b620000576200004b6200011b60201b60201c565b6200012360201b60201c565b82600590805190602001906200006f929190620002c1565b50816006908051906020019062000088929190620002c1565b5080600760006101000a81548173ffffffffffffffffffffffffffffffffffffffff021916908373ffffffffffffffffffffffffffffffffffffffff160217905550620000e26380ac58cd60e01b620001e960201b60201c565b620000fa635b5e139f60e01b620001e960201b60201c565b6200011263780e9d6360e01b620001e960201b60201c565b505050620006c3565b600033905090565b6000600160009054906101000a900473ffffffffffffffffffffffffffffffffffffffff16905081600160006101000a81548173ffffffffffffffffffffffffffffffffffffffff021916908373ffffffffffffffffffffffffffffffffffffffff1602179055508173ffffffffffffffffffffffffffffffffffffffff168173ffffffffffffffffffffffffffffffffffffffff167f8be0079c531659141344cd1fd0a4f28419497f9722a3daafe3b4186f6b6457e060405160405180910390a35050565b63ffffffff60e01b817bffffffffffffffffffffffffffffffffffffffffffffffffffffffff1916141562000255576040517f08c379a00000000000000000000000000000000000000000000000000000000081526004016200024c90620004a9565b60405180910390fd5b6001600080837bffffffffffffffffffffffffffffffffffffffffffffffffffffffff19167bffffffffffffffffffffffffffffffffffffffffffffffffffffffff1916815260200190815260200160002060006101000a81548160ff02191690831515021790555050565b828054620002cf90620005a5565b90600052602060002090601f016020900481019282620002f357600085556200033f565b82601f106200030e57805160ff19168380011785556200033f565b828001600101855582156200033f579182015b828111156200033e57825182559160200191906001019062000321565b5b5090506200034e919062000352565b5090565b5b808211156200036d57600081600090555060010162000353565b5090565b6000620003886200038284620004f4565b620004cb565b905082815260208101848484011115620003a157600080fd5b620003ae8482856200056f565b509392505050565b600081519050620003c781620006a9565b92915050565b600082601f830112620003df57600080fd5b8151620003f184826020860162000371565b91505092915050565b6000806000606084860312156200041057600080fd5b600084015167ffffffffffffffff8111156200042b57600080fd5b6200043986828701620003cd565b935050602084015167ffffffffffffffff8111156200045757600080fd5b6200046586828701620003cd565b92505060406200047886828701620003b6565b9150509250925092565b600062000491601c836200052a565b91506200049e8262000680565b602082019050919050565b60006020820190508181036000830152620004c48162000482565b9050919050565b6000620004d7620004ea565b9050620004e58282620005db565b919050565b6000604051905090565b600067ffffffffffffffff82111562000512576200051162000640565b5b6200051d826200066f565b9050602081019050919050565b600082825260208201905092915050565b600062000548826200054f565b9050919050565b600073ffffffffffffffffffffffffffffffffffffffff82169050919050565b60005b838110156200058f57808201518184015260208101905062000572565b838111156200059f576000848401525b50505050565b60006002820490506001821680620005be57607f821691505b60208210811415620005d557620005d462000611565b5b50919050565b620005e6826200066f565b810181811067ffffffffffffffff8211171562000608576200060762000640565b5b80604052505050565b7f4e487b7100000000000000000000000000000000000000000000000000000000600052602260045260246000fd5b7f4e487b7100000000000000000000000000000000000000000000000000000000600052604160045260246000fd5b6000601f19601f8301169050919050565b7f4552433136353a20696e76616c696420696e7465726661636520696400000000600082015250565b620006b4816200053b565b8114620006c057600080fd5b50565b61368880620006d36000396000f3fe608060405234801561001057600080fd5b50600436106101c45760003560e01c806370a08231116100f9578063a22cb46511610097578063ca3c5c0711610071578063ca3c5c0714610513578063e985e9c51461052f578063f2fde38b1461055f578063fe575a871461057b576101c4565b8063a22cb465146104ab578063b88d4fde146104c7578063c87b56dd146104e3576101c4565b80638777a38e116100d35780638777a38e146104235780638da5cb5b1461043f578063947aea3b1461045d57806395d89b411461048d576101c4565b806370a08231146103cd578063715018a6146103fd57806373f8c0e814610407576101c4565b80632f745c59116101665780634f6ccce7116101405780634f6ccce7146103355780636352211e14610365578063644f943714610395578063667b7062146103b1576101c4565b80632f745c59146102b95780633701e582146102e957806342842e0e14610319576101c4565b8063095ea7b3116101a2578063095ea7b31461024757806318160ddd1461026357806323b872dd1461028157806329759ae91461029d576101c4565b806301ffc9a7146101c957806306fdde03146101f9578063081812fc14610217575b600080fd5b6101e360048036038101906101de919061266b565b6105ab565b6040516101f09190612ba7565b60405180910390f35b610201610622565b60405161020e9190612bc2565b60405180910390f35b610231600480360381019061022c91906126d5565b6106b4565b60405161023e9190612b1f565b60405180910390f35b610261600480360381019061025c9190612606565b610768565b005b61026b6107a3565b6040516102789190612de4565b60405180910390f35b61029b600480360381019061029691906124a8565b610894565b005b6102b760048036038101906102b29190612606565b6108cf565b005b6102d360048036038101906102ce9190612606565b6109ec565b6040516102e09190612de4565b60405180910390f35b61030360048036038101906102fe919061241a565b610a91565b6040516103109190612b85565b60405180910390f35b610333600480360381019061032e91906124a8565b610ae1565b005b61034f600480360381019061034a91906126d5565b610b01565b60405161035c9190612de4565b60405180910390f35b61037f600480360381019061037a91906126d5565b610bb5565b60405161038c9190612b1f565b60405180910390f35b6103af60048036038101906103aa919061241a565b610c69565b005b6103cb60048036038101906103c69190612727565b610d43565b005b6103e760048036038101906103e2919061241a565b610e68565b6040516103f49190612de4565b60405180910390f35b610405610f27565b005b610421600480360381019061041c91906124a8565b610f3b565b005b61043d60048036038101906104389190612572565b611302565b005b6104476113f5565b6040516104549190612b1f565b60405180910390f35b610477600480360381019061047291906126d5565b61141f565b6040516104849190612b63565b60405180910390f35b610495611443565b6040516104a29190612bc2565b60405180910390f35b6104c560048036038101906104c091906125ca565b6114d5565b005b6104e160048036038101906104dc91906124f7565b611510565b005b6104fd60048036038101906104f891906126d5565b61154b565b60405161050a9190612bc2565b60405180910390f35b61052d600480360381019061052891906126d5565b611604565b005b6105496004803603810190610544919061246c565b611738565b6040516105569190612ba7565b60405180910390f35b6105796004803603810190610574919061241a565b6117ef565b005b6105956004803603810190610590919061241a565b611873565b6040516105a29190612ba7565b60405180910390f35b60006105b6826118c9565b8061061b5750600080837bffffffffffffffffffffffffffffffffffffffffffffffffffffffff19167bffffffffffffffffffffffffffffffffffffffffffffffffffffffff1916815260200190815260200160002060009054906101000a900460ff165b9050919050565b60606005805461063190613054565b80601f016020809104026020016040519081016040528092919081815260200182805461065d90613054565b80156106aa5780601f1061067f576101008083540402835291602001916106aa565b820191906000526020600020905b81548152906001019060200180831161068d57829003601f168201915b5050505050905090565b6000600760009054906101000a900473ffffffffffffffffffffffffffffffffffffffff1673ffffffffffffffffffffffffffffffffffffffff1663081812fc836040518263ffffffff1660e01b81526004016107119190612de4565b60206040518083038186803b15801561072957600080fd5b505afa15801561073d573d6000803e3d6000fd5b505050506040513d601f19601f820116820180604052508101906107619190612443565b9050919050565b6040517f08c379a000000000000000000000000000000000000000000000000000000000815260040161079a90612c64565b60405180910390fd5b600080600760009054906101000a900473ffffffffffffffffffffffffffffffffffffffff1673ffffffffffffffffffffffffffffffffffffffff166318160ddd6040518163ffffffff1660e01b815260040160206040518083038186803b15801561080e57600080fd5b505afa158015610822573d6000803e3d6000fd5b505050506040513d601f19601f8201168201806040525081019061084691906126fe565b90506000600190505b81811161088f5761087160036000838152602001908152602001600020611933565b8361087c9190612f14565b925080610888906130b7565b905061084f565b505090565b6040517f08c379a00000000000000000000000000000000000000000000000000000000081526004016108c690612d04565b60405180910390fd5b8173ffffffffffffffffffffffffffffffffffffffff163373ffffffffffffffffffffffffffffffffffffffff16148061090f575061090e3382611948565b5b61094e576040517f08c379a000000000000000000000000000000000000000000000000000000000815260040161094590612c24565b60405180910390fd5b61099f81600260008573ffffffffffffffffffffffffffffffffffffffff1673ffffffffffffffffffffffffffffffffffffffff168152602001908152602001600020611bc490919063ffffffff16565b6109de576040517f08c379a00000000000000000000000000000000000000000000000000000000081526004016109d590612c84565b60405180910390fd5b6109e88282611bde565b5050565b60006109f783610e68565b8210610a38576040517f08c379a0000000000000000000000000000000000000000000000000000000008152600401610a2f90612d64565b60405180910390fd5b610a8982600260008673ffffffffffffffffffffffffffffffffffffffff1673ffffffffffffffffffffffffffffffffffffffff168152602001908152602001600020611cfb90919063ffffffff16565b905092915050565b6060610ada600260008473ffffffffffffffffffffffffffffffffffffffff1673ffffffffffffffffffffffffffffffffffffffff168152602001908152602001600020611d15565b9050919050565b610afc83838360405180602001604052806000815250611510565b505050565b6000600760009054906101000a900473ffffffffffffffffffffffffffffffffffffffff1673ffffffffffffffffffffffffffffffffffffffff16634f6ccce7836040518263ffffffff1660e01b8152600401610b5e9190612de4565b60206040518083038186803b158015610b7657600080fd5b505afa158015610b8a573d6000803e3d6000fd5b505050506040513d601f19601f82011682018060405250810190610bae91906126fe565b9050919050565b6000600760009054906101000a900473ffffffffffffffffffffffffffffffffffffffff1673ffffffffffffffffffffffffffffffffffffffff16636352211e836040518263ffffffff1660e01b8152600401610c129190612de4565b60206040518083038186803b158015610c2a57600080fd5b505afa158015610c3e573d6000803e3d6000fd5b505050506040513d601f19601f82011682018060405250810190610c629190612443565b9050919050565b8073ffffffffffffffffffffffffffffffffffffffff163373ffffffffffffffffffffffffffffffffffffffff161480610ca95750610ca88133611738565b5b610ce8576040517f08c379a0000000000000000000000000000000000000000000000000000000008152600401610cdf90612d24565b60405180910390fd5b6001600460008373ffffffffffffffffffffffffffffffffffffffff1673ffffffffffffffffffffffffffffffffffffffff16815260200190815260200160002060006101000a81548160ff02191690831515021790555050565b600760009054906101000a900473ffffffffffffffffffffffffffffffffffffffff1673ffffffffffffffffffffffffffffffffffffffff163373ffffffffffffffffffffffffffffffffffffffff161480610da55750610da43384611948565b5b610de4576040517f08c379a0000000000000000000000000000000000000000000000000000000008152600401610ddb90612be4565b60405180910390fd5b60005b82829050811015610e62576000838383818110610e2d577f4e487b7100000000000000000000000000000000000000000000000000000000600052603260045260246000fd5b9050602002016020810190610e42919061241a565b9050610e4e8186611bde565b508080610e5a906130b7565b915050610de7565b50505050565b60008073ffffffffffffffffffffffffffffffffffffffff168273ffffffffffffffffffffffffffffffffffffffff161415610ed9576040517f08c379a0000000000000000000000000000000000000000000000000000000008152600401610ed090612ca4565b60405180910390fd5b610f20600260008473ffffffffffffffffffffffffffffffffffffffff1673ffffffffffffffffffffffffffffffffffffffff168152602001908152602001600020611d36565b9050919050565b610f2f611d4b565b610f396000611dc9565b565b610f453382611948565b610f84576040517f08c379a0000000000000000000000000000000000000000000000000000000008152600401610f7b90612c24565b60405180910390fd5b8273ffffffffffffffffffffffffffffffffffffffff16600760009054906101000a900473ffffffffffffffffffffffffffffffffffffffff1673ffffffffffffffffffffffffffffffffffffffff16636352211e836040518263ffffffff1660e01b8152600401610ff69190612de4565b60206040518083038186803b15801561100e57600080fd5b505afa158015611022573d6000803e3d6000fd5b505050506040513d601f19601f820116820180604052508101906110469190612443565b73ffffffffffffffffffffffffffffffffffffffff161461109c576040517f08c379a000000000000000000000000000000000000000000000000000000000815260040161109390612d84565b60405180910390fd5b600073ffffffffffffffffffffffffffffffffffffffff168273ffffffffffffffffffffffffffffffffffffffff16141561110c576040517f08c379a000000000000000000000000000000000000000000000000000000000815260040161110390612cc4565b60405180910390fd5b600460008373ffffffffffffffffffffffffffffffffffffffff1673ffffffffffffffffffffffffffffffffffffffff16815260200190815260200160002060009054906101000a900460ff1615611199576040517f08c379a000000000000000000000000000000000000000000000000000000000815260040161119090612da4565b60405180910390fd5b6111ea81600260008573ffffffffffffffffffffffffffffffffffffffff1673ffffffffffffffffffffffffffffffffffffffff168152602001908152602001600020611bc490919063ffffffff16565b1561122a576040517f08c379a000000000000000000000000000000000000000000000000000000000815260040161122190612c44565b60405180910390fd5b61127b81600260008573ffffffffffffffffffffffffffffffffffffffff1673ffffffffffffffffffffffffffffffffffffffff168152602001908152602001600020611e8f90919063ffffffff16565b506112a18260036000848152602001908152602001600020611ea990919063ffffffff16565b50808273ffffffffffffffffffffffffffffffffffffffff168473ffffffffffffffffffffffffffffffffffffffff167fddf252ad1be2c89b69c2b068fc378daa952ba7f163c4a11628f55a4df523b3ef60405160405180910390a4505050565b8273ffffffffffffffffffffffffffffffffffffffff163373ffffffffffffffffffffffffffffffffffffffff16148061134257506113418333611738565b5b611381576040517f08c379a000000000000000000000000000000000000000000000000000000000815260040161137890612dc4565b60405180910390fd5b60005b828290508110156113ef5760008383838181106113ca577f4e487b7100000000000000000000000000000000000000000000000000000000600052603260045260246000fd5b9050602002013590506113dd8582611bde565b50806113e8906130b7565b9050611384565b50505050565b6000600160009054906101000a900473ffffffffffffffffffffffffffffffffffffffff16905090565b606061143c60036000848152602001908152602001600020611ed9565b9050919050565b60606006805461145290613054565b80601f016020809104026020016040519081016040528092919081815260200182805461147e90613054565b80156114cb5780601f106114a0576101008083540402835291602001916114cb565b820191906000526020600020905b8154815290600101906020018083116114ae57829003601f168201915b5050505050905090565b6040517f08c379a000000000000000000000000000000000000000000000000000000000815260040161150790612c64565b60405180910390fd5b6040517f08c379a000000000000000000000000000000000000000000000000000000000815260040161154290612d04565b60405180910390fd5b6060600760009054906101000a900473ffffffffffffffffffffffffffffffffffffffff1673ffffffffffffffffffffffffffffffffffffffff1663c87b56dd836040518263ffffffff1660e01b81526004016115a89190612de4565b60006040518083038186803b1580156115c057600080fd5b505afa1580156115d4573d6000803e3d6000fd5b505050506040513d6000823e3d601f19601f820116820180604052508101906115fd9190612694565b9050919050565b600760009054906101000a900473ffffffffffffffffffffffffffffffffffffffff1673ffffffffffffffffffffffffffffffffffffffff163373ffffffffffffffffffffffffffffffffffffffff16148061166657506116653382611948565b5b6116a5576040517f08c379a000000000000000000000000000000000000000000000000000000000815260040161169c90612be4565b60405180910390fd5b60006116c260036000848152602001908152602001600020611ed9565b905060005b815181101561173357600082828151811061170b577f4e487b7100000000000000000000000000000000000000000000000000000000600052603260045260246000fd5b6020026020010151905061171f8185611bde565b50808061172b906130b7565b9150506116c7565b505050565b6000600760009054906101000a900473ffffffffffffffffffffffffffffffffffffffff1673ffffffffffffffffffffffffffffffffffffffff1663e985e9c584846040518363ffffffff1660e01b8152600401611797929190612b3a565b60206040518083038186803b1580156117af57600080fd5b505afa1580156117c3573d6000803e3d6000fd5b505050506040513d601f19601f820116820180604052508101906117e79190612642565b905092915050565b6117f7611d4b565b600073ffffffffffffffffffffffffffffffffffffffff168173ffffffffffffffffffffffffffffffffffffffff161415611867576040517f08c379a000000000000000000000000000000000000000000000000000000000815260040161185e90612c04565b60405180910390fd5b61187081611dc9565b50565b6000600460008373ffffffffffffffffffffffffffffffffffffffff1673ffffffffffffffffffffffffffffffffffffffff16815260200190815260200160002060009054906101000a900460ff169050919050565b60007f01ffc9a7000000000000000000000000000000000000000000000000000000007bffffffffffffffffffffffffffffffffffffffffffffffffffffffff1916827bffffffffffffffffffffffffffffffffffffffffffffffffffffffff1916149050919050565b600061194182600001611efa565b9050919050565b600080600760009054906101000a900473ffffffffffffffffffffffffffffffffffffffff1673ffffffffffffffffffffffffffffffffffffffff16636352211e846040518263ffffffff1660e01b81526004016119a69190612de4565b60206040518083038186803b1580156119be57600080fd5b505afa1580156119d2573d6000803e3d6000fd5b505050506040513d601f19601f820116820180604052508101906119f69190612443565b90508073ffffffffffffffffffffffffffffffffffffffff168473ffffffffffffffffffffffffffffffffffffffff161480611b0757508373ffffffffffffffffffffffffffffffffffffffff16600760009054906101000a900473ffffffffffffffffffffffffffffffffffffffff1673ffffffffffffffffffffffffffffffffffffffff1663081812fc856040518263ffffffff1660e01b8152600401611a9f9190612de4565b60206040518083038186803b158015611ab757600080fd5b505afa158015611acb573d6000803e3d6000fd5b505050506040513d601f19601f82011682018060405250810190611aef9190612443565b73ffffffffffffffffffffffffffffffffffffffff16145b80611bbb5750600760009054906101000a900473ffffffffffffffffffffffffffffffffffffffff1673ffffffffffffffffffffffffffffffffffffffff1663e985e9c582866040518363ffffffff1660e01b8152600401611b6a929190612b3a565b60206040518083038186803b158015611b8257600080fd5b505afa158015611b96573d6000803e3d6000fd5b505050506040513d601f19601f82011682018060405250810190611bba9190612642565b5b91505092915050565b6000611bd6836000018360001b611f0b565b905092915050565b611c2f81600260008573ffffffffffffffffffffffffffffffffffffffff1673ffffffffffffffffffffffffffffffffffffffff168152602001908152602001600020611f2e90919063ffffffff16565b8015611c5c5750611c5b8260036000848152602001908152602001600020611f4890919063ffffffff16565b5b611c9b576040517f08c379a0000000000000000000000000000000000000000000000000000000008152600401611c9290612d44565b60405180910390fd5b80600073ffffffffffffffffffffffffffffffffffffffff168373ffffffffffffffffffffffffffffffffffffffff167fddf252ad1be2c89b69c2b068fc378daa952ba7f163c4a11628f55a4df523b3ef60405160405180910390a45050565b6000611d0a8360000183611f78565b60001c905092915050565b60606000611d2583600001611fc9565b905060608190508092505050919050565b6000611d4482600001611efa565b9050919050565b611d53612025565b73ffffffffffffffffffffffffffffffffffffffff16611d716113f5565b73ffffffffffffffffffffffffffffffffffffffff1614611dc7576040517f08c379a0000000000000000000000000000000000000000000000000000000008152600401611dbe90612ce4565b60405180910390fd5b565b6000600160009054906101000a900473ffffffffffffffffffffffffffffffffffffffff16905081600160006101000a81548173ffffffffffffffffffffffffffffffffffffffff021916908373ffffffffffffffffffffffffffffffffffffffff1602179055508173ffffffffffffffffffffffffffffffffffffffff168173ffffffffffffffffffffffffffffffffffffffff167f8be0079c531659141344cd1fd0a4f28419497f9722a3daafe3b4186f6b6457e060405160405180910390a35050565b6000611ea1836000018360001b61202d565b905092915050565b6000611ed1836000018373ffffffffffffffffffffffffffffffffffffffff1660001b61202d565b905092915050565b60606000611ee983600001611fc9565b905060608190508092505050919050565b600081600001805490509050919050565b600080836001016000848152602001908152602001600020541415905092915050565b6000611f40836000018360001b61209d565b905092915050565b6000611f70836000018373ffffffffffffffffffffffffffffffffffffffff1660001b61209d565b905092915050565b6000826000018281548110611fb6577f4e487b7100000000000000000000000000000000000000000000000000000000600052603260045260246000fd5b9060005260206000200154905092915050565b60608160000180548060200260200160405190810160405280929190818152602001828054801561201957602002820191906000526020600020905b815481526020019060010190808311612005575b50505050509050919050565b600033905090565b60006120398383611f0b565b612092578260000182908060018154018082558091505060019003906000526020600020016000909190919091505582600001805490508360010160008481526020019081526020016000208190555060019050612097565b600090505b92915050565b600080836001016000848152602001908152602001600020549050600081146122175760006001826120cf9190612f6a565b90506000600186600001805490506120e79190612f6a565b90508181146121a257600086600001828154811061212e577f4e487b7100000000000000000000000000000000000000000000000000000000600052603260045260246000fd5b9060005260206000200154905080876000018481548110612178577f4e487b7100000000000000000000000000000000000000000000000000000000600052603260045260246000fd5b90600052602060002001819055508387600101600083815260200190815260200160002081905550505b856000018054806121dc577f4e487b7100000000000000000000000000000000000000000000000000000000600052603160045260246000fd5b60019003818190600052602060002001600090559055856001016000868152602001908152602001600020600090556001935050505061221d565b60009150505b92915050565b600061223661223184612e24565b612dff565b90508281526020810184848401111561224e57600080fd5b612259848285613012565b509392505050565b600061227461226f84612e55565b612dff565b90508281526020810184848401111561228c57600080fd5b612297848285613021565b509392505050565b6000813590506122ae816135f6565b92915050565b6000815190506122c3816135f6565b92915050565b60008083601f8401126122db57600080fd5b8235905067ffffffffffffffff8111156122f457600080fd5b60208301915083602082028301111561230c57600080fd5b9250929050565b60008083601f84011261232557600080fd5b8235905067ffffffffffffffff81111561233e57600080fd5b60208301915083602082028301111561235657600080fd5b9250929050565b60008135905061236c8161360d565b92915050565b6000815190506123818161360d565b92915050565b60008135905061239681613624565b92915050565b600082601f8301126123ad57600080fd5b81356123bd848260208601612223565b91505092915050565b600082601f8301126123d757600080fd5b81516123e7848260208601612261565b91505092915050565b6000813590506123ff8161363b565b92915050565b6000815190506124148161363b565b92915050565b60006020828403121561242c57600080fd5b600061243a8482850161229f565b91505092915050565b60006020828403121561245557600080fd5b6000612463848285016122b4565b91505092915050565b6000806040838503121561247f57600080fd5b600061248d8582860161229f565b925050602061249e8582860161229f565b9150509250929050565b6000806000606084860312156124bd57600080fd5b60006124cb8682870161229f565b93505060206124dc8682870161229f565b92505060406124ed868287016123f0565b9150509250925092565b6000806000806080858703121561250d57600080fd5b600061251b8782880161229f565b945050602061252c8782880161229f565b935050604061253d878288016123f0565b925050606085013567ffffffffffffffff81111561255a57600080fd5b6125668782880161239c565b91505092959194509250565b60008060006040848603121561258757600080fd5b60006125958682870161229f565b935050602084013567ffffffffffffffff8111156125b257600080fd5b6125be86828701612313565b92509250509250925092565b600080604083850312156125dd57600080fd5b60006125eb8582860161229f565b92505060206125fc8582860161235d565b9150509250929050565b6000806040838503121561261957600080fd5b60006126278582860161229f565b9250506020612638858286016123f0565b9150509250929050565b60006020828403121561265457600080fd5b600061266284828501612372565b91505092915050565b60006020828403121561267d57600080fd5b600061268b84828501612387565b91505092915050565b6000602082840312156126a657600080fd5b600082015167ffffffffffffffff8111156126c057600080fd5b6126cc848285016123c6565b91505092915050565b6000602082840312156126e757600080fd5b60006126f5848285016123f0565b91505092915050565b60006020828403121561271057600080fd5b600061271e84828501612405565b91505092915050565b60008060006040848603121561273c57600080fd5b600061274a868287016123f0565b935050602084013567ffffffffffffffff81111561276757600080fd5b612773868287016122c9565b92509250509250925092565b600061278b83836127af565b60208301905092915050565b60006127a38383612b01565b60208301905092915050565b6127b881612f9e565b82525050565b6127c781612f9e565b82525050565b60006127d882612ea6565b6127e28185612ee1565b93506127ed83612e86565b8060005b8381101561281e578151612805888261277f565b975061281083612ec7565b9250506001810190506127f1565b5085935050505092915050565b600061283682612eb1565b6128408185612ef2565b935061284b83612e96565b8060005b8381101561287c5781516128638882612797565b975061286e83612ed4565b92505060018101905061284f565b5085935050505092915050565b61289281612fb0565b82525050565b60006128a382612ebc565b6128ad8185612f03565b93506128bd818560208601613021565b6128c68161318d565b840191505092915050565b60006128de603a83612f03565b91506128e98261319e565b604082019050919050565b6000612901602683612f03565b915061290c826131ed565b604082019050919050565b6000612924602783612f03565b915061292f8261323c565b604082019050919050565b6000612947603383612f03565b91506129528261328b565b604082019050919050565b600061296a602583612f03565b9150612975826132da565b604082019050919050565b600061298d602383612f03565b915061299882613329565b604082019050919050565b60006129b0602a83612f03565b91506129bb82613378565b604082019050919050565b60006129d3601e83612f03565b91506129de826133c7565b602082019050919050565b60006129f6602083612f03565b9150612a01826133f0565b602082019050919050565b6000612a19602683612f03565b9150612a2482613419565b604082019050919050565b6000612a3c602f83612f03565b9150612a4782613468565b604082019050919050565b6000612a5f601b83612f03565b9150612a6a826134b7565b602082019050919050565b6000612a82601383612f03565b9150612a8d826134e0565b602082019050919050565b6000612aa5602383612f03565b9150612ab082613509565b604082019050919050565b6000612ac8602683612f03565b9150612ad382613558565b604082019050919050565b6000612aeb603283612f03565b9150612af6826135a7565b604082019050919050565b612b0a81613008565b82525050565b612b1981613008565b82525050565b6000602082019050612b3460008301846127be565b92915050565b6000604082019050612b4f60008301856127be565b612b5c60208301846127be565b9392505050565b60006020820190508181036000830152612b7d81846127cd565b905092915050565b60006020820190508181036000830152612b9f818461282b565b905092915050565b6000602082019050612bbc6000830184612889565b92915050565b60006020820190508181036000830152612bdc8184612898565b905092915050565b60006020820190508181036000830152612bfd816128d1565b9050919050565b60006020820190508181036000830152612c1d816128f4565b9050919050565b60006020820190508181036000830152612c3d81612917565b9050919050565b60006020820190508181036000830152612c5d8161293a565b9050919050565b60006020820190508181036000830152612c7d8161295d565b9050919050565b60006020820190508181036000830152612c9d81612980565b9050919050565b60006020820190508181036000830152612cbd816129a3565b9050919050565b60006020820190508181036000830152612cdd816129c6565b9050919050565b60006020820190508181036000830152612cfd816129e9565b9050919050565b60006020820190508181036000830152612d1d81612a0c565b9050919050565b60006020820190508181036000830152612d3d81612a2f565b9050919050565b60006020820190508181036000830152612d5d81612a52565b9050919050565b60006020820190508181036000830152612d7d81612a75565b9050919050565b60006020820190508181036000830152612d9d81612a98565b9050919050565b60006020820190508181036000830152612dbd81612abb565b9050919050565b60006020820190508181036000830152612ddd81612ade565b9050919050565b6000602082019050612df96000830184612b10565b92915050565b6000612e09612e1a565b9050612e158282613086565b919050565b6000604051905090565b600067ffffffffffffffff821115612e3f57612e3e61315e565b5b612e488261318d565b9050602081019050919050565b600067ffffffffffffffff821115612e7057612e6f61315e565b5b612e798261318d565b9050602081019050919050565b6000819050602082019050919050565b6000819050602082019050919050565b600081519050919050565b600081519050919050565b600081519050919050565b6000602082019050919050565b6000602082019050919050565b600082825260208201905092915050565b600082825260208201905092915050565b600082825260208201905092915050565b6000612f1f82613008565b9150612f2a83613008565b9250827fffffffffffffffffffffffffffffffffffffffffffffffffffffffffffffffff03821115612f5f57612f5e613100565b5b828201905092915050565b6000612f7582613008565b9150612f8083613008565b925082821015612f9357612f92613100565b5b828203905092915050565b6000612fa982612fe8565b9050919050565b60008115159050919050565b60007fffffffff0000000000000000000000000000000000000000000000000000000082169050919050565b600073ffffffffffffffffffffffffffffffffffffffff82169050919050565b6000819050919050565b82818337600083830152505050565b60005b8381101561303f578082015181840152602081019050613024565b8381111561304e576000848401525b50505050565b6000600282049050600182168061306c57607f821691505b602082108114156130805761307f61312f565b5b50919050565b61308f8261318d565b810181811067ffffffffffffffff821117156130ae576130ad61315e565b5b80604052505050565b60006130c282613008565b91507fffffffffffffffffffffffffffffffffffffffffffffffffffffffffffffffff8214156130f5576130f4613100565b5b600182019050919050565b7f4e487b7100000000000000000000000000000000000000000000000000000000600052601160045260246000fd5b7f4e487b7100000000000000000000000000000000000000000000000000000000600052602260045260246000fd5b7f4e487b7100000000000000000000000000000000000000000000000000000000600052604160045260246000fd5b6000601f19601f8301169050919050565b7f53434152443a2063616c6c6572206973206e6f7420424341524420636f6e747260008201527f616374206e6f72206f776e6572206e6f7220617070726f766564000000000000602082015250565b7f4f776e61626c653a206e6577206f776e657220697320746865207a65726f206160008201527f6464726573730000000000000000000000000000000000000000000000000000602082015250565b7f53434152443a2063616c6c6572206973206e6f74206f776e6572206e6f72206160008201527f7070726f76656400000000000000000000000000000000000000000000000000602082015250565b7f53434152443a2072656365697665722077617320616c72656164792073656e7460008201527f2074686520536f756c626f756e64204361726400000000000000000000000000602082015250565b7f53434152443a2063616e6e6f7420617070726f766520536f756c626f756e642060008201527f4361726473000000000000000000000000000000000000000000000000000000602082015250565b7f53434152443a20746f6b656e206e6f7420696e2072656365697665722773206c60008201527f6973740000000000000000000000000000000000000000000000000000000000602082015250565b7f4552433732313a2062616c616e636520717565727920666f7220746865207a6560008201527f726f206164647265737300000000000000000000000000000000000000000000602082015250565b7f53434152443a2073656e64696e6720746f207a65726f20616464726573730000600082015250565b7f4f776e61626c653a2063616c6c6572206973206e6f7420746865206f776e6572600082015250565b7f53434152443a2063616e6e6f74207472616e7366657220536f756c626f756e6460008201527f2043617264730000000000000000000000000000000000000000000000000000602082015250565b7f53434152443a2063616c6c6572206973206e6f74206f776e6572206e6f72206160008201527f7070726f76656420666f7220616c6c0000000000000000000000000000000000602082015250565b7f53434152443a20746f6b656e206e6f74206f6e20746865207365740000000000600082015250565b7f496e646578206f7574206f6620626f756e647300000000000000000000000000600082015250565b7f53434152443a2073656e64696e6720636172642074686174206973206e6f742060008201527f6f776e0000000000000000000000000000000000000000000000000000000000602082015250565b7f53434152443a20726563656976657220626c61636b6c6973746564207468656d60008201527f73656c7665730000000000000000000000000000000000000000000000000000602082015250565b7f53434152443a2063616c6c6572206973206e6f74207265636569766572206e6f60008201527f7220617070726f76656420666f7220616c6c0000000000000000000000000000602082015250565b6135ff81612f9e565b811461360a57600080fd5b50565b61361681612fb0565b811461362157600080fd5b50565b61362d81612fbc565b811461363857600080fd5b50565b61364481613008565b811461364f57600080fd5b5056fea264697066735822122066e1f4993bf370b6428c600a597a16542c6938bb5c019b7468d9008b27e386a464736f6c63430008040033",
  "linkReferences": {},
  "deployedLinkReferences": {}
}