{
  "contractName": "BusinessCard",
  "abi": [
    {
      "inputs": [
        {
          "internalType": "string",
          "name": "name_",
          "type": "string"
        },
        {
          "internalType": "string",
          "name": "symbol_",
          "type": "string"
        },
        {
          "internalType": "string",
          "name": "baseURI_",
          "type": "string"
        },
        {
          "internalType": "string",
          "name": "defaultURI_",
          "type": "string"
        }
      ],
      "stateMutability": "nonpayable",
      "type": "constructor"
    },
    {
      "anonymous": false,
      "inputs": [
        {
          "indexed": true,
          "internalType": "address",
          "name": "owner",
          "type": "address"
        },
        {
          "indexed": true,
          "internalType": "address",
          "name": "approved",
          "type": "address"
        },
        {
          "indexed": true,
          "internalType": "uint256",
          "name": "tokenId",
          "type": "uint256"
        }
      ],
      "name": "Approval",
      "type": "event"
    },
    {
      "anonymous": false,
      "inputs": [
        {
          "indexed": true,
          "internalType": "address",
          "name": "owner",
          "type": "address"
        },
        {
          "indexed": true,
          "internalType": "address",
          "name": "operator",
          "type": "address"
        },
        {
          "indexed": false,
          "internalType": "bool",
          "name": "approved",
          "type": "bool"
        }
      ],
      "name": "ApprovalForAll",
      "type": "event"
    },
    {
      "anonymous": false,
      "inputs": [
        {
          "indexed": false,
          "internalType": "uint256",
          "name": "tokenId",
          "type": "uint256"
        },
        {
          "indexed": false,
          "internalType": "string",
          "name": "name",
          "type": "string"
        },
        {
          "indexed": false,
          "internalType": "string",
          "name": "position",
          "type": "string"
        },
        {
          "indexed": false,
          "internalType": "uint256",
          "name": "genes",
          "type": "uint256"
        }
      ],
      "name": "NewRequestEvent",
      "type": "event"
    },
    {
      "anonymous": false,
      "inputs": [
        {
          "indexed": false,
          "internalType": "address",
          "name": "serverOracle",
          "type": "address"
        }
      ],
      "name": "NewServerOracleEvent",
      "type": "event"
    },
    {
      "anonymous": false,
      "inputs": [
        {
          "indexed": false,
          "internalType": "uint256",
          "name": "newUpdatePrice",
          "type": "uint256"
        }
      ],
      "name": "NewUpdatePriceEvent",
      "type": "event"
    },
    {
      "anonymous": false,
      "inputs": [
        {
          "indexed": true,
          "internalType": "address",
          "name": "previousOwner",
          "type": "address"
        },
        {
          "indexed": true,
          "internalType": "address",
          "name": "newOwner",
          "type": "address"
        }
      ],
      "name": "OwnershipTransferred",
      "type": "event"
    },
    {
      "anonymous": false,
      "inputs": [
        {
          "indexed": false,
          "internalType": "uint256",
          "name": "tokenId",
          "type": "uint256"
        },
        {
          "indexed": false,
          "internalType": "string",
          "name": "tokenURI",
          "type": "string"
        }
      ],
      "name": "TokenURIUpdatedEvent",
      "type": "event"
    },
    {
      "anonymous": false,
      "inputs": [
        {
          "indexed": true,
          "internalType": "address",
          "name": "from",
          "type": "address"
        },
        {
          "indexed": true,
          "internalType": "address",
          "name": "to",
          "type": "address"
        },
        {
          "indexed": true,
          "internalType": "uint256",
          "name": "tokenId",
          "type": "uint256"
        }
      ],
      "name": "Transfer",
      "type": "event"
    },
    {
      "inputs": [],
      "name": "_mintPrice",
      "outputs": [
        {
          "internalType": "uint256",
          "name": "",
          "type": "uint256"
        }
      ],
      "stateMutability": "view",
      "type": "function",
      "constant": true
    },
    {
      "inputs": [],
      "name": "_oraclePrice",
      "outputs": [
        {
          "internalType": "uint256",
          "name": "",
          "type": "uint256"
        }
      ],
      "stateMutability": "view",
      "type": "function",
      "constant": true
    },
    {
      "inputs": [],
      "name": "_updatePrice",
      "outputs": [
        {
          "internalType": "uint256",
          "name": "",
          "type": "uint256"
        }
      ],
      "stateMutability": "view",
      "type": "function",
      "constant": true
    },
    {
      "inputs": [],
      "name": "maxSupply",
      "outputs": [
        {
          "internalType": "uint256",
          "name": "",
          "type": "uint256"
        }
      ],
      "stateMutability": "view",
      "type": "function",
      "constant": true
    },
    {
      "inputs": [],
      "name": "owner",
      "outputs": [
        {
          "internalType": "address",
          "name": "",
          "type": "address"
        }
      ],
      "stateMutability": "view",
      "type": "function",
      "constant": true
    },
    {
      "inputs": [],
      "name": "renounceOwnership",
      "outputs": [],
      "stateMutability": "nonpayable",
      "type": "function"
    },
    {
      "inputs": [
        {
          "internalType": "uint256",
          "name": "",
          "type": "uint256"
        }
      ],
      "name": "requests",
      "outputs": [
        {
          "internalType": "bool",
          "name": "",
          "type": "bool"
        }
      ],
      "stateMutability": "view",
      "type": "function",
      "constant": true
    },
    {
      "inputs": [],
      "name": "saleStarted",
      "outputs": [
        {
          "internalType": "bool",
          "name": "",
          "type": "bool"
        }
      ],
      "stateMutability": "view",
      "type": "function",
      "constant": true
    },
    {
      "inputs": [
        {
          "internalType": "bytes4",
          "name": "interfaceId",
          "type": "bytes4"
        }
      ],
      "name": "supportsInterface",
      "outputs": [
        {
          "internalType": "bool",
          "name": "",
          "type": "bool"
        }
      ],
      "stateMutability": "view",
      "type": "function",
      "constant": true
    },
    {
      "inputs": [
        {
          "internalType": "address",
          "name": "newOwner",
          "type": "address"
        }
      ],
      "name": "transferOwnership",
      "outputs": [],
      "stateMutability": "nonpayable",
      "type": "function"
    },
    {
      "inputs": [
        {
          "internalType": "address",
          "name": "_serverOracle",
          "type": "address"
        }
      ],
      "name": "setOracle",
      "outputs": [],
      "stateMutability": "nonpayable",
      "type": "function"
    },
    {
      "inputs": [
        {
          "internalType": "uint256",
          "name": "newUpdatePrice",
          "type": "uint256"
        }
      ],
      "name": "modifyUpdatePrice",
      "outputs": [],
      "stateMutability": "nonpayable",
      "type": "function"
    },
    {
      "inputs": [
        {
          "internalType": "uint256",
          "name": "_tokenId",
          "type": "uint256"
        },
        {
          "internalType": "string",
          "name": "_tokenURI",
          "type": "string"
        }
      ],
      "name": "callback",
      "outputs": [],
      "stateMutability": "nonpayable",
      "type": "function"
    },
    {
      "inputs": [
        {
          "internalType": "string",
          "name": "_cardName",
          "type": "string"
        },
        {
          "internalType": "string",
          "name": "_cardPosition",
          "type": "string"
        }
      ],
      "name": "getCard",
      "outputs": [],
      "stateMutability": "payable",
      "type": "function",
      "payable": true
    },
    {
      "inputs": [
        {
          "internalType": "uint256",
          "name": "tokenId",
          "type": "uint256"
        },
        {
          "internalType": "string",
          "name": "newName",
          "type": "string"
        },
        {
          "internalType": "string",
          "name": "newPosition",
          "type": "string"
        }
      ],
      "name": "changeNameAndOrPosition",
      "outputs": [],
      "stateMutability": "payable",
      "type": "function",
      "payable": true
    },
    {
      "inputs": [
        {
          "internalType": "uint256",
          "name": "tokenId1",
          "type": "uint256"
        },
        {
          "internalType": "uint256",
          "name": "tokenId2",
          "type": "uint256"
        }
      ],
      "name": "swapNameAndPosition",
      "outputs": [],
      "stateMutability": "payable",
      "type": "function",
      "payable": true
    },
    {
      "inputs": [
        {
          "internalType": "uint256",
          "name": "tokenId",
          "type": "uint256"
        }
      ],
      "name": "updateTokenURI",
      "outputs": [],
      "stateMutability": "nonpayable",
      "type": "function"
    },
    {
      "inputs": [],
      "name": "startSale",
      "outputs": [],
      "stateMutability": "nonpayable",
      "type": "function"
    },
    {
      "inputs": [],
      "name": "pauseSale",
      "outputs": [],
      "stateMutability": "nonpayable",
      "type": "function"
    },
    {
      "inputs": [
        {
          "internalType": "uint256",
          "name": "tokenId",
          "type": "uint256"
        }
      ],
      "name": "tokenStats",
      "outputs": [
        {
          "components": [
            {
              "internalType": "uint256",
              "name": "genes",
              "type": "uint256"
            },
            {
              "internalType": "string",
              "name": "name",
              "type": "string"
            },
            {
              "internalType": "string",
              "name": "position",
              "type": "string"
            }
          ],
          "internalType": "struct BusinessCard.Card",
          "name": "",
          "type": "tuple"
        }
      ],
      "stateMutability": "view",
      "type": "function",
      "constant": true
    },
    {
      "inputs": [
        {
          "internalType": "uint256",
          "name": "tokenId",
          "type": "uint256"
        }
      ],
      "name": "tokenURI",
      "outputs": [
        {
          "internalType": "string",
          "name": "",
          "type": "string"
        }
      ],
      "stateMutability": "view",
      "type": "function",
      "constant": true
    },
    {
      "inputs": [
        {
          "internalType": "string",
          "name": "newBaseURI",
          "type": "string"
        }
      ],
      "name": "setBaseURI",
      "outputs": [],
      "stateMutability": "nonpayable",
      "type": "function"
    },
    {
      "inputs": [],
      "name": "defaultURI",
      "outputs": [
        {
          "internalType": "string",
          "name": "",
          "type": "string"
        }
      ],
      "stateMutability": "view",
      "type": "function",
      "constant": true
    },
    {
      "inputs": [
        {
          "internalType": "string",
          "name": "newDefaultURI",
          "type": "string"
        }
      ],
      "name": "setDefaultURI",
      "outputs": [],
      "stateMutability": "nonpayable",
      "type": "function"
    },
    {
      "inputs": [
        {
          "internalType": "string",
          "name": "nameString",
          "type": "string"
        }
      ],
      "name": "isNameReserved",
      "outputs": [
        {
          "internalType": "bool",
          "name": "",
          "type": "bool"
        }
      ],
      "stateMutability": "view",
      "type": "function",
      "constant": true
    },
    {
      "inputs": [],
      "name": "withdraw",
      "outputs": [],
      "stateMutability": "nonpayable",
      "type": "function"
    },
    {
      "inputs": [
        {
          "internalType": "address",
          "name": "owner",
          "type": "address"
        }
      ],
      "name": "balanceOf",
      "outputs": [
        {
          "internalType": "uint256",
          "name": "",
          "type": "uint256"
        }
      ],
      "stateMutability": "view",
      "type": "function",
      "constant": true
    },
    {
      "inputs": [
        {
          "internalType": "uint256",
          "name": "tokenId",
          "type": "uint256"
        }
      ],
      "name": "ownerOf",
      "outputs": [
        {
          "internalType": "address",
          "name": "",
          "type": "address"
        }
      ],
      "stateMutability": "view",
      "type": "function",
      "constant": true
    },
    {
      "inputs": [],
      "name": "name",
      "outputs": [
        {
          "internalType": "string",
          "name": "",
          "type": "string"
        }
      ],
      "stateMutability": "view",
      "type": "function",
      "constant": true
    },
    {
      "inputs": [],
      "name": "symbol",
      "outputs": [
        {
          "internalType": "string",
          "name": "",
          "type": "string"
        }
      ],
      "stateMutability": "view",
      "type": "function",
      "constant": true
    },
    {
      "inputs": [],
      "name": "baseURI",
      "outputs": [
        {
          "internalType": "string",
          "name": "",
          "type": "string"
        }
      ],
      "stateMutability": "view",
      "type": "function",
      "constant": true
    },
    {
      "inputs": [
        {
          "internalType": "address",
          "name": "owner",
          "type": "address"
        },
        {
          "internalType": "uint256",
          "name": "index",
          "type": "uint256"
        }
      ],
      "name": "tokenOfOwnerByIndex",
      "outputs": [
        {
          "internalType": "uint256",
          "name": "",
          "type": "uint256"
        }
      ],
      "stateMutability": "view",
      "type": "function",
      "constant": true
    },
    {
      "inputs": [],
      "name": "totalSupply",
      "outputs": [
        {
          "internalType": "uint256",
          "name": "",
          "type": "uint256"
        }
      ],
      "stateMutability": "view",
      "type": "function",
      "constant": true
    },
    {
      "inputs": [
        {
          "internalType": "uint256",
          "name": "index",
          "type": "uint256"
        }
      ],
      "name": "tokenByIndex",
      "outputs": [
        {
          "internalType": "uint256",
          "name": "",
          "type": "uint256"
        }
      ],
      "stateMutability": "view",
      "type": "function",
      "constant": true
    },
    {
      "inputs": [
        {
          "internalType": "address",
          "name": "to",
          "type": "address"
        },
        {
          "internalType": "uint256",
          "name": "tokenId",
          "type": "uint256"
        }
      ],
      "name": "approve",
      "outputs": [],
      "stateMutability": "nonpayable",
      "type": "function"
    },
    {
      "inputs": [
        {
          "internalType": "uint256",
          "name": "tokenId",
          "type": "uint256"
        }
      ],
      "name": "getApproved",
      "outputs": [
        {
          "internalType": "address",
          "name": "",
          "type": "address"
        }
      ],
      "stateMutability": "view",
      "type": "function",
      "constant": true
    },
    {
      "inputs": [
        {
          "internalType": "address",
          "name": "operator",
          "type": "address"
        },
        {
          "internalType": "bool",
          "name": "approved",
          "type": "bool"
        }
      ],
      "name": "setApprovalForAll",
      "outputs": [],
      "stateMutability": "nonpayable",
      "type": "function"
    },
    {
      "inputs": [
        {
          "internalType": "address",
          "name": "owner",
          "type": "address"
        },
        {
          "internalType": "address",
          "name": "operator",
          "type": "address"
        }
      ],
      "name": "isApprovedForAll",
      "outputs": [
        {
          "internalType": "bool",
          "name": "",
          "type": "bool"
        }
      ],
      "stateMutability": "view",
      "type": "function",
      "constant": true
    },
    {
      "inputs": [
        {
          "internalType": "address",
          "name": "from",
          "type": "address"
        },
        {
          "internalType": "address",
          "name": "to",
          "type": "address"
        },
        {
          "internalType": "uint256",
          "name": "tokenId",
          "type": "uint256"
        }
      ],
      "name": "transferFrom",
      "outputs": [],
      "stateMutability": "nonpayable",
      "type": "function"
    },
    {
      "inputs": [
        {
          "internalType": "address",
          "name": "from",
          "type": "address"
        },
        {
          "internalType": "address",
          "name": "to",
          "type": "address"
        },
        {
          "internalType": "uint256",
          "name": "tokenId",
          "type": "uint256"
        }
      ],
      "name": "safeTransferFrom",
      "outputs": [],
      "stateMutability": "nonpayable",
      "type": "function"
    },
    {
      "inputs": [
        {
          "internalType": "address",
          "name": "from",
          "type": "address"
        },
        {
          "internalType": "address",
          "name": "to",
          "type": "address"
        },
        {
          "internalType": "uint256",
          "name": "tokenId",
          "type": "uint256"
        },
        {
          "internalType": "bytes",
          "name": "_data",
          "type": "bytes"
        }
      ],
      "name": "safeTransferFrom",
      "outputs": [],
      "stateMutability": "nonpayable",
      "type": "function"
    }
  ],
  "bytecode": "0x60806040526000600d5567016345785d8a000060135566b1a2bc2ec5000060145566354a6ba7a180006015553480156200003857600080fd5b50604051620065d4380380620065d483398181016040528101906200005e91906200053f565b620000766301ffc9a760e01b6200014c60201b60201c565b620000966200008a6200022460201b60201c565b6200022c60201b60201c565b8360089080519060200190620000ae929190620002f2565b508260099080519060200190620000c7929190620002f2565b5081600b9080519060200190620000e0929190620002f2565b508060109080519060200190620000f9929190620002f2565b50620001126380ac58cd60e01b6200014c60201b60201c565b6200012a635b5e139f60e01b6200014c60201b60201c565b6200014263780e9d6360e01b6200014c60201b60201c565b5050505062000715565b63ffffffff60e01b817bffffffffffffffffffffffffffffffffffffffffffffffffffffffff19161415620001b8576040517f08c379a0000000000000000000000000000000000000000000000000000000008152600401620001af906200068e565b60405180910390fd5b6001600080837bffffffffffffffffffffffffffffffffffffffffffffffffffffffff19167bffffffffffffffffffffffffffffffffffffffffffffffffffffffff1916815260200190815260200160002060006101000a81548160ff02191690831515021790555050565b600033905090565b6000600160009054906101000a900473ffffffffffffffffffffffffffffffffffffffff16905081600160006101000a81548173ffffffffffffffffffffffffffffffffffffffff021916908373ffffffffffffffffffffffffffffffffffffffff1602179055508173ffffffffffffffffffffffffffffffffffffffff168173ffffffffffffffffffffffffffffffffffffffff167f8be0079c531659141344cd1fd0a4f28419497f9722a3daafe3b4186f6b6457e060405160405180910390a35050565b8280546200030090620006df565b90600052602060002090601f01602090048101928262000324576000855562000370565b82601f106200033f57805160ff191683800117855562000370565b8280016001018555821562000370579182015b828111156200036f57825182559160200191906001019062000352565b5b5090506200037f919062000383565b5090565b5b808211156200039e57600081600090555060010162000384565b5090565b6000604051905090565b600080fd5b600080fd5b600080fd5b600080fd5b6000601f19601f8301169050919050565b7f4e487b7100000000000000000000000000000000000000000000000000000000600052604160045260246000fd5b6200040b82620003c0565b810181811067ffffffffffffffff821117156200042d576200042c620003d1565b5b80604052505050565b600062000442620003a2565b905062000450828262000400565b919050565b600067ffffffffffffffff821115620004735762000472620003d1565b5b6200047e82620003c0565b9050602081019050919050565b60005b83811015620004ab5780820151818401526020810190506200048e565b83811115620004bb576000848401525b50505050565b6000620004d8620004d28462000455565b62000436565b905082815260208101848484011115620004f757620004f6620003bb565b5b620005048482856200048b565b509392505050565b600082601f830112620005245762000523620003b6565b5b815162000536848260208601620004c1565b91505092915050565b600080600080608085870312156200055c576200055b620003ac565b5b600085015167ffffffffffffffff8111156200057d576200057c620003b1565b5b6200058b878288016200050c565b945050602085015167ffffffffffffffff811115620005af57620005ae620003b1565b5b620005bd878288016200050c565b935050604085015167ffffffffffffffff811115620005e157620005e0620003b1565b5b620005ef878288016200050c565b925050606085015167ffffffffffffffff811115620006135762000612620003b1565b5b62000621878288016200050c565b91505092959194509250565b600082825260208201905092915050565b7f4552433136353a20696e76616c696420696e7465726661636520696400000000600082015250565b600062000676601c836200062d565b915062000683826200063e565b602082019050919050565b60006020820190508181036000830152620006a98162000667565b9050919050565b7f4e487b7100000000000000000000000000000000000000000000000000000000600052602260045260246000fd5b60006002820490506001821680620006f857607f821691505b602082108114156200070f576200070e620006b0565b5b50919050565b615eaf80620007256000396000f3fe6080604052600436106102465760003560e01c80636c0360eb11610139578063b69a375d116100b6578063d5abeb011161007a578063d5abeb011461084c578063da1b9e0814610877578063e926ca95146108a0578063e985e9c5146108dd578063ecf7db851461091a578063f2fde38b1461093657610246565b8063b69a375d14610769578063b88d4fde14610792578063c6716137146107bb578063c87b56dd146107e4578063c9eea77c1461082157610246565b806381d12c58116100fd57806381d12c58146106965780638da5cb5b146106d357806395d89b41146106fe578063a22cb46514610729578063b66a0e5d1461075257610246565b80636c0360eb146105d257806370a08231146105fd578063715018a61461063a5780637adbf973146106515780637ba5201b1461067a57610246565b80633a367a67116101c757806355f804b31161018b57806355f804b3146104ed5780635788d45d146105165780635bca2016146105415780635c474f9e1461056a5780636352211e1461059557610246565b80633a367a671461042e5780633ccfd60b1461045957806342842e0e146104705780634f6ccce71461049957806355367ba9146104d657610246565b806315b56d101161020e57806315b56d101461034457806318160ddd14610381578063184461c1146103ac57806323b872dd146103c85780632f745c59146103f157610246565b806301ffc9a71461024b5780630387da421461028857806306fdde03146102b3578063081812fc146102de578063095ea7b31461031b575b600080fd5b34801561025757600080fd5b50610272600480360381019061026d91906140c4565b61095f565b60405161027f919061410c565b60405180910390f35b34801561029457600080fd5b5061029d6109c6565b6040516102aa9190614140565b60405180910390f35b3480156102bf57600080fd5b506102c86109cc565b6040516102d591906141f4565b60405180910390f35b3480156102ea57600080fd5b5061030560048036038101906103009190614242565b610a5e565b60405161031291906142b0565b60405180910390f35b34801561032757600080fd5b50610342600480360381019061033d91906142f7565b610ae3565b005b34801561035057600080fd5b5061036b6004803603810190610366919061446c565b610bfb565b604051610378919061410c565b60405180910390f35b34801561038d57600080fd5b50610396610c38565b6040516103a39190614140565b60405180910390f35b6103c660048036038101906103c191906144b5565b610c49565b005b3480156103d457600080fd5b506103ef60048036038101906103ea91906144f5565b610f33565b005b3480156103fd57600080fd5b50610418600480360381019061041391906142f7565b610f93565b6040516104259190614140565b60405180910390f35b34801561043a57600080fd5b50610443611038565b60405161045091906141f4565b60405180910390f35b34801561046557600080fd5b5061046e6110ca565b005b34801561047c57600080fd5b50610497600480360381019061049291906144f5565b611195565b005b3480156104a557600080fd5b506104c060048036038101906104bb9190614242565b6111b5565b6040516104cd9190614140565b60405180910390f35b3480156104e257600080fd5b506104eb611222565b005b3480156104f957600080fd5b50610514600480360381019061050f919061446c565b6112bb565b005b34801561052257600080fd5b5061052b61135f565b6040516105389190614140565b60405180910390f35b34801561054d57600080fd5b5061056860048036038101906105639190614242565b611365565b005b34801561057657600080fd5b5061057f6113ed565b60405161058c919061410c565b60405180910390f35b3480156105a157600080fd5b506105bc60048036038101906105b79190614242565b611400565b6040516105c991906142b0565b60405180910390f35b3480156105de57600080fd5b506105e7611437565b6040516105f491906141f4565b60405180910390f35b34801561060957600080fd5b50610624600480360381019061061f9190614548565b6114c9565b6040516106319190614140565b60405180910390f35b34801561064657600080fd5b5061064f611588565b005b34801561065d57600080fd5b5061067860048036038101906106739190614548565b611610565b005b610694600480360381019061068f9190614575565b611763565b005b3480156106a257600080fd5b506106bd60048036038101906106b89190614242565b611873565b6040516106ca919061410c565b60405180910390f35b3480156106df57600080fd5b506106e8611893565b6040516106f591906142b0565b60405180910390f35b34801561070a57600080fd5b506107136118bd565b60405161072091906141f4565b60405180910390f35b34801561073557600080fd5b50610750600480360381019061074b9190614619565b61194f565b005b34801561075e57600080fd5b50610767611ad0565b005b34801561077557600080fd5b50610790600480360381019061078b9190614659565b611bc5565b005b34801561079e57600080fd5b506107b960048036038101906107b49190614756565b611cba565b005b3480156107c757600080fd5b506107e260048036038101906107dd9190614242565b611d1c565b005b3480156107f057600080fd5b5061080b60048036038101906108069190614242565b611dea565b60405161081891906141f4565b60405180910390f35b34801561082d57600080fd5b50610836611f48565b6040516108439190614140565b60405180910390f35b34801561085857600080fd5b50610861611f4e565b60405161086e9190614140565b60405180910390f35b34801561088357600080fd5b5061089e6004803603810190610899919061446c565b611f54565b005b3480156108ac57600080fd5b506108c760048036038101906108c29190614242565b61202e565b6040516108d49190614889565b60405180910390f35b3480156108e957600080fd5b5061090460048036038101906108ff91906148ab565b612189565b604051610911919061410c565b60405180910390f35b610934600480360381019061092f91906148eb565b61221d565b005b34801561094257600080fd5b5061095d60048036038101906109589190614548565b6124ae565b005b6000806000837bffffffffffffffffffffffffffffffffffffffffffffffffffffffff19167bffffffffffffffffffffffffffffffffffffffffffffffffffffffff1916815260200190815260200160002060009054906101000a900460ff169050919050565b60135481565b6060600880546109db906149a5565b80601f0160208091040260200160405190810160405280929190818152602001828054610a07906149a5565b8015610a545780601f10610a2957610100808354040283529160200191610a54565b820191906000526020600020905b815481529060010190602001808311610a3757829003601f168201915b5050505050905090565b6000610a69826125a6565b610aa8576040517f08c379a0000000000000000000000000000000000000000000000000000000008152600401610a9f90614a49565b60405180910390fd5b6006600083815260200190815260200160002060009054906101000a900473ffffffffffffffffffffffffffffffffffffffff169050919050565b6000610aee82611400565b90508073ffffffffffffffffffffffffffffffffffffffff168373ffffffffffffffffffffffffffffffffffffffff161415610b5f576040517f08c379a0000000000000000000000000000000000000000000000000000000008152600401610b5690614adb565b60405180910390fd5b8073ffffffffffffffffffffffffffffffffffffffff16610b7e6125c3565b73ffffffffffffffffffffffffffffffffffffffff161480610bad5750610bac81610ba76125c3565b612189565b5b610bec576040517f08c379a0000000000000000000000000000000000000000000000000000000008152600401610be390614b6d565b60405180910390fd5b610bf683836125cb565b505050565b6000600f610c0883612684565b604051610c159190614bc9565b908152602001604051809103902060009054906101000a900460ff169050919050565b6000610c44600361283a565b905090565b610c5a610c546125c3565b8361284f565b8015610c735750610c72610c6c6125c3565b8261284f565b5b610cb2576040517f08c379a0000000000000000000000000000000000000000000000000000000008152600401610ca990614c2c565b60405180910390fd5b601454341015610cf7576040517f08c379a0000000000000000000000000000000000000000000000000000000008152600401610cee90614c98565b60405180910390fd5b6000600e60008481526020019081526020016000206001018054610d1a906149a5565b80601f0160208091040260200160405190810160405280929190818152602001828054610d46906149a5565b8015610d935780601f10610d6857610100808354040283529160200191610d93565b820191906000526020600020905b815481529060010190602001808311610d7657829003601f168201915b505050505090506000600e60008581526020019081526020016000206002018054610dbd906149a5565b80601f0160208091040260200160405190810160405280929190818152602001828054610de9906149a5565b8015610e365780601f10610e0b57610100808354040283529160200191610e36565b820191906000526020600020905b815481529060010190602001808311610e1957829003601f168201915b50505050509050600e6000848152602001908152602001600020600101600e6000868152602001908152602001600020600101908054610e75906149a5565b610e80929190613f07565b50600e6000848152602001908152602001600020600201600e6000868152602001908152602001600020600201908054610eb9906149a5565b610ec4929190613f07565b5081600e60008581526020019081526020016000206001019080519060200190610eef929190613f94565b5080600e60008581526020019081526020016000206002019080519060200190610f1a929190613f94565b50610f248461292d565b610f2d8361292d565b50505050565b610f44610f3e6125c3565b8261284f565b610f83576040517f08c379a0000000000000000000000000000000000000000000000000000000008152600401610f7a90614d2a565b60405180910390fd5b610f8e838383612b49565b505050565b6000610f9e836114c9565b8210610fdf576040517f08c379a0000000000000000000000000000000000000000000000000000000008152600401610fd690614d96565b60405180910390fd5b61103082600260008673ffffffffffffffffffffffffffffffffffffffff1673ffffffffffffffffffffffffffffffffffffffff168152602001908152602001600020612d6090919063ffffffff16565b905092915050565b606060108054611047906149a5565b80601f0160208091040260200160405190810160405280929190818152602001828054611073906149a5565b80156110c05780601f10611095576101008083540402835291602001916110c0565b820191906000526020600020905b8154815290600101906020018083116110a357829003601f168201915b5050505050905090565b6110d26125c3565b73ffffffffffffffffffffffffffffffffffffffff166110f0611893565b73ffffffffffffffffffffffffffffffffffffffff1614611146576040517f08c379a000000000000000000000000000000000000000000000000000000000815260040161113d90614e02565b60405180910390fd5b60004790503373ffffffffffffffffffffffffffffffffffffffff166108fc829081150290604051600060405180830381858888f19350505050158015611191573d6000803e3d6000fd5b5050565b6111b083838360405180602001604052806000815250611cba565b505050565b60006111bf610c38565b8210611200576040517f08c379a00000000000000000000000000000000000000000000000000000000081526004016111f790614d96565b60405180910390fd5b6000611216836003612d7a90919063ffffffff16565b50905080915050919050565b61122a6125c3565b73ffffffffffffffffffffffffffffffffffffffff16611248611893565b73ffffffffffffffffffffffffffffffffffffffff161461129e576040517f08c379a000000000000000000000000000000000000000000000000000000000815260040161129590614e02565b60405180910390fd5b6000600c60006101000a81548160ff021916908315150217905550565b6112c36125c3565b73ffffffffffffffffffffffffffffffffffffffff166112e1611893565b73ffffffffffffffffffffffffffffffffffffffff1614611337576040517f08c379a000000000000000000000000000000000000000000000000000000000815260040161132e90614e02565b60405180910390fd5b600081511161134557600080fd5b80600b908051906020019061135b929190613f94565b5050565b60155481565b61136d6125c3565b73ffffffffffffffffffffffffffffffffffffffff1661138b611893565b73ffffffffffffffffffffffffffffffffffffffff16146113e1576040517f08c379a00000000000000000000000000000000000000000000000000000000081526004016113d890614e02565b60405180910390fd5b6113ea8161292d565b50565b600c60009054906101000a900460ff1681565b600061143082604051806060016040528060298152602001615e51602991396003612da69092919063ffffffff16565b9050919050565b6060600b8054611446906149a5565b80601f0160208091040260200160405190810160405280929190818152602001828054611472906149a5565b80156114bf5780601f10611494576101008083540402835291602001916114bf565b820191906000526020600020905b8154815290600101906020018083116114a257829003601f168201915b5050505050905090565b60008073ffffffffffffffffffffffffffffffffffffffff168273ffffffffffffffffffffffffffffffffffffffff16141561153a576040517f08c379a000000000000000000000000000000000000000000000000000000000815260040161153190614e94565b60405180910390fd5b611581600260008473ffffffffffffffffffffffffffffffffffffffff1673ffffffffffffffffffffffffffffffffffffffff168152602001908152602001600020612dc5565b9050919050565b6115906125c3565b73ffffffffffffffffffffffffffffffffffffffff166115ae611893565b73ffffffffffffffffffffffffffffffffffffffff1614611604576040517f08c379a00000000000000000000000000000000000000000000000000000000081526004016115fb90614e02565b60405180910390fd5b61160e6000612dda565b565b6116186125c3565b73ffffffffffffffffffffffffffffffffffffffff16611636611893565b73ffffffffffffffffffffffffffffffffffffffff161461168c576040517f08c379a000000000000000000000000000000000000000000000000000000000815260040161168390614e02565b60405180910390fd5b600073ffffffffffffffffffffffffffffffffffffffff168173ffffffffffffffffffffffffffffffffffffffff1614156116c657600080fd5b80601160006101000a81548173ffffffffffffffffffffffffffffffffffffffff021916908373ffffffffffffffffffffffffffffffffffffffff1602179055507f932ea0b1afa1d26b4067f5d27d6cf763d28c01dd14d61a1920fd2137e0de45f0601160009054906101000a900473ffffffffffffffffffffffffffffffffffffffff1660405161175891906142b0565b60405180910390a150565b60011515600c60009054906101000a900460ff161515146117b9576040517f08c379a00000000000000000000000000000000000000000000000000000000081526004016117b090614f00565b60405180910390fd5b6104576117c4610c38565b10611804576040517f08c379a00000000000000000000000000000000000000000000000000000000081526004016117fb90614f6c565b60405180910390fd5b601354341015611849576040517f08c379a000000000000000000000000000000000000000000000000000000000815260040161184090614c98565b60405180910390fd5b61186f6118546125c3565b600161185e610c38565b6118689190614fbb565b8484612ea0565b5050565b60126020528060005260406000206000915054906101000a900460ff1681565b6000600160009054906101000a900473ffffffffffffffffffffffffffffffffffffffff16905090565b6060600980546118cc906149a5565b80601f01602080910402602001604051908101604052809291908181526020018280546118f8906149a5565b80156119455780601f1061191a57610100808354040283529160200191611945565b820191906000526020600020905b81548152906001019060200180831161192857829003601f168201915b5050505050905090565b6119576125c3565b73ffffffffffffffffffffffffffffffffffffffff168273ffffffffffffffffffffffffffffffffffffffff1614156119c5576040517f08c379a00000000000000000000000000000000000000000000000000000000081526004016119bc9061505d565b60405180910390fd5b80600760006119d26125c3565b73ffffffffffffffffffffffffffffffffffffffff1673ffffffffffffffffffffffffffffffffffffffff16815260200190815260200160002060008473ffffffffffffffffffffffffffffffffffffffff1673ffffffffffffffffffffffffffffffffffffffff16815260200190815260200160002060006101000a81548160ff0219169083151502179055508173ffffffffffffffffffffffffffffffffffffffff16611a7f6125c3565b73ffffffffffffffffffffffffffffffffffffffff167f17307eab39ab6107e8899845ad3d59bd9653f200f220920489ca2b5937696c3183604051611ac4919061410c565b60405180910390a35050565b611ad86125c3565b73ffffffffffffffffffffffffffffffffffffffff16611af6611893565b73ffffffffffffffffffffffffffffffffffffffff1614611b4c576040517f08c379a0000000000000000000000000000000000000000000000000000000008152600401611b4390614e02565b60405180910390fd5b600073ffffffffffffffffffffffffffffffffffffffff16601160009054906101000a900473ffffffffffffffffffffffffffffffffffffffff1673ffffffffffffffffffffffffffffffffffffffff161415611ba857600080fd5b6001600c60006101000a81548160ff021916908315150217905550565b601160009054906101000a900473ffffffffffffffffffffffffffffffffffffffff1673ffffffffffffffffffffffffffffffffffffffff16611c066125c3565b73ffffffffffffffffffffffffffffffffffffffff1614611c2657600080fd5b6012600083815260200190815260200160002060009054906101000a900460ff16611c5057600080fd5b611c5a828261306c565b6012600083815260200190815260200160002060006101000a81549060ff02191690557f7ac6eb6143ada0ab3dd8580f874349927c954c565e0c2dad6ab69fb35ba02f628282604051611cae92919061507d565b60405180910390a15050565b611ccb611cc56125c3565b8361284f565b611d0a576040517f08c379a0000000000000000000000000000000000000000000000000000000008152600401611d0190614d2a565b60405180910390fd5b611d16848484846130e0565b50505050565b611d246125c3565b73ffffffffffffffffffffffffffffffffffffffff16611d42611893565b73ffffffffffffffffffffffffffffffffffffffff1614611d98576040517f08c379a0000000000000000000000000000000000000000000000000000000008152600401611d8f90614e02565b60405180910390fd5b601554811015611da757600080fd5b806014819055507f80f13d6a815604566b25194985010bd2f56a54477b4b1072c53381d66a9283ff601454604051611ddf9190614140565b60405180910390a150565b6060611df5826125a6565b611e34576040517f08c379a0000000000000000000000000000000000000000000000000000000008152600401611e2b9061511f565b60405180910390fd5b6000600a60008481526020019081526020016000208054611e54906149a5565b80601f0160208091040260200160405190810160405280929190818152602001828054611e80906149a5565b8015611ecd5780601f10611ea257610100808354040283529160200191611ecd565b820191906000526020600020905b815481529060010190602001808311611eb057829003601f168201915b50505050509050600081511415611f1657611ee6611437565b611eee611038565b604051602001611eff92919061513f565b604051602081830303815290604052915050611f43565b611f1e611437565b81604051602001611f3092919061513f565b6040516020818303038152906040529150505b919050565b60145481565b61045781565b611f5c6125c3565b73ffffffffffffffffffffffffffffffffffffffff16611f7a611893565b73ffffffffffffffffffffffffffffffffffffffff1614611fd0576040517f08c379a0000000000000000000000000000000000000000000000000000000008152600401611fc790614e02565b60405180910390fd5b6000815111612014576040517f08c379a000000000000000000000000000000000000000000000000000000000815260040161200b906151af565b60405180910390fd5b806010908051906020019061202a929190613f94565b5050565b61203661401a565b600e60008381526020019081526020016000206040518060600160405290816000820154815260200160018201805461206e906149a5565b80601f016020809104026020016040519081016040528092919081815260200182805461209a906149a5565b80156120e75780601f106120bc576101008083540402835291602001916120e7565b820191906000526020600020905b8154815290600101906020018083116120ca57829003601f168201915b50505050508152602001600282018054612100906149a5565b80601f016020809104026020016040519081016040528092919081815260200182805461212c906149a5565b80156121795780601f1061214e57610100808354040283529160200191612179565b820191906000526020600020905b81548152906001019060200180831161215c57829003601f168201915b5050505050815250509050919050565b6000600760008473ffffffffffffffffffffffffffffffffffffffff1673ffffffffffffffffffffffffffffffffffffffff16815260200190815260200160002060008373ffffffffffffffffffffffffffffffffffffffff1673ffffffffffffffffffffffffffffffffffffffff16815260200190815260200160002060009054906101000a900460ff16905092915050565b61222e6122286125c3565b8461284f565b61226d576040517f08c379a000000000000000000000000000000000000000000000000000000000815260040161226490614c2c565b60405180910390fd5b6000151561227a83610bfb565b15151480156122a157506000825114806122a057506001151561229c8361313c565b1515145b5b6122e0576040517f08c379a00000000000000000000000000000000000000000000000000000000081526004016122d79061521b565b60405180910390fd5b6000815114806122fc5750600115156122f882613275565b1515145b61233b576040517f08c379a000000000000000000000000000000000000000000000000000000000815260040161233290615287565b60405180910390fd5b601454341015612380576040517f08c379a000000000000000000000000000000000000000000000000000000000815260040161237790614c98565b60405180910390fd5b60008251111561246a57612433600e600085815260200190815260200160002060010180546123ae906149a5565b80601f01602080910402602001604051908101604052809291908181526020018280546123da906149a5565b80156124275780601f106123fc57610100808354040283529160200191612427565b820191906000526020600020905b81548152906001019060200180831161240a57829003601f168201915b505050505060006133ae565b61243e8260016133ae565b81600e60008581526020019081526020016000206001019080519060200190612468929190613f94565b505b6000815111156124a05780600e6000858152602001908152602001600020600201908051906020019061249e929190613f94565b505b6124a98361292d565b505050565b6124b66125c3565b73ffffffffffffffffffffffffffffffffffffffff166124d4611893565b73ffffffffffffffffffffffffffffffffffffffff161461252a576040517f08c379a000000000000000000000000000000000000000000000000000000000815260040161252190614e02565b60405180910390fd5b600073ffffffffffffffffffffffffffffffffffffffff168173ffffffffffffffffffffffffffffffffffffffff16141561259a576040517f08c379a000000000000000000000000000000000000000000000000000000000815260040161259190615319565b60405180910390fd5b6125a381612dda565b50565b60006125bc8260036133f090919063ffffffff16565b9050919050565b600033905090565b816006600083815260200190815260200160002060006101000a81548173ffffffffffffffffffffffffffffffffffffffff021916908373ffffffffffffffffffffffffffffffffffffffff160217905550808273ffffffffffffffffffffffffffffffffffffffff1661263e83611400565b73ffffffffffffffffffffffffffffffffffffffff167f8c5be1e5ebec7d5bd14f71427d1e84f3dd0314c0f7b2291e5b200ac8c7c3b92560405160405180910390a45050565b606060008290506000815167ffffffffffffffff8111156126a8576126a7614341565b5b6040519080825280601f01601f1916602001820160405280156126da5781602001600182028036833780820191505090505b50905060005b825181101561282f5760418382815181106126fe576126fd615339565b5b602001015160f81c60f81b60f81c60ff16101580156127415750605a83828151811061272d5761272c615339565b5b602001015160f81c60f81b60f81c60ff1611155b156127bd57602083828151811061275b5761275a615339565b5b602001015160f81c60f81b60f81c6127739190615375565b60f81b82828151811061278957612788615339565b5b60200101907effffffffffffffffffffffffffffffffffffffffffffffffffffffffffffff1916908160001a90535061281e565b8281815181106127d0576127cf615339565b5b602001015160f81c60f81b8282815181106127ee576127ed615339565b5b60200101907effffffffffffffffffffffffffffffffffffffffffffffffffffffffffffff1916908160001a9053505b80612828906153ac565b90506126e0565b508092505050919050565b60006128488260000161340a565b9050919050565b600061285a826125a6565b612899576040517f08c379a000000000000000000000000000000000000000000000000000000000815260040161289090615467565b60405180910390fd5b60006128a483611400565b90508073ffffffffffffffffffffffffffffffffffffffff168473ffffffffffffffffffffffffffffffffffffffff16148061291357508373ffffffffffffffffffffffffffffffffffffffff166128fb84610a5e565b73ffffffffffffffffffffffffffffffffffffffff16145b8061292457506129238185612189565b5b91505092915050565b612936816125a6565b612975576040517f08c379a000000000000000000000000000000000000000000000000000000000815260040161296c906154d3565b60405180910390fd5b60011515600c60009054906101000a900460ff161515146129cb576040517f08c379a00000000000000000000000000000000000000000000000000000000081526004016129c29061553f565b60405180910390fd5b600015156012600083815260200190815260200160002060009054906101000a900460ff16151514612a32576040517f08c379a0000000000000000000000000000000000000000000000000000000008152600401612a29906155ab565b60405180910390fd5b60016012600083815260200190815260200160002060006101000a81548160ff021916908315150217905550601160009054906101000a900473ffffffffffffffffffffffffffffffffffffffff1673ffffffffffffffffffffffffffffffffffffffff166108fc6015549081150290604051600060405180830381858888f19350505050158015612ac8573d6000803e3d6000fd5b507fad3ba8044df9220f4f82c378a626e692f42832c511aa9cdba661cc41073ddba081600e6000848152602001908152602001600020600101600e6000858152602001908152602001600020600201600e600086815260200190815260200160002060000154604051612b3e9493929190615660565b60405180910390a150565b8273ffffffffffffffffffffffffffffffffffffffff16612b6982611400565b73ffffffffffffffffffffffffffffffffffffffff1614612bbf576040517f08c379a0000000000000000000000000000000000000000000000000000000008152600401612bb690615725565b60405180910390fd5b600073ffffffffffffffffffffffffffffffffffffffff168273ffffffffffffffffffffffffffffffffffffffff161415612c2f576040517f08c379a0000000000000000000000000000000000000000000000000000000008152600401612c26906157b7565b60405180910390fd5b612c3a83838361341f565b612c456000826125cb565b612c9681600260008673ffffffffffffffffffffffffffffffffffffffff1673ffffffffffffffffffffffffffffffffffffffff16815260200190815260200160002061342490919063ffffffff16565b50612ce881600260008573ffffffffffffffffffffffffffffffffffffffff1673ffffffffffffffffffffffffffffffffffffffff16815260200190815260200160002061343e90919063ffffffff16565b50612cff818360036134589092919063ffffffff16565b50808273ffffffffffffffffffffffffffffffffffffffff168473ffffffffffffffffffffffffffffffffffffffff167fddf252ad1be2c89b69c2b068fc378daa952ba7f163c4a11628f55a4df523b3ef60405160405180910390a4505050565b6000612d6f836000018361348d565b60001c905092915050565b600080600080612d8d86600001866134b8565b915091508160001c8160001c9350935050509250929050565b6000612db9846000018460001b846134f8565b60001c90509392505050565b6000612dd382600001613579565b9050919050565b6000600160009054906101000a900473ffffffffffffffffffffffffffffffffffffffff16905081600160006101000a81548173ffffffffffffffffffffffffffffffffffffffff021916908373ffffffffffffffffffffffffffffffffffffffff1602179055508173ffffffffffffffffffffffffffffffffffffffff168173ffffffffffffffffffffffffffffffffffffffff167f8be0079c531659141344cd1fd0a4f28419497f9722a3daafe3b4186f6b6457e060405160405180910390a35050565b612ea98261313c565b8015612ec1575060001515612ebd83610bfb565b1515145b612f00576040517f08c379a0000000000000000000000000000000000000000000000000000000008152600401612ef79061521b565b60405180910390fd5b612f0981613275565b612f48576040517f08c379a0000000000000000000000000000000000000000000000000000000008152600401612f3f90615287565b60405180910390fd5b60006c0c9f2c9cd04674edea40000000423385600d54604051602001612f719493929190615840565b6040516020818303038152906040528051906020012060001c612f9491906158b9565b9050600d6000815480929190612fa9906153ac565b9190505550612fb98360016133ae565b604051806060016040528082815260200184815260200183815250600e600086815260200190815260200160002060008201518160000155602082015181600101908051906020019061300d929190613f94565b50604082015181600201908051906020019061302a929190613f94565b5090505061305c8585858585604051602001613048939291906158ea565b60405160208183030381529060405261358a565b6130658461292d565b5050505050565b613075826125a6565b6130b4576040517f08c379a00000000000000000000000000000000000000000000000000000000081526004016130ab90615991565b60405180910390fd5b80600a600084815260200190815260200160002090805190602001906130db929190613f94565b505050565b6130eb848484612b49565b6130f7848484846135e5565b613136576040517f08c379a000000000000000000000000000000000000000000000000000000000815260040161312d90615a23565b60405180910390fd5b50505050565b600080829050600081511415613156576000915050613270565b60168151111561316a576000915050613270565b602060f81b8160008151811061318357613182615339565b5b602001015160f81c60f81b7effffffffffffffffffffffffffffffffffffffffffffffffffffffffffffff191614156131c0576000915050613270565b602060f81b81600183516131d49190615a43565b815181106131e5576131e4615339565b5b602001015160f81c60f81b7effffffffffffffffffffffffffffffffffffffffffffffffffffffffffffff19161415613222576000915050613270565b61322b83613749565b61326a576040517f08c379a000000000000000000000000000000000000000000000000000000000815260040161326190615ac3565b60405180910390fd5b60019150505b919050565b60008082905060008151141561328f5760009150506133a9565b6020815111156132a35760009150506133a9565b602060f81b816000815181106132bc576132bb615339565b5b602001015160f81c60f81b7effffffffffffffffffffffffffffffffffffffffffffffffffffffffffffff191614156132f95760009150506133a9565b602060f81b816001835161330d9190615a43565b8151811061331e5761331d615339565b5b602001015160f81c60f81b7effffffffffffffffffffffffffffffffffffffffffffffffffffffffffffff1916141561335b5760009150506133a9565b61336483613749565b6133a3576040517f08c379a000000000000000000000000000000000000000000000000000000000815260040161339a90615ac3565b60405180910390fd5b60019150505b919050565b80600f6133ba84612684565b6040516133c79190614bc9565b908152602001604051809103902060006101000a81548160ff0219169083151502179055505050565b6000613402836000018360001b613967565b905092915050565b600061341882600001613987565b9050919050565b505050565b6000613436836000018360001b61399c565b905092915050565b6000613450836000018360001b613ab0565b905092915050565b6000613484846000018460001b8473ffffffffffffffffffffffffffffffffffffffff1660001b613b20565b90509392505050565b60008260000182815481106134a5576134a4615339565b5b9060005260206000200154905092915050565b60008060006134d38486600001613b5b90919063ffffffff16565b9050808560020160008381526020019081526020016000205492509250509250929050565b6000808460020160008581526020019081526020016000205490506000801b8114158061352b575061352a8585613967565b5b839061356d576040517f08c379a000000000000000000000000000000000000000000000000000000000815260040161356491906141f4565b60405180910390fd5b50809150509392505050565b600081600001805490509050919050565b6135948383613b72565b6135a160008484846135e5565b6135e0576040517f08c379a00000000000000000000000000000000000000000000000000000000081526004016135d790615a23565b60405180910390fd5b505050565b60006136068473ffffffffffffffffffffffffffffffffffffffff16613d00565b6136135760019050613741565b60006136da63150b7a0260e01b6136286125c3565b88878760405160240161363e9493929190615b38565b604051602081830303815290604052907bffffffffffffffffffffffffffffffffffffffffffffffffffffffff19166020820180517bffffffffffffffffffffffffffffffffffffffffffffffffffffffff8381831617835250505050604051806060016040528060328152602001615e1f603291398773ffffffffffffffffffffffffffffffffffffffff16613d239092919063ffffffff16565b90506000818060200190518101906136f29190615b99565b905063150b7a0260e01b7bffffffffffffffffffffffffffffffffffffffffffffffffffffffff1916817bffffffffffffffffffffffffffffffffffffffffffffffffffffffff191614925050505b949350505050565b60008082905060008160008151811061376557613764615339565b5b602001015160f81c60f81b905060005b825181101561395a57600083828151811061379357613792615339565b5b602001015160f81c60f81b9050602060f81b817effffffffffffffffffffffffffffffffffffffffffffffffffffffffffffff19161480156137fa5750602060f81b837effffffffffffffffffffffffffffffffffffffffffffffffffffffffffffff1916145b1561380c576000945050505050613962565b602060f81b817effffffffffffffffffffffffffffffffffffffffffffffffffffffffffffff1916101580156138685750603f60f81b817effffffffffffffffffffffffffffffffffffffffffffffffffffffffffffff191611155b1580156138ce5750604160f81b817effffffffffffffffffffffffffffffffffffffffffffffffffffffffffffff1916101580156138cc5750605a60f81b817effffffffffffffffffffffffffffffffffffffffffffffffffffffffffffff191611155b155b80156139335750606160f81b817effffffffffffffffffffffffffffffffffffffffffffffffffffffffffffff1916101580156139315750607a60f81b817effffffffffffffffffffffffffffffffffffffffffffffffffffffffffffff191611155b155b15613945576000945050505050613962565b8092505080613953906153ac565b9050613775565b506001925050505b919050565b600061397f8284600001613d3b90919063ffffffff16565b905092915050565b600061399582600001613579565b9050919050565b60008083600101600084815260200190815260200160002054905060008114613aa45760006001826139ce9190615a43565b90506000600186600001805490506139e69190615a43565b9050818114613a55576000866000018281548110613a0757613a06615339565b5b9060005260206000200154905080876000018481548110613a2b57613a2a615339565b5b90600052602060002001819055508387600101600083815260200190815260200160002081905550505b85600001805480613a6957613a68615bc6565b5b600190038181906000526020600020016000905590558560010160008681526020019081526020016000206000905560019350505050613aaa565b60009150505b92915050565b6000613abc8383613d52565b613b15578260000182908060018154018082558091505060019003906000526020600020016000909190919091505582600001805490508360010160008481526020019081526020016000208190555060019050613b1a565b600090505b92915050565b60008184600201600085815260200190815260200160002081905550613b528385600001613d7590919063ffffffff16565b90509392505050565b6000613b6a836000018361348d565b905092915050565b600073ffffffffffffffffffffffffffffffffffffffff168273ffffffffffffffffffffffffffffffffffffffff161415613be2576040517f08c379a0000000000000000000000000000000000000000000000000000000008152600401613bd990615c41565b60405180910390fd5b613beb816125a6565b15613c2b576040517f08c379a0000000000000000000000000000000000000000000000000000000008152600401613c2290615cad565b60405180910390fd5b613c376000838361341f565b613c8881600260008573ffffffffffffffffffffffffffffffffffffffff1673ffffffffffffffffffffffffffffffffffffffff16815260200190815260200160002061343e90919063ffffffff16565b50613c9f818360036134589092919063ffffffff16565b50808273ffffffffffffffffffffffffffffffffffffffff16600073ffffffffffffffffffffffffffffffffffffffff167fddf252ad1be2c89b69c2b068fc378daa952ba7f163c4a11628f55a4df523b3ef60405160405180910390a45050565b6000808273ffffffffffffffffffffffffffffffffffffffff163b119050919050565b6060613d328484600085613d8c565b90509392505050565b6000613d4a8360000183613d52565b905092915050565b600080836001016000848152602001908152602001600020541415905092915050565b6000613d848360000183613ab0565b905092915050565b606082471015613dd1576040517f08c379a0000000000000000000000000000000000000000000000000000000008152600401613dc890615d3f565b60405180910390fd5b613dda85613d00565b613e19576040517f08c379a0000000000000000000000000000000000000000000000000000000008152600401613e1090615dab565b60405180910390fd5b6000808673ffffffffffffffffffffffffffffffffffffffff168587604051613e429190615e07565b60006040518083038185875af1925050503d8060008114613e7f576040519150601f19603f3d011682016040523d82523d6000602084013e613e84565b606091505b5091509150613e94828286613ea0565b92505050949350505050565b60608315613eb057829050613f00565b600083511115613ec35782518084602001fd5b816040517f08c379a0000000000000000000000000000000000000000000000000000000008152600401613ef791906141f4565b60405180910390fd5b9392505050565b828054613f13906149a5565b90600052602060002090601f016020900481019282613f355760008555613f83565b82601f10613f465780548555613f83565b82800160010185558215613f8357600052602060002091601f016020900482015b82811115613f82578254825591600101919060010190613f67565b5b509050613f90919061403b565b5090565b828054613fa0906149a5565b90600052602060002090601f016020900481019282613fc25760008555614009565b82601f10613fdb57805160ff1916838001178555614009565b82800160010185558215614009579182015b82811115614008578251825591602001919060010190613fed565b5b509050614016919061403b565b5090565b60405180606001604052806000815260200160608152602001606081525090565b5b8082111561405457600081600090555060010161403c565b5090565b6000604051905090565b600080fd5b600080fd5b60007fffffffff0000000000000000000000000000000000000000000000000000000082169050919050565b6140a18161406c565b81146140ac57600080fd5b50565b6000813590506140be81614098565b92915050565b6000602082840312156140da576140d9614062565b5b60006140e8848285016140af565b91505092915050565b60008115159050919050565b614106816140f1565b82525050565b600060208201905061412160008301846140fd565b92915050565b6000819050919050565b61413a81614127565b82525050565b60006020820190506141556000830184614131565b92915050565b600081519050919050565b600082825260208201905092915050565b60005b8381101561419557808201518184015260208101905061417a565b838111156141a4576000848401525b50505050565b6000601f19601f8301169050919050565b60006141c68261415b565b6141d08185614166565b93506141e0818560208601614177565b6141e9816141aa565b840191505092915050565b6000602082019050818103600083015261420e81846141bb565b905092915050565b61421f81614127565b811461422a57600080fd5b50565b60008135905061423c81614216565b92915050565b60006020828403121561425857614257614062565b5b60006142668482850161422d565b91505092915050565b600073ffffffffffffffffffffffffffffffffffffffff82169050919050565b600061429a8261426f565b9050919050565b6142aa8161428f565b82525050565b60006020820190506142c560008301846142a1565b92915050565b6142d48161428f565b81146142df57600080fd5b50565b6000813590506142f1816142cb565b92915050565b6000806040838503121561430e5761430d614062565b5b600061431c858286016142e2565b925050602061432d8582860161422d565b9150509250929050565b600080fd5b600080fd5b7f4e487b7100000000000000000000000000000000000000000000000000000000600052604160045260246000fd5b614379826141aa565b810181811067ffffffffffffffff8211171561439857614397614341565b5b80604052505050565b60006143ab614058565b90506143b78282614370565b919050565b600067ffffffffffffffff8211156143d7576143d6614341565b5b6143e0826141aa565b9050602081019050919050565b82818337600083830152505050565b600061440f61440a846143bc565b6143a1565b90508281526020810184848401111561442b5761442a61433c565b5b6144368482856143ed565b509392505050565b600082601f83011261445357614452614337565b5b81356144638482602086016143fc565b91505092915050565b60006020828403121561448257614481614062565b5b600082013567ffffffffffffffff8111156144a05761449f614067565b5b6144ac8482850161443e565b91505092915050565b600080604083850312156144cc576144cb614062565b5b60006144da8582860161422d565b92505060206144eb8582860161422d565b9150509250929050565b60008060006060848603121561450e5761450d614062565b5b600061451c868287016142e2565b935050602061452d868287016142e2565b925050604061453e8682870161422d565b9150509250925092565b60006020828403121561455e5761455d614062565b5b600061456c848285016142e2565b91505092915050565b6000806040838503121561458c5761458b614062565b5b600083013567ffffffffffffffff8111156145aa576145a9614067565b5b6145b68582860161443e565b925050602083013567ffffffffffffffff8111156145d7576145d6614067565b5b6145e38582860161443e565b9150509250929050565b6145f6816140f1565b811461460157600080fd5b50565b600081359050614613816145ed565b92915050565b600080604083850312156146305761462f614062565b5b600061463e858286016142e2565b925050602061464f85828601614604565b9150509250929050565b600080604083850312156146705761466f614062565b5b600061467e8582860161422d565b925050602083013567ffffffffffffffff81111561469f5761469e614067565b5b6146ab8582860161443e565b9150509250929050565b600067ffffffffffffffff8211156146d0576146cf614341565b5b6146d9826141aa565b9050602081019050919050565b60006146f96146f4846146b5565b6143a1565b9050828152602081018484840111156147155761471461433c565b5b6147208482856143ed565b509392505050565b600082601f83011261473d5761473c614337565b5b813561474d8482602086016146e6565b91505092915050565b600080600080608085870312156147705761476f614062565b5b600061477e878288016142e2565b945050602061478f878288016142e2565b93505060406147a08782880161422d565b925050606085013567ffffffffffffffff8111156147c1576147c0614067565b5b6147cd87828801614728565b91505092959194509250565b6147e281614127565b82525050565b600082825260208201905092915050565b60006148048261415b565b61480e81856147e8565b935061481e818560208601614177565b614827816141aa565b840191505092915050565b600060608301600083015161484a60008601826147d9565b506020830151848203602086015261486282826147f9565b9150506040830151848203604086015261487c82826147f9565b9150508091505092915050565b600060208201905081810360008301526148a38184614832565b905092915050565b600080604083850312156148c2576148c1614062565b5b60006148d0858286016142e2565b92505060206148e1858286016142e2565b9150509250929050565b60008060006060848603121561490457614903614062565b5b60006149128682870161422d565b935050602084013567ffffffffffffffff81111561493357614932614067565b5b61493f8682870161443e565b925050604084013567ffffffffffffffff8111156149605761495f614067565b5b61496c8682870161443e565b9150509250925092565b7f4e487b7100000000000000000000000000000000000000000000000000000000600052602260045260246000fd5b600060028204905060018216806149bd57607f821691505b602082108114156149d1576149d0614976565b5b50919050565b7f4552433732313a20617070726f76656420717565727920666f72206e6f6e657860008201527f697374656e7420746f6b656e0000000000000000000000000000000000000000602082015250565b6000614a33602c83614166565b9150614a3e826149d7565b604082019050919050565b60006020820190508181036000830152614a6281614a26565b9050919050565b7f4552433732313a20617070726f76616c20746f2063757272656e74206f776e6560008201527f7200000000000000000000000000000000000000000000000000000000000000602082015250565b6000614ac5602183614166565b9150614ad082614a69565b604082019050919050565b60006020820190508181036000830152614af481614ab8565b9050919050565b7f4552433732313a20617070726f76652063616c6c6572206973206e6f74206f7760008201527f6e6572206e6f7220617070726f76656420666f7220616c6c0000000000000000602082015250565b6000614b57603883614166565b9150614b6282614afb565b604082019050919050565b60006020820190508181036000830152614b8681614b4a565b9050919050565b600081905092915050565b6000614ba38261415b565b614bad8185614b8d565b9350614bbd818560208601614177565b80840191505092915050565b6000614bd58284614b98565b915081905092915050565b7f43616c6c6572206973206e6f74206f776e6572206e6f7220617070726f766564600082015250565b6000614c16602083614166565b9150614c2182614be0565b602082019050919050565b60006020820190508181036000830152614c4581614c09565b9050919050565b7f56616c75652073656e742069732062656c6f7720746865207072696365000000600082015250565b6000614c82601d83614166565b9150614c8d82614c4c565b602082019050919050565b60006020820190508181036000830152614cb181614c75565b9050919050565b7f4552433732313a207472616e736665722063616c6c6572206973206e6f74206f60008201527f776e6572206e6f7220617070726f766564000000000000000000000000000000602082015250565b6000614d14603183614166565b9150614d1f82614cb8565b604082019050919050565b60006020820190508181036000830152614d4381614d07565b9050919050565b7f496e646578206f7574206f6620626f756e647300000000000000000000000000600082015250565b6000614d80601383614166565b9150614d8b82614d4a565b602082019050919050565b60006020820190508181036000830152614daf81614d73565b9050919050565b7f4f776e61626c653a2063616c6c6572206973206e6f7420746865206f776e6572600082015250565b6000614dec602083614166565b9150614df782614db6565b602082019050919050565b60006020820190508181036000830152614e1b81614ddf565b9050919050565b7f4552433732313a2062616c616e636520717565727920666f7220746865207a6560008201527f726f206164647265737300000000000000000000000000000000000000000000602082015250565b6000614e7e602a83614166565b9150614e8982614e22565b604082019050919050565b60006020820190508181036000830152614ead81614e71565b9050919050565b7f53616c65206e6f742073746172746564206f7220706175736564000000000000600082015250565b6000614eea601a83614166565b9150614ef582614eb4565b602082019050919050565b60006020820190508181036000830152614f1981614edd565b9050919050565b7f53616c652068617320656e646564000000000000000000000000000000000000600082015250565b6000614f56600e83614166565b9150614f6182614f20565b602082019050919050565b60006020820190508181036000830152614f8581614f49565b9050919050565b7f4e487b7100000000000000000000000000000000000000000000000000000000600052601160045260246000fd5b6000614fc682614127565b9150614fd183614127565b9250827fffffffffffffffffffffffffffffffffffffffffffffffffffffffffffffffff0382111561500657615005614f8c565b5b828201905092915050565b7f4552433732313a20617070726f766520746f2063616c6c657200000000000000600082015250565b6000615047601983614166565b915061505282615011565b602082019050919050565b600060208201905081810360008301526150768161503a565b9050919050565b60006040820190506150926000830185614131565b81810360208301526150a481846141bb565b90509392505050565b7f4552433732314d657461646174613a2055524920717565727920666f72206e6f60008201527f6e6578697374656e7420746f6b656e0000000000000000000000000000000000602082015250565b6000615109602f83614166565b9150615114826150ad565b604082019050919050565b60006020820190508181036000830152615138816150fc565b9050919050565b600061514b8285614b98565b91506151578284614b98565b91508190509392505050565b7f43616e6e6f742062652073657420746f20656d70747920737472696e67000000600082015250565b6000615199601d83614166565b91506151a482615163565b602082019050919050565b600060208201905081810360008301526151c88161518c565b9050919050565b7f4e616d652074616b656e206f72206e6f742076616c6964000000000000000000600082015250565b6000615205601783614166565b9150615210826151cf565b602082019050919050565b60006020820190508181036000830152615234816151f8565b9050919050565b7f506f736974696f6e206e6f742076616c69640000000000000000000000000000600082015250565b6000615271601283614166565b915061527c8261523b565b602082019050919050565b600060208201905081810360008301526152a081615264565b9050919050565b7f4f776e61626c653a206e6577206f776e657220697320746865207a65726f206160008201527f6464726573730000000000000000000000000000000000000000000000000000602082015250565b6000615303602683614166565b915061530e826152a7565b604082019050919050565b60006020820190508181036000830152615332816152f6565b9050919050565b7f4e487b7100000000000000000000000000000000000000000000000000000000600052603260045260246000fd5b600060ff82169050919050565b600061538082615368565b915061538b83615368565b92508260ff038211156153a1576153a0614f8c565b5b828201905092915050565b60006153b782614127565b91507fffffffffffffffffffffffffffffffffffffffffffffffffffffffffffffffff8214156153ea576153e9614f8c565b5b600182019050919050565b7f4552433732313a206f70657261746f7220717565727920666f72206e6f6e657860008201527f697374656e7420746f6b656e0000000000000000000000000000000000000000602082015250565b6000615451602c83614166565b915061545c826153f5565b604082019050919050565b6000602082019050818103600083015261548081615444565b9050919050565b7f546f6b656e20646f6573206e6f74206578697374000000000000000000000000600082015250565b60006154bd601483614166565b91506154c882615487565b602082019050919050565b600060208201905081810360008301526154ec816154b0565b9050919050565b7f5570646174657320706175736564000000000000000000000000000000000000600082015250565b6000615529600e83614166565b9150615534826154f3565b602082019050919050565b600060208201905081810360008301526155588161551c565b9050919050565b7f557064617465206265696e672070726f63657373656400000000000000000000600082015250565b6000615595601683614166565b91506155a08261555f565b602082019050919050565b600060208201905081810360008301526155c481615588565b9050919050565b60008190508160005260206000209050919050565b600081546155ed816149a5565b6155f78186614166565b94506001821660008114615612576001811461562457615657565b60ff1983168652602086019350615657565b61562d856155cb565b60005b8381101561564f57815481890152600182019150602081019050615630565b808801955050505b50505092915050565b60006080820190506156756000830187614131565b818103602083015261568781866155e0565b9050818103604083015261569b81856155e0565b90506156aa6060830184614131565b95945050505050565b7f4552433732313a207472616e73666572206f6620746f6b656e2074686174206960008201527f73206e6f74206f776e0000000000000000000000000000000000000000000000602082015250565b600061570f602983614166565b915061571a826156b3565b604082019050919050565b6000602082019050818103600083015261573e81615702565b9050919050565b7f4552433732313a207472616e7366657220746f20746865207a65726f2061646460008201527f7265737300000000000000000000000000000000000000000000000000000000602082015250565b60006157a1602483614166565b91506157ac82615745565b604082019050919050565b600060208201905081810360008301526157d081615794565b9050919050565b6000819050919050565b6157f26157ed82614127565b6157d7565b82525050565b60008160601b9050919050565b6000615810826157f8565b9050919050565b600061582282615805565b9050919050565b61583a6158358261428f565b615817565b82525050565b600061584c82876157e1565b60208201915061585c8286615829565b60148201915061586c8285614b98565b915061587882846157e1565b60208201915081905095945050505050565b7f4e487b7100000000000000000000000000000000000000000000000000000000600052601260045260246000fd5b60006158c482614127565b91506158cf83614127565b9250826158df576158de61588a565b5b828206905092915050565b60006158f68286614b98565b91506159028285614b98565b915061590e82846157e1565b602082019150819050949350505050565b7f4552433732314d657461646174613a2055524920736574206f66206e6f6e657860008201527f697374656e7420746f6b656e0000000000000000000000000000000000000000602082015250565b600061597b602c83614166565b91506159868261591f565b604082019050919050565b600060208201905081810360008301526159aa8161596e565b9050919050565b7f4552433732313a207472616e7366657220746f206e6f6e20455243373231526560008201527f63656976657220696d706c656d656e7465720000000000000000000000000000602082015250565b6000615a0d603283614166565b9150615a18826159b1565b604082019050919050565b60006020820190508181036000830152615a3c81615a00565b9050919050565b6000615a4e82614127565b9150615a5983614127565b925082821015615a6c57615a6b614f8c565b5b828203905092915050565b7f4e6f6e2076616c69642063686172616374657273000000000000000000000000600082015250565b6000615aad601483614166565b9150615ab882615a77565b602082019050919050565b60006020820190508181036000830152615adc81615aa0565b9050919050565b600081519050919050565b600082825260208201905092915050565b6000615b0a82615ae3565b615b148185615aee565b9350615b24818560208601614177565b615b2d816141aa565b840191505092915050565b6000608082019050615b4d60008301876142a1565b615b5a60208301866142a1565b615b676040830185614131565b8181036060830152615b798184615aff565b905095945050505050565b600081519050615b9381614098565b92915050565b600060208284031215615baf57615bae614062565b5b6000615bbd84828501615b84565b91505092915050565b7f4e487b7100000000000000000000000000000000000000000000000000000000600052603160045260246000fd5b7f4552433732313a206d696e7420746f20746865207a65726f2061646472657373600082015250565b6000615c2b602083614166565b9150615c3682615bf5565b602082019050919050565b60006020820190508181036000830152615c5a81615c1e565b9050919050565b7f4552433732313a20746f6b656e20616c7265616479206d696e74656400000000600082015250565b6000615c97601c83614166565b9150615ca282615c61565b602082019050919050565b60006020820190508181036000830152615cc681615c8a565b9050919050565b7f416464726573733a20696e73756666696369656e742062616c616e636520666f60008201527f722063616c6c0000000000000000000000000000000000000000000000000000602082015250565b6000615d29602683614166565b9150615d3482615ccd565b604082019050919050565b60006020820190508181036000830152615d5881615d1c565b9050919050565b7f416464726573733a2063616c6c20746f206e6f6e2d636f6e7472616374000000600082015250565b6000615d95601d83614166565b9150615da082615d5f565b602082019050919050565b60006020820190508181036000830152615dc481615d88565b9050919050565b600081905092915050565b6000615de182615ae3565b615deb8185615dcb565b9350615dfb818560208601614177565b80840191505092915050565b6000615e138284615dd6565b91508190509291505056fe4552433732313a207472616e7366657220746f206e6f6e20455243373231526563656976657220696d706c656d656e7465724552433732313a206f776e657220717565727920666f72206e6f6e6578697374656e7420746f6b656ea264697066735822122024abf4620d31aa77a7d9291f256bd359db8856b6df5ef4c3a52ef9a90a07725564736f6c634300080a0033",
  "immutableReferences": {},
  "source": "// SPDX-License-Identifier: MIT\r\n\r\n// Because every self-respected businessman needs his business card\r\n\r\npragma solidity ^0.8.0;\r\n\r\nimport \"./Context.sol\";\r\nimport \"./ERC165.sol\";\r\nimport \"./IERC721.sol\";\r\nimport \"./IERC721Metadata.sol\";\r\nimport \"./IERC721Enumerable.sol\";\r\nimport \"./IERC721Receiver.sol\";\r\nimport \"./BusinessCardUtils.sol\";\r\nimport \"./SafeMath.sol\";\r\nimport \"./Address.sol\";\r\nimport \"./Strings.sol\";\r\nimport \"./EnumerableSet.sol\";\r\nimport \"./EnumerableMap.sol\";\r\nimport \"./Ownable.sol\";\r\n\r\n/**\r\n * @title ERC721 Non-Fungible Token Standard basic implementation\r\n * @dev see https://eips.ethereum.org/EIPS/eip-721\r\n */\r\ncontract BusinessCard is ERC165, IERC721, IERC721Metadata, IERC721Enumerable, Ownable {\r\n    using SafeMath for uint256;\r\n    using Address for address;\r\n    using EnumerableSet for EnumerableSet.UintSet;\r\n    using EnumerableMap for EnumerableMap.UintToAddressMap;\r\n    using Strings for uint256;\r\n\r\n    // Equals to `bytes4(keccak256(\"onERC721Received(address,address,uint256,bytes)\"))`\r\n    // which can be also obtained as `IERC721Receiver(0).onERC721Received.selector`\r\n    bytes4 private constant _ERC721_RECEIVED = 0x150b7a02;\r\n\r\n    // Mapping from holder address to their (enumerable) set of owned tokens\r\n    mapping (address => EnumerableSet.UintSet) private _holderTokens;\r\n\r\n    // Enumerable mapping from token ids to their owners\r\n    EnumerableMap.UintToAddressMap private _tokenOwners;\r\n\r\n    // Mapping from token ID to approved address\r\n    mapping (uint256 => address) private _tokenApprovals;\r\n\r\n    // Mapping from owner to operator approvals\r\n    mapping (address => mapping (address => bool)) private _operatorApprovals;\r\n\r\n    // Token name\r\n    string private _name;\r\n\r\n    // Token symbol\r\n    string private _symbol;\r\n\r\n    // Mapping for token URIs\r\n    mapping (uint256 => string) private _tokenURIs;\r\n\r\n    // Base URI\r\n    string private _baseURI;\r\n\r\n    /*\r\n     *     bytes4(keccak256('balanceOf(address)')) == 0x70a08231\r\n     *     bytes4(keccak256('ownerOf(uint256)')) == 0x6352211e\r\n     *     bytes4(keccak256('approve(address,uint256)')) == 0x095ea7b3\r\n     *     bytes4(keccak256('getApproved(uint256)')) == 0x081812fc\r\n     *     bytes4(keccak256('setApprovalForAll(address,bool)')) == 0xa22cb465\r\n     *     bytes4(keccak256('isApprovedForAll(address,address)')) == 0xe985e9c5\r\n     *     bytes4(keccak256('transferFrom(address,address,uint256)')) == 0x23b872dd\r\n     *     bytes4(keccak256('safeTransferFrom(address,address,uint256)')) == 0x42842e0e\r\n     *     bytes4(keccak256('safeTransferFrom(address,address,uint256,bytes)')) == 0xb88d4fde\r\n     *\r\n     *     => 0x70a08231 ^ 0x6352211e ^ 0x095ea7b3 ^ 0x081812fc ^\r\n     *        0xa22cb465 ^ 0xe985e9c5 ^ 0x23b872dd ^ 0x42842e0e ^ 0xb88d4fde == 0x80ac58cd\r\n     */\r\n    bytes4 private constant _INTERFACE_ID_ERC721 = 0x80ac58cd;\r\n\r\n    /*\r\n     *     bytes4(keccak256('name()')) == 0x06fdde03\r\n     *     bytes4(keccak256('symbol()')) == 0x95d89b41\r\n     *     bytes4(keccak256('tokenURI(uint256)')) == 0xc87b56dd\r\n     *\r\n     *     => 0x06fdde03 ^ 0x95d89b41 ^ 0xc87b56dd == 0x5b5e139f\r\n     */\r\n    bytes4 private constant _INTERFACE_ID_ERC721_METADATA = 0x5b5e139f;\r\n\r\n    /*\r\n     *     bytes4(keccak256('totalSupply()')) == 0x18160ddd\r\n     *     bytes4(keccak256('tokenOfOwnerByIndex(address,uint256)')) == 0x2f745c59\r\n     *     bytes4(keccak256('tokenByIndex(uint256)')) == 0x4f6ccce7\r\n     *\r\n     *     => 0x18160ddd ^ 0x2f745c59 ^ 0x4f6ccce7 == 0x780e9d63\r\n     */\r\n    bytes4 private constant _INTERFACE_ID_ERC721_ENUMERABLE = 0x780e9d63;\r\n\r\n    ////////////////////////////////////////////////////////////\r\n    /**\r\n     * @dev Business Card specific variables\r\n     */\r\n    // Public variables\r\n    uint256 public constant maxSupply = 1111;\r\n    bool public saleStarted;\r\n\r\n    // Business card struct\r\n    // Name and position are stored in whatever case the user gave\r\n    struct Card {\r\n        uint256 genes;\r\n        string name;\r\n        string position;\r\n    }\r\n\r\n    // Random nonce for generating genes\r\n    uint256 randNonce = 0;\r\n\r\n    // Mapping from token ID to card struct\r\n    mapping (uint256 => Card) private _tokenStats;\r\n    // Mapping for reserved names, reserved names are stored in lowercase\r\n    mapping (string => bool) private _nameReserved;\r\n\r\n    // Default URI\r\n    string private _defaultURI;\r\n\r\n    // Address of the oracle\r\n    address private serverOracle;\r\n    // Requests made to the NFT oracle\r\n    mapping(uint256 => bool) public requests;\r\n\r\n    // Token mint price\r\n    uint256 public _mintPrice = 0.1 ether;\r\n    // Token URI update price\r\n    uint256 public _updatePrice = 0.05 ether;\r\n    // Oracle update transaction gas price, 0.015 AVAX\r\n    uint256 public _oraclePrice = 0.015 ether;\r\n\r\n    // Oracle related events\r\n    event NewServerOracleEvent(address serverOracle);\r\n    event NewRequestEvent(uint256 tokenId, string name, string position, uint256 genes);\r\n    event TokenURIUpdatedEvent(uint256 tokenId, string tokenURI);\r\n    \r\n    // Price update events\r\n    event NewUpdatePriceEvent(uint256 newUpdatePrice);\r\n\r\n    /**\r\n     * @dev Initializes the contract by setting a `name` and a `symbol` to the token collection, and defining base and default URIs.\r\n     */\r\n    constructor (string memory name_, string memory symbol_, string memory baseURI_, string memory defaultURI_) {\r\n        _name = name_;\r\n        _symbol = symbol_;\r\n        _baseURI = baseURI_;\r\n        _defaultURI = defaultURI_;\r\n\r\n        // register the supported interfaces to conform to ERC721 via ERC165\r\n        _registerInterface(_INTERFACE_ID_ERC721);\r\n        _registerInterface(_INTERFACE_ID_ERC721_METADATA);\r\n        _registerInterface(_INTERFACE_ID_ERC721_ENUMERABLE);\r\n    }\r\n    \r\n    ////////////////////////////////////////////////////////////\r\n    /**\r\n     * @dev Business Card specific code\r\n     */\r\n    /**\r\n     * @dev Sets up a new oracle that handles the dynamic aspect of the NFT\r\n     */\r\n    function setOracle(address _serverOracle) external onlyOwner {\r\n        require(_serverOracle != address(0)); // dev: cannot set the oracle to the zero address\r\n        serverOracle = _serverOracle;\r\n        emit NewServerOracleEvent(serverOracle);\r\n    }\r\n\r\n    /**\r\n     * @dev Changes the update price for the usage of the oracle\r\n     */\r\n    function modifyUpdatePrice(uint256 newUpdatePrice) external onlyOwner {\r\n        require(newUpdatePrice >= _oraclePrice); // dev: Update price must always cover the gas costs of running the oracle\r\n        _updatePrice = newUpdatePrice;\r\n        emit NewUpdatePriceEvent(_updatePrice);\r\n    }\r\n\r\n    /**\r\n     * @dev For functions that may only be called by the specified oracle\r\n     */\r\n    modifier onlyOracle() {\r\n        require(_msgSender() == serverOracle); // dev: Only the assigned oracle can call these functions\r\n        _;\r\n    }\r\n\r\n    /**\r\n     * @dev Calls the oracle to update a certain token URI with the newly defined Card struct\r\n     */\r\n    function _updateTokenURI(uint256 _tokenId) internal {\r\n        require(_exists(_tokenId), \"Token does not exist\");\r\n        require(saleStarted == true, \"Updates paused\");\r\n        // Calls for updating the token can only be made if it is not being processed already\r\n        require(requests[_tokenId] == false, \"Update being processed\");\r\n        requests[_tokenId] = true;\r\n        // Fund the server oracle with enough funds for the URI update transaction\r\n        payable(serverOracle).transfer(_oraclePrice);\r\n        // Emit event to be catched by the server oracle running off-chain\r\n        emit NewRequestEvent(_tokenId, _tokenStats[_tokenId].name, _tokenStats[_tokenId].position, _tokenStats[_tokenId].genes);\r\n    }\r\n\r\n    /**\r\n     * @dev Updates a certain token URI and clears the corresponding update request\r\n     * Only the assigned server oracle is allowed to call this function\r\n     */\r\n     function callback(uint256 _tokenId, string memory _tokenURI) external onlyOracle {\r\n        require(requests[_tokenId]); // dev: Request not in pending list\r\n        _setTokenURI(_tokenId, _tokenURI);\r\n        delete requests[_tokenId];\r\n        emit TokenURIUpdatedEvent(_tokenId, _tokenURI);\r\n     }\r\n\r\n     /**\r\n     * @dev Mints a new NFT Business Card\r\n     */\r\n    function getCard(string memory _cardName, string memory _cardPosition) public payable {\r\n        require(saleStarted == true, \"Sale not started or paused\");\r\n        require(totalSupply() < maxSupply, \"Sale has ended\");\r\n        require(msg.value >= _mintPrice, \"Value sent is below the price\");\r\n        // Minting a new NFT with the name and position provided\r\n        _safeMint(_msgSender(), totalSupply() + 1, _cardName, _cardPosition);\r\n    }\r\n\r\n    /**\r\n     * @dev Safely mints `tokenId` and transfers it to `to`.\r\n     *\r\n     * Requirements:\r\n     d*\r\n     * - `tokenId` must not exist.\r\n     * - If `to` refers to a smart contract, it must implement {IERC721Receiver-onERC721Received}, which is called upon a safe transfer.\r\n     *\r\n     * Emits a {Transfer} event.\r\n     */\r\n    function _safeMint(address _to, uint256 _tokenId, string memory _cardName, string memory _cardPosition) internal virtual {\r\n        require(\r\n            BusinessCardUtils.validateName(_cardName) &&\r\n            isNameReserved(_cardName) == false, \r\n            \"Name taken or not valid\"\r\n        );\r\n        require(\r\n            BusinessCardUtils.validatePosition(_cardPosition), \r\n            \"Position not valid\"\r\n        );\r\n\r\n        // Generating the random genes, defined by a 26 digit number\r\n        // The server oracle will convert the genes to a string and add leading zeros, as tokenURIs are generated with this constraint\r\n        uint256 genes = uint(keccak256(abi.encodePacked(block.timestamp, msg.sender, _cardName, randNonce))) % 10**30;\r\n        randNonce++;\r\n        \r\n        // Generating a new card\r\n        toggleReserveName(_cardName, true);\r\n        _tokenStats[_tokenId] = Card(genes, _cardName, _cardPosition);\r\n        _safeMint(_to, _tokenId, abi.encodePacked(_cardName, _cardPosition, genes));\r\n        _updateTokenURI(_tokenId);\r\n    }\r\n\r\n    /**\r\n     * @dev Same as {xref-ERC721-_safeMint-address-uint256-}[`_safeMint`], with an additional `data` parameter which is\r\n     * forwarded in {IERC721Receiver-onERC721Received} to contract recipients.\r\n     */\r\n    function _safeMint(address to, uint256 tokenId, bytes memory _data) internal virtual {\r\n        _mint(to, tokenId);\r\n        require(_checkOnERC721Received(address(0), to, tokenId, _data), \"ERC721: transfer to non ERC721Receiver implementer\");\r\n    }\r\n\r\n    /**\r\n     * @dev Changes the name and/or position of a given NFT, must be owned by the caller.\r\n     * Whenever such change is made, it is first immediately reflected in the Card struct, and in the metadata after oracle updates.\r\n     * User can change both name and position, just the name, or just the position (by leaving those inputs empty)\r\n     */\r\n    function changeNameAndOrPosition(uint256 tokenId, string memory newName, string memory newPosition) public payable {\r\n        \r\n        require(_isApprovedOrOwner(_msgSender(), tokenId), \"Caller is not owner nor approved\");\r\n        require(\r\n            isNameReserved(newName) == false &&\r\n            (\r\n                bytes(newName).length == 0 \r\n                ||\r\n                BusinessCardUtils.validateName(newName) == true\r\n            )\r\n            , \r\n            \"Name taken or not valid\"\r\n        );\r\n        require(\r\n            bytes(newPosition).length == 0\r\n            ||\r\n            BusinessCardUtils.validatePosition(newPosition) == true\r\n            , \r\n            \"Position not valid\"\r\n        );\r\n        require(\r\n            msg.value >= _updatePrice, \r\n            \"Value sent is below the price\"\r\n        );\r\n\r\n        // Only change the name if specified\r\n        if (bytes(newName).length > 0) {\r\n            // De-reserve the old name\r\n            toggleReserveName(_tokenStats[tokenId].name, false);\r\n            // Reserve the new name\r\n            toggleReserveName(newName, true);\r\n            // Changing the token name\r\n            _tokenStats[tokenId].name = newName;\r\n        }\r\n        // Only change position if specified\r\n        if (bytes(newPosition).length > 0) {\r\n            _tokenStats[tokenId].position = newPosition;\r\n        }\r\n        // This means user can prompt oracle to change the card, but not really change anything -- same update that incurs a cost\r\n\r\n        // Make new tokenURI update request\r\n        _updateTokenURI(tokenId);\r\n    }\r\n\r\n    /**\r\n     * @dev Swaps the name and position between two NFTs, must be owned by the caller.\r\n     * This is to give customers the ability to directly shuffle name and positions of their\r\n     * cards, and prevent possible \"name snipers\"\r\n     */\r\n    function swapNameAndPosition(uint256 tokenId1, uint256 tokenId2) public payable {\r\n        require(\r\n            _isApprovedOrOwner(_msgSender(), tokenId1) &&\r\n            _isApprovedOrOwner(_msgSender(), tokenId2), \r\n            \"Caller is not owner nor approved\"\r\n        );\r\n        require(msg.value >= _updatePrice, \"Value sent is below the price\");\r\n\r\n        // Swapping names and positions\r\n        string memory name1 = _tokenStats[tokenId1].name;\r\n        string memory position1 = _tokenStats[tokenId1].position;\r\n        _tokenStats[tokenId1].name = _tokenStats[tokenId2].name;\r\n        _tokenStats[tokenId1].position = _tokenStats[tokenId2].position;\r\n        _tokenStats[tokenId2].name = name1;\r\n        _tokenStats[tokenId2].position = position1;\r\n\r\n        // Make new tokenURI update requests\r\n        _updateTokenURI(tokenId1);\r\n        _updateTokenURI(tokenId2);\r\n    }\r\n\r\n    /**\r\n     * @dev Updates the tokenURI, intented to be used only when oracle fails to update a tokenURI\r\n     */\r\n    function updateTokenURI(uint256 tokenId) external onlyOwner {\r\n        _updateTokenURI(tokenId);\r\n    }\r\n\r\n    /**\r\n     * @dev Starts the sale, cannot do so until the oracle is defined\r\n     */\r\n    function startSale() external onlyOwner {\r\n        require(serverOracle != address(0));  // dev: Oracle not defined\r\n        saleStarted = true;\r\n    }\r\n\r\n    /**\r\n     * @dev Pauses the sale\r\n     */\r\n    function pauseSale() external onlyOwner {\r\n        saleStarted = false;\r\n    }\r\n\r\n    /**\r\n     * @dev Returns the stats of a token\r\n     */\r\n    function tokenStats(uint256 tokenId) public view returns (Card memory) {\r\n        return _tokenStats[tokenId];\r\n    }\r\n\r\n    /**\r\n     * @dev Overrides the default tokenURI behaviour to include the default URI\r\n     */\r\n    function tokenURI(uint256 tokenId) public view virtual returns (string memory) {\r\n        require(_exists(tokenId), \"ERC721Metadata: URI query for nonexistent token\");\r\n\r\n        string memory token = _tokenURIs[tokenId];\r\n\r\n        // If there is no tokenURI, returns the defaultURI, which must be defined after deployment\r\n        if (bytes(token).length == 0) {\r\n            return string(abi.encodePacked( baseURI(), defaultURI() ));\r\n        } else {\r\n            return string(abi.encodePacked( baseURI(), token ));\r\n        }\r\n    }\r\n\r\n    /**\r\n     * @dev For setting the baseURI for all tokenId's.\r\n     */\r\n    function setBaseURI(string memory newBaseURI) external onlyOwner {\r\n        require(bytes(newBaseURI).length > 0);\r\n        _baseURI = newBaseURI;\r\n    }\r\n\r\n    /**\r\n    * @dev Returns the default URI set via {_setBaseURI}. This will be\r\n    * automatically added as a prefix in {tokenURI} to each token's URI, or\r\n    * to the token ID if no specific URI is set for that token ID.\r\n    */\r\n    function defaultURI() public view virtual returns (string memory) {\r\n        return _defaultURI;\r\n    }\r\n\r\n    /**\r\n     * @dev For setting the default URI for all tokenId's. \r\n     */\r\n    function setDefaultURI(string memory newDefaultURI) external onlyOwner {\r\n        require(bytes(newDefaultURI).length > 0, \"Cannot be set to empty string\");\r\n        _defaultURI = newDefaultURI;\r\n    }\r\n\r\n    /**\r\n     * @dev Returns if the name has been reserved.\r\n     * Name reservation checks are made in lowercase\r\n     */\r\n    function isNameReserved(string memory nameString) public view returns (bool) {\r\n        return _nameReserved[BusinessCardUtils.toLower(nameString)];\r\n    }\r\n\r\n    /**\r\n     * @dev Reserves the name if isReserve is set to true, de-reserves if set to false\r\n     * Names are reserved in lowercase, but stored in whatever case the user gave\r\n     */\r\n    function toggleReserveName(string memory str, bool isReserve) internal {\r\n        _nameReserved[BusinessCardUtils.toLower(str)] = isReserve;\r\n    }\r\n\r\n    /**\r\n     * @dev Withdraw balance from this contract (Callable by owner)\r\n    */\r\n    function withdraw() onlyOwner external {\r\n        uint balance = address(this).balance;\r\n        payable(msg.sender).transfer(balance);\r\n    }\r\n\r\n    /*\r\n     * @dev ERC721 code\r\n     */\r\n    /**\r\n     * @dev See {IERC721-balanceOf}.\r\n     */\r\n    function balanceOf(address owner) public view virtual override returns (uint256) {\r\n        require(owner != address(0), \"ERC721: balance query for the zero address\");\r\n        return _holderTokens[owner].length();\r\n    }\r\n\r\n    /**\r\n     * @dev See {IERC721-ownerOf}.\r\n     */\r\n    function ownerOf(uint256 tokenId) public view virtual override returns (address) {\r\n        return _tokenOwners.get(tokenId, \"ERC721: owner query for nonexistent token\");\r\n    }\r\n\r\n    /**\r\n     * @dev See {IERC721Metadata-name}.\r\n     */\r\n    function name() public view virtual override returns (string memory) {\r\n        return _name;\r\n    }\r\n\r\n    /**\r\n     * @dev See {IERC721Metadata-symbol}.\r\n     */\r\n    function symbol() public view virtual override returns (string memory) {\r\n        return _symbol;\r\n    }\r\n\r\n    /**\r\n    * @dev Returns the base URI set via {_setBaseURI}. This will be\r\n    * automatically added as a prefix in {tokenURI} to each token's URI, or\r\n    * to the token ID if no specific URI is set for that token ID.\r\n    */\r\n    function baseURI() public view virtual returns (string memory) {\r\n        return _baseURI;\r\n    }\r\n\r\n    /**\r\n     * @dev See {IERC721Enumerable-tokenOfOwnerByIndex}.\r\n     */\r\n    function tokenOfOwnerByIndex(address owner, uint256 index) public view virtual override returns (uint256) {\r\n        require(index < balanceOf(owner), \"Index out of bounds\");  // need it or keep it?\r\n        return _holderTokens[owner].at(index);\r\n    }\r\n\r\n    /**\r\n     * @dev See {IERC721Enumerable-totalSupply}.\r\n     */\r\n    function totalSupply() public view virtual override returns (uint256) {\r\n        // _tokenOwners are indexed by tokenIds, so .length() returns the number of tokenIds\r\n        return _tokenOwners.length();\r\n    }\r\n\r\n    /**\r\n     * @dev See {IERC721Enumerable-tokenByIndex}.\r\n     */\r\n    function tokenByIndex(uint256 index) public view virtual override returns (uint256) {\r\n        require(index < totalSupply(), \"Index out of bounds\");  // need it or keep it?\r\n        (uint256 tokenId, ) = _tokenOwners.at(index);\r\n        return tokenId;\r\n    }\r\n\r\n    /**\r\n     * @dev See {IERC721-approve}.\r\n     */\r\n    function approve(address to, uint256 tokenId) public virtual override {\r\n        address owner = ownerOf(tokenId);\r\n        require(to != owner, \"ERC721: approval to current owner\");\r\n\r\n        require(_msgSender() == owner || isApprovedForAll(owner, _msgSender()),\r\n            \"ERC721: approve caller is not owner nor approved for all\"\r\n        );\r\n\r\n        _approve(to, tokenId);\r\n    }\r\n\r\n    /**\r\n     * @dev See {IERC721-getApproved}.\r\n     */\r\n    function getApproved(uint256 tokenId) public view virtual override returns (address) {\r\n        require(_exists(tokenId), \"ERC721: approved query for nonexistent token\");\r\n\r\n        return _tokenApprovals[tokenId];\r\n    }\r\n\r\n    /**\r\n     * @dev See {IERC721-setApprovalForAll}.\r\n     */\r\n    function setApprovalForAll(address operator, bool approved) public virtual override {\r\n        require(operator != _msgSender(), \"ERC721: approve to caller\");\r\n\r\n        _operatorApprovals[_msgSender()][operator] = approved;\r\n        emit ApprovalForAll(_msgSender(), operator, approved);\r\n    }\r\n\r\n    /**\r\n     * @dev See {IERC721-isApprovedForAll}.\r\n     */\r\n    function isApprovedForAll(address owner, address operator) public view virtual override returns (bool) {\r\n        return _operatorApprovals[owner][operator];\r\n    }\r\n\r\n    /**\r\n     * @dev See {IERC721-transferFrom}.\r\n     */\r\n    function transferFrom(address from, address to, uint256 tokenId) public virtual override {\r\n        //solhint-disable-next-line max-line-length\r\n        require(_isApprovedOrOwner(_msgSender(), tokenId), \"ERC721: transfer caller is not owner nor approved\");\r\n\r\n        _transfer(from, to, tokenId);\r\n    }\r\n\r\n    /**\r\n     * @dev See {IERC721-safeTransferFrom}.\r\n     */\r\n    function safeTransferFrom(address from, address to, uint256 tokenId) public virtual override {\r\n        safeTransferFrom(from, to, tokenId, \"\");\r\n    }\r\n\r\n    /**\r\n     * @dev See {IERC721-safeTransferFrom}.\r\n     */\r\n    function safeTransferFrom(address from, address to, uint256 tokenId, bytes memory _data) public virtual override {\r\n        require(_isApprovedOrOwner(_msgSender(), tokenId), \"ERC721: transfer caller is not owner nor approved\");\r\n        _safeTransfer(from, to, tokenId, _data);\r\n    }\r\n\r\n    /**\r\n     * @dev Safely transfers `tokenId` token from `from` to `to`, checking first that contract recipients\r\n     * are aware of the ERC721 protocol to prevent tokens from being forever locked.\r\n     *\r\n     * `_data` is additional data, it has no specified format and it is sent in call to `to`.\r\n     *\r\n     * This internal function is equivalent to {safeTransferFrom}, and can be used to e.g.\r\n     * implement alternative mechanisms to perform token transfer, such as signature-based.\r\n     *\r\n     * Requirements:\r\n     *\r\n     * - `from` cannot be the zero address.\r\n     * - `to` cannot be the zero address.\r\n     * - `tokenId` token must exist and be owned by `from`.\r\n     * - If `to` refers to a smart contract, it must implement {IERC721Receiver-onERC721Received}, which is called upon a safe transfer.\r\n     *\r\n     * Emits a {Transfer} event.\r\n     */\r\n    function _safeTransfer(address from, address to, uint256 tokenId, bytes memory _data) internal virtual {\r\n        _transfer(from, to, tokenId);\r\n        require(_checkOnERC721Received(from, to, tokenId, _data), \"ERC721: transfer to non ERC721Receiver implementer\");\r\n    }\r\n\r\n    /**\r\n     * @dev Returns whether `tokenId` exists.\r\n     *\r\n     * Tokens can be managed by their owner or approved accounts via {approve} or {setApprovalForAll}.\r\n     *\r\n     * Tokens start existing when they are minted (`_mint`),\r\n     * and stop existing when they are burned (`_burn`).\r\n     */\r\n    function _exists(uint256 tokenId) internal view virtual returns (bool) {\r\n        return _tokenOwners.contains(tokenId);\r\n    }\r\n\r\n    /**\r\n     * @dev Returns whether `spender` is allowed to manage `tokenId`.\r\n     *\r\n     * Requirements:\r\n     *\r\n     * - `tokenId` must exist.\r\n     */\r\n    function _isApprovedOrOwner(address spender, uint256 tokenId) internal view virtual returns (bool) {\r\n        require(_exists(tokenId), \"ERC721: operator query for nonexistent token\");\r\n        address owner = ownerOf(tokenId);\r\n        return (spender == owner || getApproved(tokenId) == spender || isApprovedForAll(owner, spender));\r\n    }\r\n\r\n    /**\r\n     * @dev Mints `tokenId` and transfers it to `to`.\r\n     *\r\n     * WARNING: Usage of this method is discouraged, use {_safeMint} whenever possible\r\n     *\r\n     * Requirements:\r\n     *\r\n     * - `tokenId` must not exist.\r\n     * - `to` cannot be the zero address.\r\n     *\r\n     * Emits a {Transfer} event.\r\n     */\r\n    function _mint(address _to, uint256 _tokenId) internal virtual {\r\n        require(_to != address(0), \"ERC721: mint to the zero address\");\r\n        require(!_exists(_tokenId), \"ERC721: token already minted\");\r\n\r\n        _beforeTokenTransfer(address(0), _to, _tokenId);\r\n\r\n        _holderTokens[_to].add(_tokenId);\r\n\r\n        _tokenOwners.set(_tokenId, _to);\r\n\r\n        emit Transfer(address(0), _to, _tokenId);\r\n    }\r\n\r\n    /**\r\n     * @dev Transfers `tokenId` from `from` to `to`.\r\n     *  As opposed to {transferFrom}, this imposes no restrictions on msg.sender.\r\n     *\r\n     * Requirements:\r\n     *\r\n     * - `to` cannot be the zero address.\r\n     * - `tokenId` token must be owned by `from`.\r\n     *\r\n     * Emits a {Transfer} event.\r\n     */\r\n    function _transfer(address from, address to, uint256 tokenId) internal virtual {\r\n        require(ownerOf(tokenId) == from, \"ERC721: transfer of token that is not own\"); // internal owner\r\n        require(to != address(0), \"ERC721: transfer to the zero address\");\r\n\r\n        _beforeTokenTransfer(from, to, tokenId);\r\n\r\n        // Clear approvals from the previous owner\r\n        _approve(address(0), tokenId);\r\n\r\n        _holderTokens[from].remove(tokenId);\r\n        _holderTokens[to].add(tokenId);\r\n\r\n        _tokenOwners.set(tokenId, to);\r\n\r\n        emit Transfer(from, to, tokenId);\r\n    }\r\n\r\n    /**\r\n     * @dev Sets `_tokenURI` as the tokenURI of `tokenId`.\r\n     *\r\n     * Requirements:\r\n     *\r\n     * - `tokenId` must exist.\r\n     */\r\n    function _setTokenURI(uint256 tokenId, string memory _tokenURI) internal virtual {\r\n        require(_exists(tokenId), \"ERC721Metadata: URI set of nonexistent token\");\r\n        _tokenURIs[tokenId] = _tokenURI;\r\n    }\r\n\r\n    /**\r\n     * @dev Internal function to invoke {IERC721Receiver-onERC721Received} on a target address.\r\n     * The call is not executed if the target address is not a contract.\r\n     *\r\n     * @param from address representing the previous owner of the given token ID\r\n     * @param to target address that will receive the tokens\r\n     * @param tokenId uint256 ID of the token to be transferred\r\n     * @param _data bytes optional data to send along with the call\r\n     * @return bool whether the call correctly returned the expected magic value\r\n     */\r\n    function _checkOnERC721Received(address from, address to, uint256 tokenId, bytes memory _data)\r\n        private returns (bool)\r\n    {\r\n        if (!to.isContract()) {\r\n            return true;\r\n        }\r\n        bytes memory returndata = to.functionCall(abi.encodeWithSelector(\r\n            IERC721Receiver(to).onERC721Received.selector,\r\n            _msgSender(),\r\n            from,\r\n            tokenId,\r\n            _data\r\n        ), \"ERC721: transfer to non ERC721Receiver implementer\");\r\n        bytes4 retval = abi.decode(returndata, (bytes4));\r\n        return (retval == _ERC721_RECEIVED);\r\n    }\r\n\r\n\r\n    /**\r\n     * @dev Approve `to` to operate on `tokenId`\r\n     *\r\n     * Emits a {Approval} event.\r\n     */\r\n    function _approve(address to, uint256 tokenId) private {\r\n        _tokenApprovals[tokenId] = to;\r\n        emit Approval(ownerOf(tokenId), to, tokenId); // internal owner\r\n    }\r\n\r\n    /**\r\n     * @dev Hook that is called before any token transfer. This includes minting\r\n     * and burning.\r\n     *\r\n     * Calling conditions:\r\n     *\r\n     * - When `from` and `to` are both non-zero, ``from``'s `tokenId` will be\r\n     * transferred to `to`.\r\n     * - When `from` is zero, `tokenId` will be minted for `to`.\r\n     * - When `to` is zero, ``from``'s `tokenId` will be burned.\r\n     * - `from` cannot be the zero address.\r\n     * - `to` cannot be the zero address.\r\n     *\r\n     * To learn more about hooks, head to xref:ROOT:extending-contracts.adoc#using-hooks[Using Hooks].\r\n     */\r\n    function _beforeTokenTransfer(address from, address to, uint256 tokenId) internal virtual { }\r\n\r\n}",
  "sourcePath": "C:\\Users\\sergi\\Desktop\\Ebin\\dorsiaclub\\src\\contracts\\BusinessCard\\contracts\\BusinessCard.sol",
  "compiler": {
    "name": "solc",
    "version": "0.8.10+commit.fc410830.Emscripten.clang"
  },
  "schemaVersion": "3.4.3",
  "updatedAt": "2022-06-03T08:18:01.336Z",
  "networkType": "ethereum",
  "devdoc": {
    "details": "see https://eips.ethereum.org/EIPS/eip-721",
    "kind": "dev",
    "methods": {
      "approve(address,uint256)": {
        "details": "See {IERC721-approve}."
      },
      "balanceOf(address)": {
        "details": "See {IERC721-balanceOf}."
      },
      "baseURI()": {
        "details": "Returns the base URI set via {_setBaseURI}. This will be automatically added as a prefix in {tokenURI} to each token's URI, or to the token ID if no specific URI is set for that token ID."
      },
      "callback(uint256,string)": {
        "details": "Updates a certain token URI and clears the corresponding update request Only the assigned server oracle is allowed to call this function"
      },
      "changeNameAndOrPosition(uint256,string,string)": {
        "details": "Changes the name and/or position of a given NFT, must be owned by the caller. Whenever such change is made, it is first immediately reflected in the Card struct, and in the metadata after oracle updates. User can change both name and position, just the name, or just the position (by leaving those inputs empty)"
      },
      "constructor": {
        "details": "Initializes the contract by setting a `name` and a `symbol` to the token collection, and defining base and default URIs."
      },
      "defaultURI()": {
        "details": "Returns the default URI set via {_setBaseURI}. This will be automatically added as a prefix in {tokenURI} to each token's URI, or to the token ID if no specific URI is set for that token ID."
      },
      "getApproved(uint256)": {
        "details": "See {IERC721-getApproved}."
      },
      "getCard(string,string)": {
        "details": "Mints a new NFT Business Card"
      },
      "isApprovedForAll(address,address)": {
        "details": "See {IERC721-isApprovedForAll}."
      },
      "isNameReserved(string)": {
        "details": "Returns if the name has been reserved. Name reservation checks are made in lowercase"
      },
      "modifyUpdatePrice(uint256)": {
        "details": "Changes the update price for the usage of the oracle"
      },
      "name()": {
        "details": "See {IERC721Metadata-name}."
      },
      "owner()": {
        "details": "Returns the address of the current owner."
      },
      "ownerOf(uint256)": {
        "details": "See {IERC721-ownerOf}."
      },
      "pauseSale()": {
        "details": "Pauses the sale"
      },
      "renounceOwnership()": {
        "details": "Leaves the contract without owner. It will not be possible to call `onlyOwner` functions anymore. Can only be called by the current owner. NOTE: Renouncing ownership will leave the contract without an owner, thereby removing any functionality that is only available to the owner."
      },
      "safeTransferFrom(address,address,uint256)": {
        "details": "See {IERC721-safeTransferFrom}."
      },
      "safeTransferFrom(address,address,uint256,bytes)": {
        "details": "See {IERC721-safeTransferFrom}."
      },
      "setApprovalForAll(address,bool)": {
        "details": "See {IERC721-setApprovalForAll}."
      },
      "setBaseURI(string)": {
        "details": "For setting the baseURI for all tokenId's."
      },
      "setDefaultURI(string)": {
        "details": "For setting the default URI for all tokenId's. "
      },
      "setOracle(address)": {
        "details": "Sets up a new oracle that handles the dynamic aspect of the NFT"
      },
      "startSale()": {
        "details": "Starts the sale, cannot do so until the oracle is defined"
      },
      "supportsInterface(bytes4)": {
        "details": "See {IERC165-supportsInterface}. Time complexity O(1), guaranteed to always use less than 30 000 gas."
      },
      "swapNameAndPosition(uint256,uint256)": {
        "details": "Swaps the name and position between two NFTs, must be owned by the caller. This is to give customers the ability to directly shuffle name and positions of their cards, and prevent possible \"name snipers\""
      },
      "symbol()": {
        "details": "See {IERC721Metadata-symbol}."
      },
      "tokenByIndex(uint256)": {
        "details": "See {IERC721Enumerable-tokenByIndex}."
      },
      "tokenOfOwnerByIndex(address,uint256)": {
        "details": "See {IERC721Enumerable-tokenOfOwnerByIndex}."
      },
      "tokenStats(uint256)": {
        "details": "Returns the stats of a token"
      },
      "tokenURI(uint256)": {
        "details": "Overrides the default tokenURI behaviour to include the default URI"
      },
      "totalSupply()": {
        "details": "See {IERC721Enumerable-totalSupply}."
      },
      "transferFrom(address,address,uint256)": {
        "details": "See {IERC721-transferFrom}."
      },
      "transferOwnership(address)": {
        "details": "Transfers ownership of the contract to a new account (`newOwner`). Can only be called by the current owner."
      },
      "updateTokenURI(uint256)": {
        "details": "Updates the tokenURI, intented to be used only when oracle fails to update a tokenURI"
      },
      "withdraw()": {
        "details": "Withdraw balance from this contract (Callable by owner)"
      }
    },
    "stateVariables": {
      "maxSupply": {
        "details": "Business Card specific variables"
      }
    },
    "title": "ERC721 Non-Fungible Token Standard basic implementation",
    "version": 1
  },
  "userdoc": {
    "kind": "user",
    "methods": {},
    "version": 1
  }
}